:020000040800F2
:10000000B8E5002045010008B1540008311E000881
:100010009554000839050008DD6400080000000060
:100020000000000000000000000000003162000835
:10003000E506000800000000D15700083362000800
:100040005F0100085F0100085F0100085F01000810
:100050005F0100085F0100085F0100085F01000800
:100060005F0100085F0100085F0100085F010008F0
:100070005F0100085F0100085F0100085F010008E0
:100080005F0100085F0100085F0100085F010008D0
:100090005F0100085F0100085F0100085F010008C0
:1000A0005F0100085F0100085F0100085F010008B0
:1000B0005F0100085F0100085F0100085F010008A0
:1000C0005F0100085F0100085F0100085F01000890
:1000D0005F0100085F0100085F0100085F01000880
:1000E0005F0100085F0100085F0100085F01000870
:1000F0005F0100085F0100085F0100085F01000860
:100100005F0100085F0100085F0100085F0100084F
:100110005F0100085F0100085F0100085F0100083F
:100120005F0100085F0100085F0100085F0100082F
:10013000DFF80CD000F070F900480047996C000817
:10014000B8E500200648804706480047FEE7FEE77E
:10015000FEE7FEE7FEE7FEE7FEE7FEE7FEE7FEE777
:10016000C162000831010008202A04DB203A21FA8C
:1001700002F00021704721FA02F3D040C2F12002C0
:100180009140084319467047D2B201E000F8012BB4
:10019000491EFBD270470022F6E710B513460A4607
:1001A00004461946FFF7F0FF204610BD2DE9FE4F2B
:1001B00081EA030404F0004421F0004100944FF070
:1001C000000B23F0004350EA01045ED052EA03041E
:1001D0005BD0C3F30A54C1F30A552C44A4F2F334A0
:1001E0000194A0FB0254C1F3130141F48011C3F345
:1001F000130343F4801301FB024400FB034E840A03
:10020000970A44EA815447EA8357A4FB076802959A
:100210008D0A05FB07854FEA932C04FB0C54270538
:10022000029D4FEA065847EA1637B5EB08056EEB14
:10023000070C870E920E47EA811742EA8312A7FB4A
:100240000201B6EB0B0164EB00042B0D43EA0C3307
:100250005E1844EB1C50DA465146E7FB0201C5F339
:1002600013044FEA0B3343EA14534FEA0432019C60
:1002700043EA0603A4F10C040294009CCDE900B407
:1002800000F07BF803B0BDE8F08F00200146F9E7ED
:100290000EB540F2334102910021CDE900110A462A
:1002A0000B4600F06AF803B000BDC1F30A5210B566
:1002B000C1F3130140F2FF3341F480119A4201DA95
:1002C000002010BD40F233439A42A2F2334203DCD5
:1002D0005242FFF749FF10BD904010BD2DE9F05F7D
:1002E0000546002092469B468846064681464024A5
:1002F0001BE02846414647462246FFF735FF534656
:100300005A46C01A914110D311461846224600F0B1
:1003100016F82D1A67EB01084F46224601200021EE
:1003200000F00DF817EB00094E41201EA4F1010466
:10033000DFDC484631462A464346BDE8F09F202A86
:1003400004DB203A00FA02F1002070479140C2F12C
:10035000200320FA03F319439040704710B5141E90
:1003600073F1000408DA401C41F1000192185B416E
:100370001A4301D120F0010010BD2DE9F04D924645
:100380009B4611B1B1FA81F202E0B0FA80F220325C
:100390009046FFF7D4FF04460F4640EA0A0041EAC0
:1003A0000B0153465A46084313D0114653EA010045
:1003B00019D0C8F140025046FFF7D6FE05460E465A
:1003C000504659464246FFF7BAFF084305D0012080
:1003D00004E020463946BDE8F08D0020054346EA9A
:1003E000E0762C4337430A986305E40AA0EB080043
:1003F0000022FD0A44EA47540A3002D50020014693
:10040000E9E7010510196941DDE90845001969416D
:10041000BDE8F04DA2E70000064C074D06E0E0689D
:1004200040F0010394E8070098471034AC42F6D33B
:10043000FFF782FEFC9D00081C9E00080146014853
:1004400001F0A8B9AC02002010B5044801F0B4F9DD
:10045000042801D0012010BD002010BDAC020020F6
:1004600038B501208DF800009DF80000012801D06A
:10047000012038BD064801F0B5F9040006D14FF45B
:100480000061034801F004F800B10124204638BDA2
:10049000AC02002038B50024009313460A460146FA
:1004A000034801F011FA00B10124204638BD0000D4
:1004B000AC02002038B50024009313460A460146DA
:1004C000034801F0DBFA00B10124204638BD0000EA
:1004D000AC020020017E012901D005F0DEB805F054
:1004E00041B870B50446C069002823D0606900F0A7
:1004F000F3F8E06900F00AFB0546207E012803D1ED
:10050000208A00F039FB20826269A088E188527855
:10051000401B891A628801EBD17102EB61012288CC
:1005200000EBD07002EB6000228AE369BDE8704006
:1005300000F042B870BD000001A005F0F3FFFEE737
:100540004275734661756C745F48616E646C657268
:100550000D0A00000349012208600146024806F026
:1005600017BA00002400002038000020C008C00294
:10057000890840EA411040EAD200704710B50446AD
:1005800000F067F92046BDE8104000F018B90000FF
:1005900070B51E461546044604F02CFD04F0CAFD55
:1005A000034802E00680641CA4B2AC42FAD370BDDA
:1005B0000008006C01F01ABD2DE9F0411C461646FA
:1005C0000F4605460CE0234632463946284600F0E1
:1005D0001FF821787F2901D9A41C00E0641C054480
:1005E00020780028EFD1A8B2BDE8F0812DE9F041D4
:1005F0001E46154607460C4606E03246214638465A
:10060000FFF7D8FF641CA4B2AC42F6D3BDE8F0817A
:100610002DE9FC41154D8046164628680F46846832
:1006200018787F2805D9188840BA00F083FA00E0CE
:100630000C462188814202D86188814202D2A16899
:100640000029F5D122886168801A2A6811F83040A3
:1006500004235278CDE9007603EBC00043460858E6
:10066000214605F07EFF2046BDE8FC8120000020E9
:100670002DE9F0471E461546894682460024DFF8DC
:100680003480089F12E000BF09EB040081B250469D
:1006900004F0B0FC04F04EFD0020414602E00F8063
:1006A000401C80B2A842FAD3641CA4B2B442EBD37B
:1006B000BDE8F0870008006C014800687047000042
:1006C0002000002010B5044601F018FD2046BDE8CA
:1006D000104001F0BBBB00000149086070470000FA
:1006E00020000020704710B50446FFF7F3FE2046B7
:1006F000BDE81040FFF7F5BE2DE9F84F1546DC22A6
:100700000F4680461C4611461046FFF72FFF00900B
:1007100023462A4639464046FFF7AAFF08EB05065E
:10072000751E4FF6FF7A4046AAB253463946FFF788
:100730002FFF3C44611E89468AB2534639464046E3
:10074000FFF754FF8C2211461046FFF70FFF0346B8
:10075000781C81B2A2B2A8B2FFF748FF601C82B237
:10076000B0B200233946FFF741FFB2B2A1B2002375
:100770004046FFF70DFF8C2211461046FFF7F6FEAC
:10078000034608F1010001B0AAB21FFA89F1BDE8E1
:10079000F04F80B2FFF7FCBE41610846FFF79CBFF7
:1007A00038B50446808900900D46E388A2886188A8
:1007B0002088FFF75DFF256138BD0176704770B571
:1007C00004464069FFF788FF2069002840D000F008
:1007D0009DF9217E01F00F02012A04D0022A04D0E3
:1007E000032A0FD106E026880CE02388A2881A4449
:1007F000101A06E0A288101A228800EBD07002EBD3
:10080000600086B201F0F000102804D0202804D047
:10081000302815D109E0658812E0606900F074F9AC
:100820006288E1881144081A09E0606900F06CF9F7
:10083000E188081A618800EBD07001EB600085B296
:10084000E289294630462369BDE87040FFF7B4BE0F
:1008500070BD38B5044680890090E388A28861881D
:100860002088FFF705FFE32211461046FFF77EFEC2
:1008700003462588A08861882844401C82B2E0880D
:100880006D1E0844401C81B2A8B2FFF781FEE3222E
:1008900011461046FFF76AFE03466188E088258806
:1008A000084482B2A0882844401C80B2FFF79EFE14
:1008B0002388A08861881844801C82B2E0889B1E2F
:1008C0000844801C81B298B24FF6FF752B46FFF7A3
:1008D0005FFE6188E08823880844801C82B2A0887B
:1008E000491E1844801C80B289B22B46FFF77EFE59
:1008F000A02211461046FFF739FE03462588A0883E
:10090000284482B260886D1E401E81B2A8B2FFF7F3
:100910003FFEA02211461046FFF728FE03466188DD
:10092000E088084482B22088401E80B2FFF75EFE55
:10093000692211461046FFF719FE03462588A08854
:100940002844401C82B26088AD1E801E81B2A8B2CD
:10095000FFF71EFE692211461046FFF707FE034609
:100960006188E0880844401C82B2208801B0491E9A
:10097000BDE83040401E89B280B2FFF737BE00228A
:10098000AFF3008030B50E4B054601205C7A012C98
:1009900015D8587A00241C54587A03EB800045601F
:1009A0005D7A03F108002A54587A421C5A7230309A
:1009B00008703A2048702F208870CC70002030BD1D
:1009C000A8DF002030B5B3F5804F05D06FF070413F
:1009D00040F82210002030BD8C690B688D682343DD
:1009E0004C688989240144EA0524234343EA0141F0
:1009F00050F82230014C23401943E9E70000F0CFC2
:100A000030B50A6850F8223023F0010340F8223054
:100A10008C68204B4A68082C1ED02243D1E903453C
:100A20002C4322434C6922438C692243CC692243E4
:100A30000C6A22434C6A22438C6A2243CC6A2243CA
:100A40000C6B0968224350F821401C4052EA040212
:100A500040F82120002030BDD1E9034542F00802D2
:100A60002C4322434C6922438C692243CC692243A4
:100A70000C6A22434C6A22438C6A2243CC6A22438A
:100A80000C6B0968224350F821401C40224342F07D
:100A90004002DDE78100F7FF30B5D1E9003443EAD9
:100AA00004138C688D89240244EA054423430C8A8C
:100AB000094D00EB820005EB045423430C7D6D01CE
:100AC00005EB0464896923430B43416801F040410D
:100AD0000B434360002030BD0000F0FF0021094AB5
:100AE00001E0491C89B232F81130834202D0022958
:100AF000F7D301E0022901D32020704702EB410027
:100B000040887047E49D00084078704730B504463F
:100B100000250AE0204600F00FF8284485B220782E
:100B20007F2801D9A41C00E0641C20780028F1D1A2
:100B3000284630BDFFF7D2BF0E4910B509688C6852
:100B400001787F2904D9008840BAFFF7F3FF02E05B
:100B5000084600E00C462188814202D86188814223
:100B600002D2A1680029F5D122886168801A11F8A3
:100B7000300010BD200000204FF6FF71081A7047AA
:100B800070B5044600F042F90546601C02D00448E6
:100B90000078044400F03AF9401BA042FAD370BD3B
:100BA0001000002030B5174885B00168002927D112
:100BB000012101601448416941F48071416140693B
:100BC000022400F48070049041F20100CDE9000499
:100BD0000325694603950D4800F01EF84FF6807016
:100BE000CDE9000469460395094800F015F84CF278
:100BF0003370CDE9000469460395064800F00CF80F
:100C000005B030BD08000020001002400020014067
:100C100000180140001401402DE9F84FDFF8B8A199
:100C200000220AF1040B144601274FF00F090BF1C3
:100C3000040E00BF0B6807FA04F52B40AB4274D1D9
:100C4000DFF898C14E68A6EB0C0866452BD00DDC8A
:100C5000032E34D005DC36B3012E19D0022E2FD14D
:100C60001BE0112E16D0122E2AD119E0B8F5881FDC
:100C700019D006DCB8F5803F15D0B8F5801F1FD11C
:100C800011E0B8F5001F0ED0B8F5041F18D10AE026
:100C9000CA6815E0CA68121D12E0CA6808320FE07F
:100CA000CA680C320CE08A682AB1012A4FF00802A7
:100CB00003D0456104E0042202E0056100E0002267
:100CC000FF2B01D8064601E000F104064FEA840537
:100CD00001D9A5F12005D6F800C009FA05F82CEADB
:100CE000080C02FA05F54CEA050CC6F800C04D6880
:100CF000ED006AD53A4DAE6946F00106AE61AD69C8
:100D000024F0030605F001050095364D06EB050CB1
:100D1000DCF80850A6074FEA167809FA08F6B5433A
:100D2000314EB04202D100261AE04EE02F4EB042C2
:100D300001D1012614E02E4EB04201D102260FE06F
:100D40002C4EB04201D103260AE02B4EB04201D115
:100D5000042605E0294EB04201D1052600E0062612
:100D600006FA08F62E43CCF808604D68DAF8006001
:100D7000ED03554601D51E4300E09E432E604D68AD
:100D8000AD0305D5DBF800601E43CBF8006004E03E
:100D9000DBF800509D43CBF800504D68DEF8006052
:100DA000ED02754601D51E4300E09E432E604D685E
:100DB000AD0205D5084D0C352E681E432E6004E0AB
:100DC000054E0C3635689D433560641C102CFFF4CD
:100DD00031AFBDE8F88F00000004014000001110A1
:100DE000001002400000014000080140000C0140DA
:100DF000001001400014014000180140001C014097
:100E00000AB1016170470904FBE7000001488068EE
:100E100070470000100000200248816802781144E9
:100E20008160704710000020074810B5016841F04C
:100E300010010160032000F091F8002000F006F896
:100E400000F024F8002010BD0020024070B50D4DC8
:100E500004464FF47A712878B1FBF0F00A4909682A
:100E6000B1FBF0F000F011FF48B9102C07D20022BE
:100E70002146501E00F052F800206C6070BD012029
:100E800070BD0000100000201C000020214808B5A3
:100E9000816941F001018161816901F001010091E5
:100EA000C16941F08051C161C06900F0805000907B
:100EB000032000F053F8002211466FF00B0000F001
:100EC0002DF8002211466FF00A0000F027F80022EA
:100ED00011466FF0090000F021F800221146501F62
:100EE00000F01CF800221146101F00F017F8002235
:100EF0001146901E00F012F800221146501E00F01C
:100F00000DF80548416821F0E06141F00071416051
:100F100008BD00000010024000000140F0B40E4B7C
:100F20001B680C46C3F30223C3F10705042D00D947
:100F30000425191D072901D2002300E0DB1E01262C
:100F400006FA05F1491E214099409E40761E164042
:100F50003143F0BC04F0ADBA0CED00E0064900F0FE
:100F6000070208684FF6FF03184040EA0220034AD0
:100F700010430860704700000CED00E00000FA0527
:100F80002DE9F047DFF83C8105460E46D8F8000011
:100F900000F00700B0420CD2D8F8001021F0070191
:100FA0003143C8F80010D8F8000000F00700B04244
:100FB00063D12878444C800705D56068A96820F083
:100FC000F000084360602878C00745D068680128B1
:100FD00016D02168022816D0890700294DDA6168E9
:100FE00021F0030101436160FFF710FF69680746C4
:100FF00041F2883001290FD00229814619D027E01B
:1010000021688903E9E78901E7E700BFFFF7FEFEF2
:10101000C11B494501D918E081466068C0F38100D1
:101020000128F3D118E000BFFFF7F0FEC11B4945CE
:101030000BD86068C0F381000228F5D10CE000BF36
:10104000FFF7E4FEC11B494502D90320BDE8F08744
:10105000606810F00C0FF3D1D8F80010404601F092
:101060000701B1420BD9016821F00701314301604A
:10107000006800F00700B04201D00120E6E72878C0
:10108000400705D56068E96820F4E06008436060C7
:101090002878000706D56068296920F4605040EA86
:1010A000C100606000F03CF86168084AC1F30311B8
:1010B000515CC840064908600020FFF7C7FE0020C9
:1010C000C4E700000020024000100240966E0008B5
:1010D0001C00002001480068704700001C00002030
:1010E0000448054900684968044AC1F30221515C7B
:1010F000C84070471C00002000100240A66E000887
:101100000448054900684968044AC1F3C221515C9A
:10111000C84070471C00002000100240A66E000866
:1011200012A185B00FC98DE80F0014A0144A006801
:1011300004905168134801F00C03042B10D0082BC5
:101140000ED1C1F38343C9031DF803000AD55168CA
:1011500004AAC1F34041515C0A4A5043B0FBF1F08C
:1011600005B0704708494843FAE700000203040548
:10117000060708090A0B0C0D0E0F101001020000E3
:101180000010024000127A0000093D002DE9F84FDE
:1011900004460078B94DC00748D06868C0F38100A4
:1011A000012807D06868C0F38100022809D1686867
:1011B000C00306D52868800338D5606800286FD042
:1011C00034E06068B0F5803F0BD010B1B0F5A02FCF
:1011D00011D0286820F480302860286820F480200E
:1011E00002E0286840F480302860606888B1FFF72A
:1011F0000DFE064609E0286840F480202860F0E7EC
:10120000FFF704FE801B642875D828688003F7D593
:101210000CE0FFF7FBFD064605E000BFFFF7F6FD1B
:10122000801B6428F0D828688003F7D42078944E77
:1012300080074FF001094FF000083BD5686810F0B7
:101240000C0F07D06868C0F38100022809D16868D4
:10125000C00306D42868800714D5206901281FD14F
:1012600010E02069B0B1C6F80090FFF7CFFD074647
:1012700005E000BFFFF7CAFDC01B0228C4D82868DC
:101280008007F7D52868616920F0F80040EAC100BE
:1012900028600FE0C6F80080FFF7B8FD074606E0BB
:1012A000E9E000BFFFF7B2FDC01B022823D8286881
:1012B0008007F7D4207800072CD57248A169D9B1EE
:1012C000C0F80090FFF7A2FD074604E0FFF79EFD7F
:1012D000C01B02280FD8686A8007F7D56A484FF408
:1012E000FA510068B0FBF1F0009000BF0098411E79
:1012F0000091FAD20EE080E0C0F80080FFF786FD92
:10130000074604E0FFF782FDC01B022875D8686A13
:101310008007F7D42078400760D5E8690027C0002F
:1013200008D4E86940F08050E861E869012700F0DE
:101330008050009055480168C90513D40168834660
:1013400041F480710160FFF761FD824606E000BF55
:10135000FFF75CFDA0EB0A0064284ED8DBF8000024
:10136000C005F5D5E06801280AD008B1052813D0DA
:10137000286A20F001002862286A20F0040002E0B8
:10138000286A40F001002862E06841F2883B98B189
:10139000FFF73CFD82460BE0286A40F0040028621B
:1013A000EEE700BFFFF732FDA0EB0A0159455AD81E
:1013B000286A8007F6D50CE0FFF728FD824605E095
:1013C000FFF724FDA0EB0A0159454CD8286A800795
:1013D000F6D41FB1E86920F08050E861E06988B375
:1013E0006968C1F38101022945D00228C6F86080EE
:1013F00004D0FFF70BFD044638E034E0FFF706FDAC
:10140000074604E0FFF702FDC01B02282BD828681E
:101410008001F7D4206AB0F5803F05D16868A168E3
:1014200020F4003008436860D4E908010843696883
:1014300021F4741108436860C6F86090FFF7E6FC79
:10144000044606E015E000BFFFF7E0FC001B0228A1
:1014500009D828688001F7D50BE000BFFFF7D6FC5C
:10146000001B022802D90320BDE8F88F28688001FC
:10147000F4D40020F8E70120F6E700000010024055
:1014800000004242800442421C00002000700040E4
:10149000FEB5044603200D4684F83400606C032832
:1014A00020D0B5F5805F1DD0B5F5006F05D045B1F2
:1014B000A06B40F00060A06309E0204604F00DFE40
:1014C00002E0204604F0E2FDA16B0143A163A06BA2
:1014D000012658B1216840F2FF50886384F83460D7
:1014E0000120FEBDA06B40F08050E4E7211DD4E94F
:1014F00005700EC90095CDE90170206804F085F9EA
:1015000084F834600020FEBD10B550F8742F120E20
:101510000A7002684FF6FF73120C03EA02224A8037
:101520000288C2F307234A881A434A8002781206C7
:101530004A6042684B68120E43EA02424A604268BF
:101540004B68C2F3074243EA02224A6082884B6832
:10155000C2F3072213434B6002790A728268120EAB
:101560004A728268120C1206CA600289CB68C2F302
:10157000072243EA0242CA60027ACB6843EA0222A7
:10158000CA60C268CB6843EA1263CB60C2680B7C56
:10159000C2F3074243EA12130B741207120D4A8278
:1015A00082894B8AC2F3072213434B82007B400897
:1015B000087501204875002010BDF0B5426E120E6E
:1015C00093090B70C2F383034B7002F003028A701D
:1015D000426E120CCA70B0F86420120A0A7190F8B8
:1015E00064204A71826E4FF6FF73120E03EA0212F4
:1015F000CA80826ECB88C2F3074243EA1213CB80C3
:1016000002F00F020A72B0F86820C2F30722D30971
:101610004B72C2F380138B72C2F34013CB72C2F3CE
:1016200000130B7300264E73446C4FF400770123B4
:101630006CB1012C43D0026840F2FF519163816B81
:1016400041F08051816380F834300120F0BD920771
:10165000120D0A6190F868200C6944EA82020A615E
:10166000C26E0C69120E44EA92140C61C2F3C204F9
:101670000C7502F007024A75C26EC2F307425409A4
:101680008C75C2F38204CC759207520F0A76B0F8BB
:101690006C20C2F307240A7E42EAD4120A760A6951
:1016A000521C42650D7EAD1CAA4042650D7A03FABC
:1016B00005F585656D0A6A43C0E917271CE090F8B7
:1016C00068209206920A0A61C26E0C69120E44EA00
:1016D00002220A61C26E0C69C2F3074214430C6114
:1016E000B0F86C20C2F307240A69521C4FEA822228
:1016F0004265C0E916720766C4F3801201F8192F1B
:101700004FEA84624FEA52624A7010F86C2F4C78AC
:1017100044EAD2144C7002F07F028A7042684FEAA9
:1017200012624FEAD214CC70C2F341140C71C2F3AE
:1017300082044C714FEA82724FEA12728A714268D7
:101740008C79C2F3074244EA92148C71C2F34014BC
:10175000CC710E7202F001024A728288C2F3072233
:101760004FEAD2148C72C2F38014CC72C2F34014CC
:101770000C73C2F300144C73C2F381048C7302F037
:101780000302CA7300794FEA500008744B744FF09B
:101790000000F0BD426C0A60826C4A60C26C8A60D4
:1017A000026DCA60426D0A61826D4A61C26D8A61D2
:1017B000006EC8610020704770B50446B0F8500054
:1017C00000250104206804F09EF918B1A16B0143C3
:1017D000A16304E00021206804F011F80546C5F378
:1017E000432070BD70B5040004D094F83400002587
:1017F00010B105E0012070BD2577204600F038F8D3
:10180000032084F83400204600F008F8A56325631F
:10181000012084F83400002070BD0000FEB50025D2
:101820000446C3200095CDE901502B462A4629469F
:10183000206803F0EAFF0D4E46F8A05F206803F031
:10184000F6FF012535600220FFF79AF9204604F0E3
:10185000CCFB20B9204604F055FB002805D084F8C5
:101860003450A16B0143A1630120FEBD0000304252
:1018700030B50068104985B088421BD10F484169D6
:1018800041F4806141614069022400F48060049069
:101890004FF4F850CDE90004032569460395084844
:1018A000FFF7BAF90420CDE900046946039505481D
:1018B000FFF7B2F905B030BD0080014000100240D2
:1018C00000100140001401402DE9F04F87B09A4606
:1018D00017460E460446DDF840B0FFF797FA009031
:1018E0003EB194F83400012807D0A06B40F00050BE
:1018F0000FE0A06B40F000600BE04FF00008C4F870
:101900003880E06D07EB0A01814204D9A06B40F0FA
:101910000070A0637DE0032084F834002068C0F8E4
:101920002C80606C012800D07F024FF40071206889
:1019300003F0CCFF40F2FF59012530B12268C2F814
:101940003890A16B0143A16361E04FF0FF3001903B
:101950004FEA4A200290902003900220CDE904082B
:10196000069501A9206803F034FFBAF1010F06D9EA
:10197000022020633946206804F036F804E025632D
:101980003946206804F049F80028D7D140F22A38B7
:101990002068416B11EA080F22D1406B000409D581
:1019A0000027206803F047FF46F827007F1C082F18
:1019B000F7D32036BBF1000F05D0FFF727FA0099C7
:1019C000411A5945E4D32168C1F83890A06B40F022
:1019D0000040A06384F83450032007B0BDE8F08FC6
:1019E000416BC90509D5BAF1010F06D9616C03290C
:1019F00003D004F0B9F80028A0D12068416B090792
:101A000009D5C0F83890A06B40F0080028E084F8B1
:101A100034500120E1E7416B890705D5C0F83890C3
:101A2000A06B40F002001BE0416B89061AD5C0F89C
:101A30003890A06B40F0200012E000BF03F0FBFEE6
:101A400001C6BBF1000F05D0FFF7E0F90099411A7C
:101A5000594507D32168C1F83890A06B40F0004089
:101A6000A063D4E72068416B8902E7D42168C1F8FC
:101A7000389084F834500020AFE700002DE9F04F93
:101A800087B09A4616460D460446FFF7BFF9069002
:101A90003DB194F83400012807D0A06B40F000500D
:101AA0000DE0A06B40F0006009E00020A063E26D53
:101AB00006EB0A01914204D9A06B40F00070A063CC
:101AC00090E0032184F8341021688146C862606C7C
:101AD000012800D076024FF40071206803F0F6FE72
:101AE00040F2FF58012730B12268C2F83880A16B5C
:101AF0000143A16317E0BAF1010F06D9202020634A
:101B00003146206804F04AF805E010202063314691
:101B1000206804F05CF8060008D02168C1F838801D
:101B2000A06B3043A06384F834705BE04FF0FF306B
:101B300000904FEA4A200190902002904846CDE95B
:101B40000407CDF80C90B9466946206803F041FEC1
:101B500040F21A3B22E0406B40040AD55FF00007D8
:101B600005EB8701206803F079FE7F1C082FF7D36F
:101B70002035109830B1FFF749F90699411A1098AD
:101B800081420BD32168C1F83880A06B3043A06339
:101B900084F83490032007B0BDE8F08F2068416BD3
:101BA00011EA0B0FD7D0416BC9050FD5BAF1010F60
:101BB0000CD9616C032909D003F0D6FF30B122683B
:101BC000C2F83880A16B0143A16309E02068416B32
:101BD000090709D5C0F83880A06B40F0080014E070
:101BE00084F834900120D6E7416B890705D5C0F809
:101BF0003880A06B40F0020007E0416BC0F83880ED
:101C0000C90604D5A06B40F01000A063E8E784F893
:101C100034900020BFE770B515460E46040003D08F
:101C200094F83D0010B107E0012070BD002084F859
:101C30003C00204600F01AF804F108012068FEF785
:101C4000DFFE3146A2682068FEF726FFD4E90102D4
:101C50002946236BFEF7B6FEA168206850F82120C4
:101C600042F0010240F82120002070BDFEF79ABF2B
:101C70004FF0E0210428086903D020F00400086137
:101C8000704740F00400FAE7704710B5401EB0F10D
:101C9000807F01D3012010BD4FF0E02460610F214F
:101CA000601703F006FC0020A061072020610020DF
:101CB00010BD10B5FFF7E8FF10BD70B5040004D0EB
:101CC00094F83900002510B106E0012070BD84F8B9
:101CD0003850204600F022F8242084F8390020688B
:101CE000C16821F40051C160204604F00DFB20685A
:101CF000016921F4904101612068416921F02A01C4
:101D000041612068C16841F40051C160E563202051
:101D100084F8390084F83A00002070BD10B50068DE
:101D2000114986B088421DD11048816941F4804133
:101D3000816180690E4C00F4804004904FF4007083
:101D40000090022001900320039069462046FEF790
:101D500063FF00212015CDE900010291694620466C
:101D6000FEF75AFF06B010BD0038014000100240D7
:101D7000000801402DE9F843044690F839001F4659
:101D800016460D46202850D1A5B19EB194F83800D2
:101D900001284AD0012084F838004FF00008C4F828
:101DA0003C80212084F83900FFF730F8A684814672
:101DB000E68426E00120BDE8F883E08C401EE08444
:101DC000A0684B46B0F5805F4FF000024FF08001F5
:101DD0002046009703D004F04FFBE8B90DE004F073
:101DE0004BFBC8B928882168C0F308004860206907
:101DF00008B16D1C05E0AD1C03E0216815F8010B6E
:101E00004860E08C0028D8D14B4600224021204673
:101E1000009704F031FB08B10320CCE7202084F8C0
:101E2000390084F838800020C5E70220C3E70000AD
:101E300001A004F077FBFEE7486172644661756CAF
:101E4000745F48616E646C65720D0A002DE9F043A1
:101E5000174C81460025208866884643A088A0F557
:101E6000D041043902D1A079012807D000210846C9
:101E700003F0C0F803F05EF90E4814E00020A071F2
:101E80002A2767814FF02B08A4F80C80014603F045
:101E9000B1F80120A071A4F80A80A781EAE700BF89
:101EA000A0F800906D1CB542FAD3BDE8F0830000A5
:101EB00080DF00200008006C2DE9F04F4A492A24F9
:101EC0002B25898845F2105A4FF4305B4FF4285E79
:101ED0004FF448764FF0F00C49F241394FF4A073BB
:101EE00045F210374FF4F07280B13F484FF00108CF
:101EF000494580F806800380A0F802C001D0B942AD
:101F00003ED12C2606814481858157E036484FF02A
:101F10000008494580F80680A0F800C0438006D03C
:101F2000A1F5D04CBCF1040C01D0B9420CD12C2647
:101F300006814481A1F5D0448581043C01D0B94299
:101F400044D10380428041E0514507D1A0F808B058
:101F5000A0F80AE04FF42C5181810EE0A1F5C8539E
:101F6000633B06D0222101812021418121218181F1
:101F70002CE02C210181458184810280468025E06E
:101F8000A1F5D04CBCF1040C09D051450BD1A0F8FF
:101F900008B0A0F80AE04FF42C54848121E02C26EC
:101FA0000681458109E0A1F5C85CBCF1630C12D043
:101FB000222404812124448120248481A1F5D04459
:101FC000043C01D0B94201D102804380BDE8F04F0A
:101FD000002002F03BBF4FF02C0CA0F808C0448159
:101FE000858106804280E9E780DF00202DE9F04FFF
:101FF000DFF800810C460146060A40469346B8F8D1
:102000000450DFF8F4A08289230A4089A5F513471C
:102010000AF10209413F19D0A5F5A647103F15D096
:10202000A5F5AA47103F15D04746A5F5C85CBE796F
:102030003F887F1A7F1EBCF1630C20D0A5F5D04CE1
:10204000BCF1040C33D0012E43D043E05546AAF82E
:10205000000033E0AAF80000A9F80060401CAAF8CC
:102060000000C8B2A9F80000AAF80020A9F80030C2
:10207000521CAAF80020E0B2A9F8000031E006B92D
:10208000B9B2AAF800000D0A4846A9F80050CFB22C
:10209000A9F80070A9F80050C9B2A9F80010AAF870
:1020A0000020A9F80030E1B2A9F800100DE0012EDF
:1020B00000D1B9B25546AAF800000E0A4846A9F860
:1020C0000060C9B2A9F800102A800380E1B2018043
:1020D00007E0B9B203F038F8B8F80C00214603F075
:1020E00033F8B8F80810AAF80010A9F800B0BDE855
:1020F000F08F000080DF0020FE07006C2DE9F05F0C
:102100003220FEF73DFD002002F07AFEFE4EFF4D2C
:1021100049F24139AC1CB08046F6040A45F2103B46
:1021200045F210574FF6FF78FF2804D3404502D000
:10213000B0F5134F4AD1D3202880208820882188E9
:10214000404608EA012221881143B18049453DD02B
:10215000BF2129802188218821882188228800EABE
:1021600001210A43B280524530D0D42129802188F0
:1021700021882188228800EA01210A43B2805A4539
:1021800024D04FF45A41298021884FF45B412980A3
:1021900021884FF45C4200EA01212A8022880A4308
:1021A000B280B2F5004F7DD0BA420FD0A121298074
:1021B00021882188208808EA01210843A0F5AE4142
:1021C000B080613902D141F66310B080B188D0A0EF
:1021D00004F0A8F9B08848457ED1CF20288000209F
:1021E0002080C120208030202080ED2028806420A5
:1021F0002080032020801220208081202080E82061
:10220000288085202080102020807A202080CB20EC
:102210002880392020802C2020800020208034201D
:10222000208002202080F720288020202080EA20A3
:102230002880002020802080C02028801B20208033
:10224000C120288001202080C520288030202080C7
:102250002080C7202880B720208036202880482072
:1022600020803A20288055202080B120288000201E
:1022700020801A202080B62028800A202080A220DA
:102280002080F22028800020208026202880012025
:102290002080E02028800F2020802A2020802820F5
:1022A000208000E049E0082020800E2020800820C7
:1022B000208054202080A9202080432020800A20D4
:1022C00020800F20208000202080208020802080FF
:1022D000E1202880002000E031E0208015202080CF
:1022E00017202080072020801120208006202080B9
:1022F0002B202080562020803C202080052020801C
:10230000102020800F2020803F20208020800F2060
:1023100020802B2028800020208020800120208009
:102320003F2020802A2028800020208020802080BC
:10233000EF202080112028806EE0B78046E75045CE
:1023400070D1112028801420FEF71AFCD02028809C
:1023500007202080422020801D202080D12028803E
:10236000002020801A20208009202080D220288070
:102370000120208022202080C02028801020208062
:102380003B202080002020800220208011202080FF
:10239000C520288003202080C8202880002020809D
:1023A00025202080212020800520208000202080E2
:1023B0000A20208065202080252020807720208012
:1023C000502020800F20208000202080F8202880AE
:1023D00001202080FE2028800020208002202080F4
:1023E0002020288036202880082020803A2028803D
:1023F000552020802B202880002020802080012054
:1024000020803F2020802A202880002020802080DB
:1024100001202080DF2020807820FEF7B1FB2920DA
:10242000FEE3FFE758457BD1ED2028800120208086
:10243000FE202080EE202880DE20208021202080A9
:10244000F120288001202080DF202880102020809B
:10245000C42028808F202080C62028800020208053
:10246000E220208020802080BF202880AA20208099
:10247000B02028800D202080002020800D2020808A
:102480000020208011202080002020801920208022
:102490000020208021202080002020802D202080EE
:1024A000002020803D202080002020805D20208092
:1024B000002020805D20208000202080B120288006
:1024C00080202080002020808B2020800020208001
:1024D0009620208000202080B220288000202080AC
:1024E00020800220208000202080032020800020E7
:1024F0002080B32028800020208020802080208021
:102500002080208020800CE080DF0020FE07006C0F
:10251000204C43442049443A25780D0A000000002D
:10252000FEE320802080208020802080208020806A
:10253000208020802080208020802080208020809B
:1025400020802080B42028808B20208000202080C4
:102550009620208000202080A12020800020208044
:10256000B5202880022020800020208003202080A9
:10257000002020800420208000202080B620288099
:10258000002020802080B72028800020208020800C
:102590003F202080002020805E202080002020809E
:1025A00064202080002020808C202080002020803B
:1025B000AC20208000202080DC2020800020208093
:1025C000702020800020208090202080002020800B
:1025D000EB20208000202080DC2020800020208034
:1025E000B82028800020208020802080208020802B
:1025F000208020802080BA20288024202080002075
:10260000208020802080C120288020202080002061
:1026100020805420208000202080FF202080002067
:102620002080C22028800A202080002020800420D2
:10263000208000202080C32028803C202080002093
:1026400020803A2020800020208039202080002017
:10265000208037202080002020803C202080002007
:102660002080362020800020208032202080002002
:1026700020802F202080002020802C2020800020FF
:1026800020802920208000202080262020800020FB
:1026900020802420208000202080242020800020F2
:1026A000208023202080002020803C2020800020CB
:1026B00020803620208000202080322020800020B2
:1026C00020802F202080002020802C2020800020AF
:1026D00020802920208000202080262020800020AB
:1026E00020802420208000202080242020800020A2
:1026F00020802320208000202080C4202880622089
:102700002080002020800520208000202080842040
:10271000208000202080F0202080002020801820B1
:10272000208000202080A4202080002020801820ED
:1027300020800020208050202080002020800C203D
:1027400020800020208017202080002020809520DD
:10275000208000202080F320208000202080E620A0
:10276000208000202080C52028803220208000206A
:1027700020804420208000202080652020800020B0
:10278000208076202080002020808820208000204B
:102790002080C62028802020208000202080172034
:1027A0002080002020800120208000202080C72061
:1027B000288000202080208020802080C820288041
:1027C00000202080208020802080C92028800020B8
:1027D00020802080208020802080208020802080F9
:1027E00020802080208020802080208020802080E9
:1027F000E020288016202080002020801C202080BF
:102800000020208021202080002020803620208071
:102810000020208046202080002020805220208020
:102820000020208064202080002020807A202080CA
:10283000002020808B202080002020809920208074
:1028400000202080A820208000202080B920208027
:1028500000202080C420208000202080CA202080EA
:1028600000202080D220208000202080D9202080BD
:1028700000202080E020208000202080F320208085
:1028800000202080E1202880162020800020208049
:102890001C202080002020802220208000202080FA
:1028A00036202080002020804520208000202080AD
:1028B0005220208000202080642020800020208062
:1028C0007A202080002020808B2020800020208003
:1028D0009920208000202080A820208000202080B7
:1028E000B920208000202080C4202080002020806B
:1028F000CA20208000202080D2202080002020803C
:10290000D820208000202080E0202080002020800F
:10291000F320208000202080E220288005202080D5
:10292000002020800B202080002020801B20208081
:10293000002020803420208000202080442020801F
:10294000002020804F2020800020208061202080D7
:102950000020208079202080002020808820208076
:10296000002020809720208000202080A62020802A
:1029700000202080B720208000202080C2202080DE
:1029800000202080C720208000202080D1202080AF
:1029900000202080D620208000202080DD20208084
:1029A00000202080F320208000202080E320288049
:1029B00005202080002020800A2020800020208008
:1029C0001C202080002020803320208000202080B8
:1029D0004420208000202080502020800020208063
:1029E000622020800020208078202080002020800D
:1029F00088202080002020809720208000202080B8
:102A0000A620208000202080B72020800020208069
:102A1000C220208000202080C7202080002020802D
:102A2000D120208000202080D52020800020208000
:102A3000DD20208000202080F320208000202080C6
:102A4000E420288001202080002020800120208098
:102A50000020208002202080002020802A2020804A
:102A6000002020803C202080002020804B202080DF
:102A7000002020805D202080002020807420208085
:102A8000002020808420208000202080932020802F
:102A900000202080A220208000202080B3202080E1
:102AA00000202080BE20208000202080C4202080A4
:102AB00000202080CD20208000202080D320208076
:102AC00000202080DD20208000202080F320208036
:102AD00000202080E5202880002020802080208089
:102AE00020800220208000202080292020800020BB
:102AF00020803C202080002020804B20208000204F
:102B000020805D20208000202080742020800020F4
:102B1000208084202080002020809320208000209E
:102B20002080A220208000202080B3202080002050
:102B30002080BE20208000202080C4202080002013
:102B40002080CD20208000202080D32020800020E5
:102B50002080DC20208000202080F32020800020A6
:102B60002080E62028801120208000202080342032
:102B70002080002020805620208000202080762089
:102B80002080002020807720208000202080662068
:102B90002080002020808820208000202080992014
:102BA000208000202080BB202080002020809920D1
:102BB000208000202080662020800020208055205A
:102BC000208000202080552020800020208045206B
:102BD000208000202080432020800020208044206E
:102BE000208000202080E7202880322020800020C4
:102BF000208055202080002020807620208000200A
:102C000020806620208000202080672020800020F7
:102C1000208067202080002020808720208000E006
:102C2000BBE0002020809920208000202080BB2055
:102C30002080002020809920208000202080772084
:102C400020800020208044202080002020805620EA
:102C5000208000202080232020800020208033201E
:102C60002080002020804520208000202080E82037
:102C70002880002020802080992020800020208033
:102C80008720208000202080882020800020208035
:102C90007720208000202080662020800020208057
:102CA0008820208000202080AA20208000202080F2
:102CB000BB202080002020809920208000202080C0
:102CC0006620208000202080552020800020208049
:102CD000552020800020208044202080002020805B
:102CE000442020800020208055202080002020804B
:102CF000E9202880AA2020800020208020802080B9
:102D00002880AA202080CF202880002020802080BA
:102D1000208020802080208020802080208000E073
:102D20003EE0208020802080208020802080208025
:102D30002080F0202880002020805020208000204B
:102D4000208020802080F320288000202080F9200F
:102D5000288006202080102020802920208000202C
:102D600020803A202880552020801120288064204F
:102D7000FDF706FF292028803520288000202080AC
:102D800051202880FF202080532028802C20208064
:102D900055202880822020802C20288002F021B815
:102DA000B8427DD14FF470435521184602F0CCF95A
:102DB0004FF20104AA21204602F0C6F9661C5221F6
:102DC000304602F0C1F9A71C0821384602F0BCF9D0
:102DD0004FF204090121484602F0B6F90D214FF4E3
:102DE000304002F0B1F90D214BF2010002F0ACF9D4
:102DF0000D214BF2020002F0A7F94FF4364A3421BC
:102E0000504602F0A1F934214BF2016002F09CF926
:102E100034214BF2026002F097F94FF4314B0D214F
:102E2000584602F091F90D214BF2011002F08CF995
:102E30000D214BF2021002F087F934214FF4374094
:102E400002F082F934214BF2017002F07DF9342155
:102E50004BF2027002F078F900214FF4324002F098
:102E600073F900214BF2012002F06EF900214BF2C0
:102E7000022002F069F924214FF4384002F064F98D
:102E800024214BF6010002F05FF924214BF60200E9
:102E900002F05AF901214FF43F4002F055F900E0E9
:102EA000FDE30F214FF4334002F04EF90F214BF2B6
:102EB000013002F049F90F214BF2023002F044F9DF
:102EC00034214FF4394002F03FF934214BF6011020
:102ED00002F03AF934214BF6021002F035F90821DC
:102EE0004FF4354002F030F908214BF2015002F066
:102EF0002BF908214BF2025002F026F903214FF47E
:102F0000424002F021F924214FF43A4002F01CF92A
:102F100024214BF6012002F017F924214BF6022060
:102F200002F012F900214FF43C4002F00DF9782133
:102F30004BF6014002F008F900214BF6024002F086
:102F400003F900214FF43D4002F0FEF878214BF6E2
:102F5000015002F0F9F800214BF6025002F0F4F8AB
:102F600000214FF43E4002F0EFF864214BF601607F
:102F700002F0EAF800214FF4514002F0E5F8332165
:102F80004DF2011002F0E0F800214DF2021002F0C3
:102F9000DBF834214DF2031002F0D6F800214DF297
:102FA000041002F0D1F83A214DF2051002F0CCF8ED
:102FB00000214DF2061002F0C7F84A214DF2071029
:102FC00002F0C2F800214DF2081002F0BDF85C21B9
:102FD0004DF2091002F0B8F800214DF20A1002F08B
:102FE000B3F881214DF20B1002F0AEF800214DF242
:102FF0000C1002F0A9F8A6214DF20D1002F0A4F871
:1030000000214DF20E1002F09FF8E5214DF20F1055
:1030100002F09AF801214DF2101002F095F81321F8
:103020004DF2111002F090F801214DF2121002F051
:103030008BF854214DF2131002F086F801214DF265
:10304000141002F081F882214DF2151002F07CF884
:1030500001214DF2161002F077F8CA214DF2171037
:1030600002F072F802214DF2181002F06DF8002102
:103070004DF2191002F068F802214DF21A1002F018
:1030800063F801214DF21B1002F05EF802214DF2AF
:103090001C1002F059F834214DF21D1002F054F8C2
:1030A00002214DF21E1002F04FF867214DF21F1061
:1030B00002F04AF802214DF2201002F045F8842176
:1030C0004DF2211002F040F802214DF2221002F0E0
:1030D0003BF8A4214DF2231002F036F802214DF204
:1030E000241002F031F8B7214DF2251002F02CF82F
:1030F00002214DF2261002F027F8CF214DF22710C1
:1031000002F022F802214DF2281002F01DF8DE2113
:103110004DF2291002F018F802214DF22A1002F0A7
:1031200013F8F2214DF22B1002F00EF802214DF2AD
:103130002C1002F009F8FE214DF22D1002F004F8D7
:1031400003214DF22E1001F0FFFF10214DF22F1040
:1031500001F0FAFF03214DF2301001F0F5FF3321A9
:103160004DF2311001F0F0FF03214DF2321001F069
:10317000EBFF6D214DF2331001F0E6FF00214FF41B
:10318000524001F0E1FF33214DF2012001F0DCFF5C
:1031900000214DF2022001F0D7FF34214DF203202F
:1031A00001F0D2FF00214DF2042001F0CDFF3A21C1
:1031B0004DF2052001F0C8FF00214DF2062001F07C
:1031C000C3FF4A214DF2072001F0BEFF00214DF25E
:1031D000082001F0B9FF5C214DF2092001F0B4FF95
:1031E00000214DF20A2001F0AFFF81214DF20B20AA
:1031F00001F0AAFF00214DF20C2001F0A5FFA6214D
:103200004DF20D2001F0A0FF00214DF20E2001F043
:103210009BFFE5214DF20F2001F096FF01214DF2B9
:10322000102001F091FF13214DF2112001F08CFFCD
:1032300001214DF2122001F087FF54214DF213209D
:1032400001F082FF01214DF2142001F07DFF822167
:103250004DF2152001F078FF01214DF2162001F00A
:1032600073FFCA214DF2172001F06EFF02214DF2CB
:10327000182001F069FF00214DF2192001F064FFD0
:1032800002214DF21A2001F05FFF01214DF21B20B7
:1032900001F05AFF02214DF21C2001F055FF3421AC
:1032A0004DF21D2001F050FF02214DF21E2001F0D1
:1032B0004BFF67214DF21F2001F046FF02214DF226
:1032C000202001F041FF84214DF2212001F03CFF3C
:1032D00002214DF2222001F037FFA4214DF22320DC
:1032E00001F032FF02214DF2242001F02DFFB72121
:1032F0004DF2252001F028FF02214DF2262001F099
:1033000023FFCF214DF2272001F01EFF02214DF2B5
:10331000282001F019FFDE214DF2292001F014FFD1
:1033200002214DF22A2001F00FFFF2214DF22B2055
:1033300001F00AFF02214DF22C2001F005FFFE21D1
:103340004DF22D2001F000FF03214DF22E2001F05F
:10335000FBFE10214DF22F2001F0F6FE03214DF26D
:10336000302001F0F1FE33214DF2312001F0ECFE6E
:1033700003214DF2322001F0E7FE6D214DF23320A2
:1033800001F0E2FE00214FF4534001F0DDFE332155
:103390004DF2013001F0D8FE00214DF2023001F073
:1033A000D3FE34214DF2033001F0CEFE00214DF268
:1033B000043001F0C9FE3A214DF2053001F0C4FE9F
:1033C00000214DF2063001F0BFFE4A214DF20730D8
:1033D00001F0BAFE00214DF2083001F0B5FE5C218B
:1033E0004DF2093001F0B0FE00214DF20A3001F03B
:1033F000ABFE81214DF20B3001F0A6FE00214DF213
:103400000C3001F0A1FEA6214DF20D3001F09CFE22
:1034100000214DF20E3001F097FEE5214DF20F3004
:1034200001F092FE01214DF2103001F08DFE1321CA
:103430004DF2113001F088FE01214DF2123001F001
:1034400083FE54214DF2133001F07EFE01214DF236
:10345000143001F079FE82214DF2153001F074FE36
:1034600001214DF2163001F06FFECA214DF21730E6
:1034700001F06AFE02214DF2183001F065FE0021D4
:103480004DF2193001F060FE02214DF21A3001F0C8
:103490005BFE01214DF21B3001F056FE02214DF280
:1034A0001C3001F051FE34214DF21D3001F04CFE74
:1034B00002214DF21E3001F047FE67214DF21F3010
:1034C00001F042FE02214DF2203001F03DFE842148
:1034D0004DF2213001F038FE02214DF2223001F090
:1034E00033FEA4214DF2233001F02EFE02214DF2D5
:1034F000243001F029FEB7214DF2253001F024FEE1
:1035000002214DF2263001F01FFECF214DF227306F
:1035100001F01AFE02214DF2283001F015FEDE21E5
:103520004DF2293001F010FE02214DF22A3001F057
:103530000BFEF2214DF22B3001F006FE02214DF27E
:103540002C3001F001FEFE214DF22D3001F0FCFD8A
:1035500003214DF22E3001F0F7FD10214DF22F30F6
:1035600001F0F2FD03214DF2303001F0EDFD332189
:103570004DF2313001F0E8FD03214DF2323001F01F
:10358000E3FD6D214DF2333001F0DEFD00214FF4FB
:10359000544001F0D9FD33214DF2014001F0D4FD3A
:1035A00000214DF2024001F0CFFD34214DF20340E5
:1035B00001F0CAFD00214DF2044001F0C5FD3A21A1
:1035C0004DF2054001F0C0FD00214DF2064001F032
:1035D000BBFD4A214DF2074001F0B6FD00214DF23E
:1035E000084001F0B1FD5C214DF2094001F0ACFD55
:1035F00000214DF20A4001F0A7FD81214DF20B4060
:1036000001F0A2FD00214DF20C4001F09DFDA6212C
:103610004DF20D4001F098FD00214DF20E4001F0F9
:1036200093FDE5214DF20F4001F08EFD01214DF299
:10363000104001F089FD13214DF2114001F084FD8D
:1036400001214DF2124001F07FFD54214DF2134053
:1036500001F07AFD01214DF2144001F075FD822147
:103660004DF2154001F070FD01214DF2164001F0C0
:103670006BFDCA214DF2174001F066FD02214DF2AB
:10368000184001F061FD00214DF2194001F05CFD90
:1036900002214DF21A4001F057FD012100E0FFE246
:1036A0004DF21B4001F050FD02214DF21C4001F093
:1036B0004BFD34214DF21D4001F046FD02214DF23B
:1036C0001E4001F041FD67214DF21F4001F03CFD1D
:1036D00002214DF2204001F037FD84214DF22140BE
:1036E00001F032FD02214DF2224001F02DFDA42116
:1036F0004DF2234001F028FD02214DF2244001F05B
:1037000023FDB7214DF2254001F01EFD02214DF2AF
:10371000264001F019FDCF214DF2274001F014FDA4
:1037200002214DF2284001F00FFDDE214DF229402B
:1037300001F00AFD02214DF22A4001F005FDF221BF
:103740004DF22B4001F000FD02214DF22C4001F022
:10375000FBFCFE214DF22D4001F0F6FC03214DF261
:103760002E4001F0F1FC10214DF22F4001F0ECFC55
:1037700003214DF2304001F0E7FC33214DF231409E
:1037800001F0E2FC03214DF2324001F0DDFC6D213D
:103790004DF2334001F0D8FC00214FF4554001F0C8
:1037A000D3FC33214DF2015001F0CEFC00214DF24B
:1037B000025001F0C9FC34214DF2035001F0C4FC69
:1037C00000214DF2045001F0BFFC3A214DF20550AA
:1037D00001F0BAFC00214DF2065001F0B5FC4A217F
:1037E0004DF2075001F0B0FC00214DF2085001F0FD
:1037F000ABFC5C214DF2095001F0A6FC00214DF21A
:103800000A5001F0A1FC81214DF20B5001F09CFC0B
:1038100000214DF20C5001F097FCA6214DF20D5005
:1038200001F092FC00214DF20E5001F08DFCE521DB
:103830004DF20F5001F088FC01214DF2105001F0C3
:1038400083FC13214DF2115001F07EFC01214DF259
:10385000125001F079FC54214DF2135001F074FC28
:1038600001214DF2145001F06FFC82214DF21550F0
:1038700001F06AFC01214DF2165001F065FCCA21ED
:103880004DF2175001F060FC02214DF2185001F08A
:103890005BFC00214DF2195001F056FC02214DF263
:1038A0001A5001F051FC01214DF21B5001F04CFC6B
:1038B00002214DF21C5001F047FC34214DF21D5005
:1038C00001F042FC02214DF21E5001F03DFC672147
:1038D0004DF21F5001F038FC02214DF2205001F052
:1038E00033FC84214DF2215001F02EFC02214DF2D7
:1038F000225001F029FCA4214DF2235001F024FCB8
:1039000002214DF2245001F01FFCB7214DF2255049
:1039100001F01AFC02214DF2265001F015FCCF21D6
:103920004DF2275001F010FC02214DF2285001F019
:103930000BFCDE214DF2295001F006FC02214DF274
:103940002A5001F001FCF2214DF22B5001F0FCFB5A
:1039500002214DF22C5001F0F7FBFE214DF22D50CB
:1039600001F0F2FB03214DF22E5001F0EDFB10218E
:103970004DF22F5001F0E8FB03214DF2305001F0E1
:10398000E3FB33214DF2315001F0DEFB03214DF218
:10399000325001F0D9FB6D214DF2335001F0D4FBD0
:1039A00000214FF4564001F0CFFB33214DF201606E
:1039B00001F0CAFB00214DF2026001F0C5FB342189
:1039C0004DF2036001F0C0FB00214DF2046001F0F4
:1039D000BBFB3A214DF2056001F0B6FB00214DF230
:1039E000066001F0B1FB4A214DF2076001F0ACFB2B
:1039F00000214DF2086001F0A7FB5C214DF2096047
:103A000001F0A2FB00214DF20A6001F09DFB812133
:103A10004DF20B6001F098FB00214DF20C6001F0BB
:103A200093FBA6214DF20D6001F08EFB00214DF2BB
:103A30000E6001F089FBE5214DF20F6001F084FB7F
:103A400001214DF2106001F07FFB13214DF2116056
:103A500001F07AFB01214DF2126001F075FB542157
:103A60004DF2136001F070FB01214DF2146001F082
:103A70006BFB82214DF2156001F066FB01214DF2D6
:103A8000166001F061FBCA214DF2176001F05CFB8A
:103A900002214DF2186001F057FB00214DF2196030
:103AA00001F052FB02214DF21A6001F04DFB0121A1
:103AB0004DF21B6001F048FB02214DF21C6001F049
:103AC00043FB34214DF21D6001F03EFB02214DF21B
:103AD0001E6001F039FB67214DF21F6001F034FBDD
:103AE00002214DF2206001F02FFB84214DF2216074
:103AF00001F02AFB02214DF2226001F025FBA421F6
:103B00004DF2236001F020FB02214DF2246001F010
:103B10001BFBB7214DF2256001F016FB02214DF28F
:103B2000266001F011FBCF214DF2276001F00CFB64
:103B300002214DF2286001F007FBDE214DF22960E1
:103B400001F002FB02214DF22A6001F0FDFAF221A0
:103B50004DF22B6001F0F8FA02214DF22C6001F0D9
:103B6000F3FAFE214DF22D6001F0EEFA03214DF241
:103B70002E6001F0E9FA10214DF22F6001F0E4FA15
:103B800003214DF2306001F0DFFA33214DF2316054
:103B900001F0DAFA03214DF2326001F0D5FA6D211D
:103BA0004DF2336001F0D0FA5521184601F0CCFAFD
:103BB000AA21204601F0C8FA5221304601F0C4FA89
:103BC0000821384601F0C0FA0021484601F0BCFA4D
:103BD000CC21584601F0B8FA00214BF2011001F057
:103BE000B3FA0521504601F0AFFA70214FF4374087
:103BF00001F0AAFA70214BF2017001F0A5FA01213F
:103C00004FF4384001F0A0FA03214BF6010001F017
:103C10009BFA03214BF6020001F096FA03214BF6C2
:103C2000030001F091FA02214FF43C4001F08CFABC
:103C300000214BF6014001F087FA00214BF60240CB
:103C400001F082FAD0214FF4494001F07DFA0221BF
:103C50004CF6011001F078FA50214CF6021001F0F8
:103C600073FA50214CF6031001F06EFA50214CF615
:103C7000041001F069FA00214FF4545001F064FA85
:103C800055214FF4685001F05FFA4FF488502880B6
:103C90007720401EC0B2FCD24FF42450FFF77DB80D
:103CA000A0F513414FF480764FF4E06940F23F1BDA
:103CB0004FF4274A25392ED0A0F5134140F207775B
:103CC00028397DD0A0F513414FF4887A203978D077
:103CD000A0F51341313975D0A0F5A841083972D04B
:103CE000A0F5A8514FF4407A05396DD0A0F53541C3
:103CF00005396AD0A0F54541053967D0A0F58A415C
:103D000031397CD0A0F58A41353979D0A0F5C85138
:103D1000633976D0FEE347F6F001E52001F014FAAE
:103D20003146012001F010FA4946022001F00CFA58
:103D300041F23001032001F007FA0021042001F0D4
:103D400003FA40F20221082001F0FEF900210920C7
:103D500001F0FAF900210A2001F0F6F900210C2007
:103D600001F0F2F900210D2001F0EEF900210F2001
:103D700001F0EAF90021102001F0E6F907211120F5
:103D800001F0E2F90021122001F0DEF900211320F8
:103D900001F0DAF90021072001F0D6F941F2906133
:103DA000102001F0D1F940F22721112001F0CCF9C7
:103DB0009D21122001F0C8F94FF4C851132006E0EC
:103DC00081E03DE1E2E1B8E253E3FDE3FDE301F030
:103DD000BBF92521292001F0B7F90D212B2001F095
:103DE000B3F90721302001F0AFF940F2033131205F
:103DF00001F0AAF90321322001F0A6F902E0FCE368
:103E0000FCE3FCE340F20621352001F09DF9082196
:103E1000362001F099F940F20641372001F094F97B
:103E20004FF44171382001F08FF90721392001F05A
:103E30008BF940F202613C2001F086F908213D2017
:103E400001F082F90021502001F07EF9EF2151208C
:103E500001F07AF90021522001F076F959465320F9
:103E600001F072F95146602001F06EF901216120E4
:103E700001F06AF900216A2001F066F90021802032
:103E800001F062F90021812001F05EF90021822019
:103E900001F05AF90021832001F056F90021842015
:103EA00001F052F90021852001F04EF910219020F7
:103EB00001F04AF94FF4C061922001F045F940F257
:103EC00033110720FDE341F28F01EC2001F03CF9B2
:103ED00041F23421EF2001F037F93146012001F0A1
:103EE00033F94946022001F02FF941F23001032055
:103EF00001F02AF90021042001F026F940F2022104
:103F0000082001F021F90021092001F01DF900210C
:103F10000A2001F019F901210C2001F015F9002106
:103F20000D2001F011F900210F2001F00DF9002101
:103F3000102001F009F90721112001F005F90021F5
:103F4000122001F001F90021132001F0FDF80121F8
:103F5000072001F0F9F83220FCF712FE41F29041FF
:103F6000102001F0F1F840F22721112001F0ECF8C7
:103F70003220FCF705FE8A21122001F0E5F83220FC
:103F8000FCF7FEFD4FF4D051132001F0DDF80621BF
:103F9000292001F0D9F80D212B2001F0D5F832208D
:103FA000FCF7EEFD0021202001F0CEF800212120B9
:103FB00001F0CAF83220FCF7E3FD0021302001F0C7
:103FC000C3F840F20461312001F0BEF840F205313F
:103FD000322001F0B9F80021352001F0B5F840F6A3
:103FE0000941362001F0B0F84FF40171372001F09B
:103FF000ABF840F20131382001F0A6F839463920FB
:1040000001F0A2F800213C2001F09EF840F60A21C0
:104010003D2001F099F83220FCF7B2FD002150203C
:1040200001F092F8EF21512001F08EF8002152208A
:1040300001F08AF85946532001F086F8514651E1C3
:104040000021084601F080F83146012001F07CF89B
:104050004946022001F078F841F23001032001F0D6
:1040600073F80021042001F06FF840F202210820CB
:1040700001F06AF80021092001F066F800210A2009
:1040800001F062F801210C2001F05EF800210D2002
:1040900001F05AF800210F2001F056F83220FCF709
:1040A0006FFD40F20111072001F04EF83220FCF7BD
:1040B00067FD4FF48651102001F046F807211120CA
:1040C00001F042F853465146122001F03DF84FF4FA
:1040D0003061132001F038F80021292001F034F874
:1040E00044F210012B2001F02FF80021502001F0A4
:1040F0002BF8EF21512001F027F80021522001F088
:1041000023F85946532001F01FF84FF41C5160204A
:1041100001F01AF80121612001F016F800216A204F
:1041200001F012F80021802001F00EF8002181201A
:1041300001F00AF80021822001F006F80021832016
:1041400001F002F80021842000F0FEFF002185200C
:1041500000F0FAFF1021902000F0F6FF00219220DD
:1041600000F0F2FF0121932000F0EEFF19469520A8
:1041700000F0EAFF0021972000F0E6FF00219820E0
:1041800000F0E2FF40F27311072085E341F21401D1
:10419000E72000F0D9FF3146012000F0D5FF4FF4B1
:1041A0000071022000F0D0FF41F23801032000F03E
:1041B000CBFF40F20221082000F0C6FF00210920B9
:1041C00000F0C2FF00210A2000F0BEFF00210C20F9
:1041D00000F0BAFF00210D2000F0B6FF00210F20F3
:1041E00000F0B2FF0021102000F0AEFF07211120E7
:1041F00000F0AAFF0021122000F0A6FF00211320EA
:1042000000F0A2FFC820FCF7BBFC41F29061102037
:1042100000F09AFF40F22721112000F095FF322094
:10422000FCF7AEFC0C21122000F08EFF3220FCF7D0
:10423000A7FC4FF40061132000F086FF1121292014
:1042400000F082FF0B212B2000F07EFF3220FCF7D4
:1042500097FC0021202000F077FF5C465946212082
:1042600000F072FF0021302000F06EFF4FF48373E6
:104270001946312000F068FF0021322000F064FF71
:104280004FF40171352000F05FFF41F20A613620E2
:1042900000F05AFF3946372000F056FF1946382003
:1042A00000F052FF3946392000F04EFF40F2024143
:1042B0003C2000F049FF40F60F413D2000F044FF54
:1042C0000021502000F040FFEF21512000F03CFF82
:1042D0000021522000F038FF2146532000F034FF27
:1042E0004FF41C51602000F02FFF0121612000F0ED
:1042F0002BFF00216A2000F027FF0021802000F022
:1043000023FF0021812000F01FFF0021822000F008
:104310001BFF0021832000F017FF0021842000F004
:1043200013FF0021852000F00FFF1021902000F0E6
:104330000BFF4FF4C0619220FDE33146012000F0F5
:1043400003FF4946022000F0FFFE41F23001032046
:1043500000F0FAFE0021042000F0F6FE40F20721F2
:10436000082000F0F1FE0021092000F0EDFE002100
:104370000A2000F0E9FE00210C2000F0E5FE0021FB
:104380000D2000F0E1FE00210F2000F0DDFE1420E2
:10439000FCF7F6FB41F2B061102000F0D5FE0121E0
:1043A000112000F0D1FE0121172000F0CDFE4FF4C6
:1043B0009C71122000F0C8FE4FF40061132000F041
:1043C000C3FE0921292000F0BFFE09212A2000F0A8
:1043D000BBFE0021A42000F0B7FE0021502000F019
:1043E000B3FEEF21512000F0AFFE0021522000F07B
:1043F000ABFE5946532000F0A7FE4FF41C5160203D
:1044000000F0A2FE0121612000F09EFE00216A2042
:1044100000F09AFE0021802000F096FE002181200D
:1044200000F092FE0021822000F08EFE0021832009
:1044300000F08AFE0021842000F086FE0021852005
:1044400000F082FE1321902000F07EFE00219220D9
:1044500000F07AFE0321932000F076FE514695206D
:1044600000F072FE40F27311072000F06DFE322062
:1044700011E10021072000F067FE3220FCF780FBED
:104480004FF48E71122000F05FFE0121A42000F095
:104490005BFE0F21082000F057FE08210A2000F0E3
:1044A00053FE08210D2000F04FFE3946302000F069
:1044B0004BFE0721312000F047FE40F2036132201D
:1044C00000F042FE4C464946332000F03DFE40F2EB
:1044D0000221342000F038FE0221352000F034FEA5
:1044E00041F60F71362000F02FFE3946372000F0DC
:1044F0002BFE0021382000F027FE0021392000F09B
:1045000023FE39463A2000F01FFE00213B2000F038
:104510001BFE00E041E307213C2000F015FE0021D6
:104520003D2000F011FE3220FCF72AFB012107207C
:1045300000F00AFE0121172000F006FE3220FCF7F1
:104540001FFB4FF4BD51102000F0FEFD40F217217B
:10455000112000F0F9FD4FF48F71122000F0F4FDEE
:104560004FF47061132000F0EFFD00212A2000F0CD
:10457000EBFD0A21292000F0E7FD4FF49F71122086
:1045800000F0E2FD0021502000F0DEFDEF2151207F
:1045900000F0DAFD0021522000F0D6FD59465320EC
:1045A00000F0D2FD4FF41C51602000F0CDFD012140
:1045B000612000F0C9FD00216A2000F0C5FD002146
:1045C000802000F0C1FD01E068E066E1002181206B
:1045D00000F0BAFD0021822000F0B6FD002183200A
:1045E00000F0B2FD0021842000F0AEFD0021852006
:1045F00000F0AAFD1321902002E017E2CEE275E35D
:1046000000F0A2FD5146922000F09EFD052193206E
:1046100000F09AFD0021952000F096FD00219720E2
:1046200000F092FD0021982000F08EFD314601201F
:1046300000F08AFD2146022000F086FD41F238019B
:10464000032000F081FD0021042000F07DFD002109
:104650000C2000F079FD00210F2000F075FD0021F5
:10466000202000F071FD0021212000F06DFD2121AE
:10467000072000F069FD1420FCF782FA6121072071
:1046800000F062FD1420FCF77BFA40F27311072062
:1046900000F05AFD1420FCF773FAA2E3002108464B
:1046A00000F052FD0021084600F04EFD00210846B2
:1046B00000F04AFD0021084600F046FD0121A4203B
:1046C00000E0E5E000F040FD1420FCF759FA4FF45B
:1046D0001C542146602000F037FD40F20225294697
:1046E000082000F031FD4FF40571302000F02CFD62
:1046F00043F21571312000F027FD40F204613220B1
:1047000000F022FD40F61661332000F01DFD42F25C
:104710001121342000F018FD4FF4A851352000F08D
:1047200013FD48F20751362000F00EFD41F207411B
:10473000372000F009FD41F20341382000F004FD6C
:104740002021392000F000FD1A21902000F0FCFC0F
:104750000021102000F0F8FC0721112000F0F4FCEB
:104760000021122000F0F0FC0021132000F0ECFCEE
:104770001420FCF705FA4FF4E661102000F0E4FC89
:1047800040F23711112000F0DFFC1420FCF7F8F99B
:104790004FF4DC71122000F0D7FC1420FCF7F0F984
:1047A0004FF47061132000F0CFFC80212A2000F02C
:1047B000CBFC4821292000F0C7FC1420FCF7E0F9CD
:1047C0003146012000F0C0FC4946022000F0BCFC4C
:1047D00041F23801032000F0B7FC2946082000F020
:1047E000B3FC00210A2000F0AFFC00210C2000F0F7
:1047F000ABFC00210D2000F0A7FC30210E2000F0C2
:10480000A3FC0021502000F09FFCEF21512000F07C
:104810009BFC0021522000F097FC5946532000F0E9
:1048200093FC2146602000F08FFC0121612000F004
:104830008BFC00216A2000F087FC1121902000F001
:1048400083FC4FF4C061922000F07EFC40F20241F4
:10485000932000F079FC0221942000F075FC1420D4
:10486000FCF78EF90121072000F06EFC1420FCF704
:1048700087F96121072000F067FC40F273110720DF
:1048800000F062FC0021202000F05EFC00212120CD
:1048900000F05AFC222100207DE10021084600F0B2
:1048A00053FC0021084600F04FFC1420FCF768F987
:1048B0000021084600F048FC0021084600F044FCB6
:1048C0000021084600F040FC0021084600F03CFCB6
:1048D0000121A42000F038FC1420FCF751F94FF41A
:1048E0001C51602000F030FC40F60601082000F06A
:1048F0002BFC40F203731946302000F025FC012107
:10490000312000F021FC0421322000F01DFC4FF486
:104910008171332000F018FC54465146342000F0D9
:1049200013FC40F20311352000F00EFC1F2136204D
:1049300000F00AFC1946372000F006FC012138205F
:1049400000F002FC0421392000F0FEFB152190202C
:1049500000F0FAFB4FF48261102000F0F5FB40F20A
:104960004721112000F0F0FB4FF4DE71122000F01F
:10497000EBFB4FF46061132000F0E6FB7820FCF7BE
:10498000FFF83146012000F0DFFB4FF400710220F8
:1049900000F0DAFB41F23001032000F0D5FB0821E2
:1049A0000A2000F0D1FB00210C2000F0CDFB2021DB
:1049B0000E2000F0C9FB00210F2000F0C5FB0021F4
:1049C000202000F0C1FB0021212000F0BDFB3D2193
:1049D0002A2000F0B9FB1420FCF7D2F82D21292061
:1049E00000F0B2FB0021502000F0AEFB4DF2EF01D1
:1049F000512000F0A9FB0021522000F0A5FB5946F0
:104A0000532000F0A1FB0021612000F09DFB00215C
:104A10006A2000F099FB2146922000F095FB0521C9
:104A2000932000F091FB3146FFF7AEBB012100203F
:104A300000F08AFB0A20FCF7A3F841F2286110205D
:104A400000F082FB0E21122000F07EFB40F639219F
:104A5000132000F079FB0A20FCF792F84021112086
:104A600000F072FB5021152000F06EFB0A20FCF7CD
:104A700087F81E21122000F067FB0A20FCF780F85F
:104A80004FF4B151102000F05FFB42F639211320A2
:104A900000F05AFB0A20FCF773F83146012000F0C1
:104AA00053FB5146022000F04FFB41F23801032036
:104AB00000F04AFB40F20221082000F045FB0821EB
:104AC0000A2000F041FB0021302000F03DFB40F2C5
:104AD0000241312000F038FB4FF48371322000F0A6
:104AE00033FB40F20351332000F02EFB4FF4827170
:104AF000342000F029FB40F20131352000F024FB86
:104B00003946362000F020FB40F20531372000F016
:104B10001BFB4FF40271382000F016FB40F60B71BE
:104B2000392000F011FB0221412000F00DFB4FF471
:104B30001C51602000E0D4E000F006FB0121612060
:104B400000F002FB4FF40471902000F0FDFA4FF4E6
:104B50008571922000F0F8FA0421932000F0F4FA15
:104B60003146A02000F0F0FA0121072000F0ECFA15
:104B70002121072000F0E8FA2321072000F0E4FAC1
:104B80003321072000F0E0FA40F23311072000F053
:104B9000DBFA0021A02000F0D7FA22E13021152015
:104BA00000F0D2FA10219A2000F0CEFA2021112034
:104BB00000F0CAFA43F22841102000F0C5FA0221A1
:104BC000122000F0C1FA41F23801132000F0BCFAC3
:104BD0002820FBF7D5FF1221084600F0B5FA28205F
:104BE000FBF7CEFF43F22041102000F0ADFA43F274
:104BF0003801132000F0A8FA4620FBF7C1FF00217E
:104C0000302000F0A1FA40F20241312000F09CFA7D
:104C100040F20731322000F097FA4FF4417133200F
:104C200000F092FA0421342000F08EFA40F20141A3
:104C3000352000F089FA3946362000F085FA40F236
:104C40000531372000F080FA4FF4C263194638204E
:104C500000F07AFA1946392000F076FA3146012040
:104C600000F072FA5146022000F06EFA41F2300173
:104C7000032000F069FA40F60801082000F064FA09
:104C800008210A2000F060FA4FF41C51602000F067
:104C90005BFA0121612000F057FA4FF49F719020D8
:104CA00000F052FA3146922000F04EFA314693203D
:104CB00000F04AFA4FF44051A02000F045FA1021CC
:104CC000A32000F041FA0121072000F03DFA212144
:104CD000072000F039FA2321072000F035FA3321AC
:104CE000072000F031FA40F233119DE6E2202880DF
:104CF0002320208002202080042020806320401E6A
:104D0000C0B2FCD2E0202880012020800A20FBF7DE
:104D100037FFE0202880032020800C20FBF730FFA5
:104D2000012028800A20FBF72BFFE62028800320A3
:104D30002080FF2020802080B0202880202020801C
:104D4000002020800320208040F21F30208001209E
:104D5000208040F2DF10208000202080B4202880B6
:104D60000420208040F21F40208000202080D2209C
:104D7000208000202080208020802080B620288075
:104D8000022020804FF40370208000202080222009
:104D9000208009202080002020802080F020288092
:104DA0000320208029202880D020288000202080F7
:104DB000BE20288005202080FE2020800120208029
:104DC000FF20208000202080B82028800F20208015
:104DD00001202080BA20288001202080642000F05B
:104DE00017F80020FDF768F8012211460348FCF788
:104DF00007F84046BDE8F05FFDF728B8000C014019
:104E000002490880881C008870470000FE07006C7B
:104E10000C4A10B5BE211180941C05212180FBF79E
:104E200037FA4FF06632084BFBF7C0F9FBF73DFA53
:104E3000208001202080FF202080002020802080F2
:104E400010BD0000FE07006C66660440F0B5674CBC
:104E500000232146A679898846F6040241F66315A7
:104E6000012E01D02EB11DE091421BD0A94202D1EA
:104E700018E0A94216D1082814D2DFE800F0040691
:104E8000080A0C0E101206200CE007200AE004208D
:104E900008E0052006E0012004E0002002E00320F5
:104EA00000E00220A1F5134C45F2103745F21056F0
:104EB000BCF1410C07D0914205D0B94203D0B142B8
:104EC00001D0A94275D1082812D2DFE800F0110400
:104ED00006080A0C0E1080230AE0402308E0C023D5
:104EE00006E0202304E0602302E0A02300E0E023AA
:104EF000B14202D14FF4585000E03620B94205D0FB
:104F0000B14203D0A94201D043F00803914201D13C
:104F100043F00203194600F017F9A088A8420AD00E
:104F200099062188628802D5914202D303E091421A
:104F300001D9228061802E498A1CB0426089088094
:104F400021D100231380431C0B8000231380831C7A
:104F50000B8023885B1E1D0A1580C01C0880D8B2F8
:104F60001080A089088000231380431C0B8000233D
:104F70001380831C0B8063885B1E1C0A1480C01C7A
:104F80000880D8B212E00020108010802088401ED7
:104F9000030A1380C0B21080A0890880002010800E
:104FA00010806088401E010A1180C0B21080F0BDE0
:104FB000FFE7082812D2DFE800F0040608110A0C07
:104FC0000E1030230AE0102308E0202306E03823E7
:104FD00004E0282302E0182300E00823BDE8F040A5
:104FE000032043F4805100F0AFB8000080DF0020C0
:104FF000FE07006C2DE9F04F4C4E0C4601464FEA7F
:10500000102C3046B588DFF828B18289230A408900
:10501000A5F513470BF1020A413F1CD0A5F5A647A1
:10502000103F18D0B64696F806903688A5F5D047BA
:10503000A6EB0108A8F10108043F13D0A5F5C85755
:10504000633F23D0A5F5AA477646103F4ED0B9F16D
:10505000010F60D061E05D46ABF800005046AAF851
:1050600000C00BE0B9F1010F01D11FFA88F15D46D4
:10507000ABF800000E0A5046AAF80060C9B20180E1
:105080002A800380E1B20180BDE8F08FB9F1000F02
:105090001DD0ABF800005046AAF800C0C9B2AAF86B
:1050A0000010761E310AAAF80010F1B20180ABF8A8
:1050B00000205046AAF80030E1B2AAF80010BEF86D
:1050C0000210491E0A0AAAF80020C9B2DBE71FFA3B
:1050D00088F1ABF8000000265046AAF80060AAF854
:1050E00000600E0AAAF80060C9B2DFE7ABF8000062
:1050F000AAF800C0401CABF80000C8B2AAF8000033
:10510000ABF80020AAF80030521CABF80020E0B247
:10511000AAF80000B8E71FFA88F100F015F8B08986
:105120002146BDE8F04F00F00FB8000080DF0020FE
:10513000FE07006C024803490089088070470000A0
:1051400080DF0020FE07006C024A1080901C018066
:1051500070470000FE07006CF0B58268D0E90034AB
:1051600000261546A24210D18160E01A16E056884A
:105170009F19A74206D1CB1A538082880088101A43
:105180004880F0BD16463A4601E0B1F800C01788E5
:10519000BC45ECD8954203D18160D01A4880F0BD5F
:1051A000D21A4A800088081A7080F0BD70B5054692
:1051B0000E468468696820468C420CD11AA006E02D
:1051C000204664882B681C44A14205D11CA001F034
:1051D000A9F9002070BDEA6823881344B342EFD3D5
:1051E00061884180E868228881198A4210D9A11912
:1051F0000144101A801B0880A868A04203D1A9604E
:105200006088488002E02846FFF7A6FF268007E076
:105210002680A868A04203D1618828680844A86055
:10522000E868204470BD0000C4DAB4E6C2FA2CCEAF
:10523000DEC4DAB4E6BFC9D2D4B7D6C5E40D0A00DD
:10524000CEDEC4DAB4E6BFC9D2D4B7D6C5E40D0AFF
:105250000000000010B504468818C4E900100420BE
:10526000C4E902104A800A8007A0216801F05AF9B7
:105270000BA0616801F056F9D4E90010411ABDE8AD
:1052800010400DA001F04EB96D6573732D3E73741F
:1052900061727441646472203D202523580D0A0018
:1052A0006D6573732D3E656E6441646472203D20AC
:1052B0002523580D0A0000006D6573732D3E656E41
:1052C0006441646472202D206D6573732D3E737488
:1052D00061727441646472203D2025640D0A0000EF
:1052E00010B504490448FBF74AFB0249491E0870FF
:1052F00010BD000001000020E89D000800B51E4818
:105300008FB04FF0204101601C494160062181604F
:1053100000211022C160C0E904128161C161130241
:105320000162C0E909139302C0E90B134163816371
:10533000012000900F200DF1080C112301908CE842
:105340000F000691CDE907100DF1240C03208CE825
:105350000F000D9107AA69460748FCF75CFC18B1DD
:10536000672107A001F0CAF80948C16941F48061CA
:10537000C1610FB000BD000068020020040100A060
:105380002E2E2F5372632F66736D632E6300000001
:1053900000000140224810B5816986B041F0080143
:1053A0008161816901F008010491816941F4807192
:1053B0008161816901F480710491816941F040014A
:1053C0008161816901F040010491816941F020010E
:1053D0008161816901F020010491816941F010012E
:1053E0008161816901F010010491816941F004013A
:1053F000816180690B4C00F00400049000220121BF
:105400002046FBF7FDFC01210220CDE902100091AE
:10541000019169462046FBF7FFFB06B010BD000076
:1054200000100240000C01400648054901600021BF
:1054300041608160C1600161416104218161704707
:1054400000800140AC0200200D4810B50B490160FE
:105450004FF4E1314160002181600C22C160C0E95C
:1054600004128161C161FCF728FC002805D0BDE869
:1054700010404C2103A001F041B810BD003801409C
:10548000300300202E2E2F5372632F7573617274B8
:105490002E63000001A001F045F8FEE74D656D4D5B
:1054A000616E6167655F48616E646C65720D0A00CC
:1054B00070470907090E002806DA00F00F0000F116
:1054C000E02080F8141D704700F1E02080F80014FF
:1054D000704700002DE9F0410E46074698461546F4
:1054E00020210B48FFF762FE078046808580A0F8E8
:1054F00006800849816000210176C161044601826D
:10550000FBF7DAF8014620466161BDE8F081000052
:1055100070030020E70600082DE9F0410E4607461B
:10552000984615461C210D48FFF740FE078046802F
:105530008580A0F806800A498160312101764FF606
:10554000FF7104468181FBF7B7F8014661610021D4
:10555000E181617620462161BDE8F0817003002081
:105560007D050008F8B5F022044611461046FAF70A
:10557000FDFF0090E388A28861882088FBF778F817
:10558000E32211461046FAF7F1FF03462088A1886E
:10559000E5880144491C8AB26188401E2944491C9F
:1055A00089B280B2FAF7F4FFE32211461046FAF707
:1055B000DDFF03466188E088A588084482B2208820
:1055C0002844401C80B2FBF711F82088A188E388AA
:1055D0000144891C8AB26188801E1944891C4FF6D7
:1055E000FF7689B280B23346FAF7D2FF6088E1884D
:1055F000A3880144891C8AB22188401E1944891C51
:105600008DB281B233462846FAF7F0FFA022114648
:105610001046FAF7ABFF03462088A18801448AB2FE
:105620006188401E491E89B280B2FAF7B1FFA022FC
:1056300011461046FAF79AFF03466188E08808444D
:1056400082B22088401E80B2FAF7D0FF692211464C
:105650001046FAF78BFF03462088A1880144491CB5
:105660008AB26188801E891E89B280B2FAF790FFE3
:10567000692211461046FAF779FF03466088E188EF
:105680000144491C8AB2401E81B2208801B0401EEC
:10569000BDE8F04080B2FAF7A9BF38B5F022044661
:1056A00011461046FAF762FF0090E388A2886188ED
:1056B0002088FAF7DDFFA02211461046FAF756FFC0
:1056C00003462088A188E5880144491C8AB2618884
:1056D000401E2944491C89B280B2FAF759FFA02222
:1056E00011461046FAF742FF03466188E088A58814
:1056F000084482B220882844401C80B2FAF776FF22
:10570000692211461046FAF731FF03462088A18826
:10571000E5880144891C8AB26188801E2944891C5D
:1057200089B280B2FAF734FF692211461046FAF7BF
:105730001DFF03466088E188A5880144891C8AB260
:105740002188401E2944891C8DB281B22846FAF76F
:105750004DFFE32211461046FAF708FF0346208862
:10576000A18801448AB26188401E491E89B280B274
:10577000FAF70EFFE32211461046FAF7F7FE03464A
:105780006188E088084482B22088401E80B2FAF71F
:105790002DFF2088A1884FF6FF750144491C8AB26D
:1057A0006188801E891E89B280B22B46FAF7F0FE0E
:1057B0006088E1882B460144491C8AB2401E81B2B0
:1057C000208801B0401EBDE8304080B2FAF70EBF1D
:1057D00070470A6842624A688262D1E902231A432A
:1057E000D1E904310B43C16A1A4321F0F701114397
:1057F000C16200207047006800F00300704708B5E0
:10580000084414300090006808BD70B50DF1100C0C
:1058100011439CE8700023431943294342683143F4
:1058200047F6FF639A430A434260002070BD03219C
:10583000016000207047D0F8800070470A688260DD
:10584000D1E901231A43D1E903310B43C1681A435B
:105850006FF30B011143C160002070470968C0F865
:1058600080100020704710B586B004463720CDE97F
:10587000001040200290002003904FF480600490BC
:1058800069462046FFF7DAFF41F288323721204689
:1058900000F0B6F906B010BD10B504460A4886B04F
:1058A00001432920CDE90010402002900020039000
:1058B0004FF48060049069462046FFF7BFFF204602
:1058C00000F054FA06B010BD0000108010B586B08C
:1058D00004461020CDE900104020029000200390E3
:1058E0004FF48060049069462046FFF7A7FF41F21D
:1058F00088321021204600F083F906B010BD10B5A3
:1059000086B004460620CDE9001040200290002019
:1059100003904FF48060049069462046FFF78EFFA5
:1059200041F288320621204600F06AF906B010BD27
:1059300030B585B000240546009401944FF4806092
:105940000294CDE9034069462846FFF777FF0B48EC
:105950004FF4FA510068B0FBF1F041F2883148434E
:10596000401E03D24FF0004005B030BD696B090600
:10597000F6D540F2FF50A8632046F5E71C00002052
:1059800070B585B004464FF4D570009008204026CD
:10599000CDE901060025C001CDE903506946204646
:1059A000FFF74CFF0F484FF4FA510068B0FBF1F0DD
:1059B00041F288314843401E02D24FF000450DE0CD
:1059C000616B11F0450FF6D0606B400702D5A663FE
:1059D000042503E0606B400600D5A66305B02846A9
:1059E00070BD00001C00002010B586B004461220D7
:1059F000CDE9001040200290002003904FF4806019
:105A0000049069462046FFF719FF41F288321221BF
:105A1000204600F0F5F806B010BD10B586B004467B
:105A20001120CDE9001040200290002003904FF497
:105A30008060049069462046FFF700FF41F28832FB
:105A40001121204600F0DCF806B010BD10B586B07C
:105A500004460720CDE9002040200290002003905A
:105A60004FF48060049069462046FFF7E7FE41F25C
:105A700088320721204600F0C3F806B010BD10B5EB
:105A800086B0044600210220CDE90010C020CDE9F7
:105A900002014FF48060049069462046FFF7CEFE75
:105AA000204600F03BF906B010BD10B586B00446A4
:105AB0000920CDE90010C0200290002003904FF48F
:105AC0008060049069462046FFF7B8FE204600F04B
:105AD00025F906B010BD10B586B00446002133206C
:105AE000CDE900104020CDE9020100010490694693
:105AF0002046FFF7A3FE41F288323321204600F012
:105B00007FF806B010BD10B586B004460D20CDE973
:105B1000001040200290002003904FF48060049019
:105B200069462046FFF78AFE41F288320D21204661
:105B300000F066F806B010BD30B585B00C460546DD
:105B400000210320CDE900104020CDE90201000131
:105B5000049069462846FFF771FE22460321284635
:105B600000F024F905B030BD10B586B00446002120
:105B70000C20CDE900104020CDE902010001049085
:105B800069462046FFF75AFE034A0C21204600F0E2
:105B900037F806B010BD000000E1F50510B586B07D
:105BA00004461920CDE90010402002900020039007
:105BB0004FF48060049069462046FFF73FFE41F2B3
:105BC00088321921204600F01BF806B010BD10B530
:105BD00086B004461820CDE9001040200290002035
:105BE00003904FF48060049069462046FFF726FE3C
:105BF00041F288321821204600F002F806B010BDAC
:105C0000444B10B51B684FF4FA54B3FBF4F3534301
:105C10005B1E02D24FF0004010BD426B12F0450FE8
:105C2000F6D0426B520703D504218163084610BDAC
:105C3000426BD20702D00121816303E00269D2B234
:105C40008A4201D0012010BD40F2FF518163002142
:105C5000FFF7D5FD3049084201D1002010BD0028D2
:105C600002DA4FF0007010BD410001D5402010BD98
:105C7000810001D5802010BDC10002D54FF4807095
:105C800010BD010102D54FF4007010BD410102D5D5
:105C90004FF4806010BDC10102D54FF4006010BD0B
:105CA000010202D54FF4805010BD410202D54FF4DD
:105CB000005010BD810202D54FF4804010BDC102DA
:105CC00002D54FF4004010BD410302D54FF400301F
:105CD00010BD810302D54FF4802010BDC10302D551
:105CE0004FF4002010BD010402D54FF4801010BD08
:105CF000410402D54FF4001010BD810402D54FF4C9
:105D0000800010BD000702D54FF4000010BD4FF415
:105D1000803010BD1C00002008E0FFFD12494FF448
:105D2000FA520968B1FBF2F141F288325143491E3F
:105D300002D24FF000407047426B12F0450FF6D090
:105D4000416B490703D50421816308467047416BC5
:105D5000C90703D0012181630846704740F2FF5113
:105D600081630020704700001C0000200E494FF4A2
:105D7000FA520968B1FBF2F141F288325143491EEF
:105D800002D24FF000407047426B12F0450FF6D040
:105D9000416B490703D5042181630846704740F2EF
:105DA000FF518163002070471C0000201F4B10B57D
:105DB0001B684FF4FA54B3FBF4F341F288346343A5
:105DC0005B1E02D24FF0004010BD446B14F0450F33
:105DD000F6D0436B5B0703D504218163084610BDF1
:105DE000436BDB0702D00121816303E00369DBB26F
:105DF0008B4201D0012010BD40F2FF518163002190
:105E0000FFF7FDFC10F4604F04D0410406D54FF4B9
:105E1000005010BD000C1080002010BD000402D501
:105E20004FF4805010BD4FF4803010BD1C00002096
:105E30002DE9F04F89B00E460446FAF7E7FF00253A
:105E40008346009501952F4608212068FFF73EFD07
:105E5000002834D1B4F8500001042068FFF703FD96
:105E600000282CD1401E4FF00808CDE90208302050
:105E70004FF00209CDE904090120CDE9067002A91D
:105E80002068FFF7A6FC2068FFF725FE002816D142
:105E9000EA4640F22A472068416B394212D1416BF1
:105EA000890204D5FFF7C7FC4AF825006D1CFAF7F4
:105EB000ADFFA0EB0B00401CEDD14FF0004009B04E
:105EC000BDE8F08F416B090703D5C0F83880082082
:105ED000F5E7416B890703D5C0F838900220EEE75B
:105EE000416B890603D5202181630846E7E740F22C
:105EF000FF518163009800BA7060019800BA306069
:105F00000020DCE710B590B004460120ADF8380061
:105F10002068FFF770FC002864D0606C032842D032
:105F20002068FFF7ACFD00285AD100212068FFF758
:105F300066FC606704212068FFF761FCA067082108
:105F40002068FFF75CFCE0670C212068FFF757FC36
:105F5000C4F88000606C032825D00EA92068FFF7E4
:105F6000EBFD00283CD1606C03281CD0BDF8380044
:105F7000206501042068FFF798FD002830D100213A
:105F80002068FFF73CFC606604212068FFF737FCBF
:105F9000A06608212068FFF732FCE0660C2120682B
:105FA000FFF72DFC206704212068FFF728FC000D77
:105FB000E06403A92046FBF700FBB4F8500000237F
:105FC00002042068FFF742FD002809D104F1100007
:105FD00007C88DE8070094E80F00FFF716FC0020C3
:105FE00010B010BD4FF08060FAE72DE9F8430025AE
:105FF000044600950068FFF79BFC00281AD1206832
:10600000FFF7BEFC4FF080784FF6FF76D8B14FF027
:106010008057A5640098411C0091B0421AD000211D
:106020002068FFF720FC20B900212068FFF734FC2E
:1060300010B13846BDE8F88300212068FFF7DFFB88
:10604000C00FE7D01FE00127A7640098411C009112
:10605000B04201D14046EDE700212068FFF703FC84
:106060000028E7D14FF080412068FFF715FC002899
:10607000E0D100212068FFF7C2FBC10FE5D040004E
:1060800001D5676400E065640020D3E71CB50446D1
:1060900000200090019000212068FFF7B0FB8001F4
:1060A00002D54FF400601CBD69462046FFF7C0FED4
:1060B0000028F8D10198C0030CD5B4F850000104B1
:1060C0002068FFF7D0FB0028EDD100212068FFF702
:1060D00016FC1CBD4FF080601CBD1CB504460020A2
:1060E0000090019000212068FFF789FB800102D514
:1060F0004FF400601CBD69462046FFF799FE00285A
:10610000F8D1019840030CD5B4F850000104206880
:10611000FFF7A9FB0028EDD102212068FFF7EFFB74
:106120001CBD4FF080601CBD10B5064C01202070D6
:10613000FAF796F918B9207820F00100207020783D
:1061400010BD00002800002010B5124888B0144689
:106150000078C00702D0032008B010BDB9B10129F2
:1061600005D0022908D003290CD00420F4E76846A2
:10617000FAF764F9069809E06846FAF75FF90798B4
:10618000208004E06846FAF759F90798206000205B
:10619000E2E70000280000202DE9F0411E461746E6
:1061A00008460125094C0A4B32463946FAF772F97E
:1061B00028B109E0641E02D20120BDE8F081FAF79F
:1061C00043F90028F6D100252846F6E7A08601000D
:1061D00000E1F50510B5064C01202070FAF734F9FE
:1061E00018B9207820F001002070207810BD000040
:1061F000280000202DE9F0411E46174608460125DB
:10620000094C0A4B32463946FAF754F928B109E0ED
:10621000641E02D20120BDE8F081FAF715F90028CA
:10622000F6D100252846F6E7A086010000E1F50535
:10623000704710B5FAF7F0FDBDE81040FBF739BD27
:1062400030B58FB001210804CDE90010002402947C
:1062500002250491CDE907504FF4E01009906846FB
:10626000FAF794FF08B1C6210DE00F20CDE90A0529
:106270004FF48060CDE90C4002210AA80E94FAF791
:106280007FFE18B1D4210AA000F038F9FAF722FFF6
:106290004FF47A71B0FBF1F0FBF7F7FC0420FBF749
:1062A000E7FC00221146501EFAF738FE0FB030BD51
:1062B0002E2E2F5372632F6D61696E2E63000000C6
:1062C0000D48016841F00101016041680B4A11402D
:1062D000416001680A4A11400160016821F480218F
:1062E0000160416821F4FE0141604FF41F018160AB
:1062F0000449C00308607047001002400000FFF826
:10630000FFFFF6FE08ED00E02DE9F04104460068CD
:106310000169E26821F44051114301612169A068DB
:106320000843616908432168CA6841F20C639A43D3
:106330000243CA6020684169A26921F44071114397
:1063400041614C4920686425322688423CD1FAF7E5
:10635000D7FE00EBC00101EB001061688900B0FBC3
:10636000F1F7FAF7CDFE00EBC00101EB0010616818
:10637000B0468900B0FBF1F0B0FBF5F06FF018010A
:10638000484307EB800106EB0110B0FBF5F000F08D
:10639000F006FAF7B5FE00EBC00101EB00106168F2
:1063A0008900B0FBF1F0B0FBF5F006EB0016FAF750
:1063B000A7FE00EBC00101EB001061688900B0FB93
:1063C000F1F7FAF79DFE3BE0FAF78AFE00EBC00119
:1063D00001EB001061688900B0FBF1F7FAF780FE6D
:1063E00000EBC00101EB00106168B0468900B0FB12
:1063F000F1F0B0FBF5F06FF01801484307EB8001B6
:1064000006EB0110B0FBF5F000F0F006FAF768FEBD
:1064100000EBC00101EB001061688900B0FBF1F0F6
:10642000B0FBF5F006EB0016FAF75AFE00EBC001E0
:1064300001EB001061688900B0FBF1F7FAF750FE3C
:1064400000EBC00101EB001061688900B0FBF1F0C6
:10645000B0FBF5F06FF01801484307EB800108EB43
:106460000110B0FBF5F0216800F00F0030448860A7
:10647000BDE8F081003801402DE9F041984617460B
:106480000E460446069D1DE0681C1BD02DB1FAF790
:10649000BDFCA0EB0800A84214D92068C16821F413
:1064A000D071C1602068416921F001014161202063
:1064B00084F8390084F83A00002084F8380003207A
:1064C000BDE8F0812068006836EA000004D00020B2
:1064D000B842D9D00020F3E70120F9E701A000F08D
:1064E00021F8FEE755736167654661756C745F4816
:1064F000616E646C65720D0A00000000024602A025
:1065000000F010F8FEE700004572726F7221212042
:106510006C696E653A202564202C2066696C653AAA
:10652000257300000FB4054B10B503A9044A029867
:1065300000F050F810BC5DF814FB0000456C00083A
:106540003400002002E008C8121F08C1002AFAD156
:1065500070477047002001E001C1121F002AFBD1E3
:1065600070472DE9FF5F8246C91DC81701EB5070C7
:1065700020F00700002601903046029980468842AC
:1065800025DA002501980199C0172F4601EB5079B3
:1065900017E00E98002400EB080B1AF80610802074
:1065A000E040014207D003981FFA8BF1284480B2E3
:1065B0000F9AF9F7FFFF641C6D1C082CEDDB761CAD
:1065C0007F1CB7EBE90FE4DB08F10100D5E7BDE87C
:1065D000FF9F00002DE9FF4F8DB09B460F460446FC
:1065E000002606E025280BD05A460F999047641CD8
:1065F000761C20780028F5D111B03046BDE8F08F28
:106600000025A8460122984900E0054314F8013FFF
:10661000203B02FA03F00842F7D120782E2817D148
:1066200014F8010F45F004052A280ED06FF02F0250
:106630002078A0F1300109290AD808EB880102EB83
:10664000410100EB0108641CF2E757F8048B641C5D
:1066500020786C280DD004DC4C2812D06A2811D187
:1066600004E074280DD07A280CD10AE045F4001516
:1066700007E0617845F48015814202D1641C05F57C
:106680008015641C2278692A45D008DC002AB3D022
:10669000582A69D0632A10D0642A08D13BE0702AB6
:1066A00067D0732A13D0752A5CD0782A5CD0104644
:1066B0005A460F999047761CD3E017F8040B8DF8D3
:1066C000000000208DF80100E946012003E057F8A2
:1066D000049B4FF0FF3069074FF0000501D40AE03A
:1066E0006D1C45450DDA8542FADB19F805100029C5
:1066F000F6D106E06D1C8542FCDB19F80510002977
:10670000F8D12E4404E019F8010B5A460F9990472E
:106710006D1EF8D2A5E00A200021CDE90801C5F3DD
:10672000025002280DD001CFC117031E71F10003E2
:106730000DDA4FF0000CD0EB0C006CEB01012D23B7
:1067400008E0FF1D27F00707F7E80201EDE72B053A
:1067500004D52B238DF8283001233BE0EB0739D0FB
:106760002023F7E70A2000E010200021CDE90801EE
:1067700007E01020002145F00405CDE908014FF0A5
:106780000808C5F3025002280FD001CF00214FF0B6
:10679000000A2B071FD5702A0DD0DDE908C38CF045
:1067A000100C5CEA030C0CD015E0FF1D27F0070766
:1067B000F7E80201EBE740228DF828204FF0010AAC
:1067C0000BE050EA010306D030238DF828308DF815
:1067D000292002239A46582A04D024A20DF1200928
:1067E0000B9209E026A2F9E7DDE90823F9F776FD27
:1067F0000B9B9B5C09F8013D50EA0102F4D1ADEB23
:10680000090020300890680701D44FF0010808996A
:10681000884502DDA8EB010000E00020804600254D
:1068200006E00AA85A46405D0F9990476D1C761CF9
:106830005545F6DB04E030205A460F999047761C08
:10684000B8F10001A8F10108F5DC05E019F8010B29
:106850005A460F999047761C0899481E08900029BF
:10686000F4DC641CC5E60000092801003031323335
:10687000343536373839616263646566000000007C
:106880003031323334353637383941424344454666
:106890000000000010B50446002084F80402401EE9
:1068A000C4F82C02204600F0ABFA08B1032010BD5A
:1068B000B4F8FE01A0F52A41553901D0022010BDDF
:1068C00094F83600B4F8371040EA01210848B0EBDC
:1068D000012F08D094F85210B4F8532041EA022155
:1068E000B0EB012F01D1002010BD012010BD000030
:1068F0000046415430B50021064A0C4601EB4103E5
:1069000052F82350854201D142F82340491C022904
:10691000F4D330BD90DF0020084910B50B5C002295
:1069200053B901220A540A1801EB8000127A406818
:106930000168104688470246104610BDA8DF0020B7
:1069400030B4054D2C1805EB8000247A406885682A
:106950002046AC4630BC6047A8DF0020044A11182E
:1069600002EB8000097A4068426808461047000040
:10697000A8DF002030B4054D2C1805EB8000247AE8
:106980004068C5682046AC4630BC6047A8DF0020A0
:106990002DE9F74181B0904602980090684600F0DA
:1069A0005DF9040003D50B2004B0BDE8F0810E4E64
:1069B000002756F8245025B12846FFF79BFF85F89D
:1069C00000720198002801D080F8007246F8240077
:1069D00002D0B8F1010F01D00020E5E7002202A9A2
:1069E00001A800F003F8DFE7300000202DE9FF47A1
:1069F0004FF000090746C0F800901646084600F020
:106A00002DF9050003D50B2004B0BDE8F0878A48B6
:106A100050F82540A4B13C6094F8000228B194F8E5
:106A20000102FFF79BFFC1070CD084F80092E8B287
:106A300084F80102FFF770FFC10708D00320E3E7E5
:106A40000C20E1E70EB1400704D40020DCE71EB1C2
:106A5000400701D50A20D7E7002529462046FFF741
:106A600019FF012823D100204FEA0D0704EB001184
:106A700091F8C22101F5DF712AB10A7AD1F8091023
:106A800042EA012100E0002147F82010401C0428C0
:106A9000ECD3002657F826502DB129462046FFF7A3
:106AA000F9FE08B909E00220761C042EF2D303286F
:106AB00001D0E0BB01E00120A6E7B4F80B00B0F57F
:106AC000007F60D1E28A2AB994F82400D4F8251016
:106AD00040EA0122C4F81822217C84F8031201291B
:106AE00001D002294FD1607B514384F80202F0B1FA
:106AF000431E184247D1B4F81130A4F808321E07DB
:106B000041D1B4F813602EB994F82060D4F8217004
:106B100046EA0726B4F80EC0BCF1000F33D00CEBE8
:106B2000010707EB1317BE422DD3F61B00E02AE046
:106B3000B6FBF0F038B3012640F6F678404500D3B6
:106B400002264FF6F678404500D30326801C2F44DA
:106B5000C4F82872AC44C4F81402C4E9875C032E5C
:106B600013D083B16144C4F82412022E19D000F06E
:106B7000010100EB400001EB500000BF00F2FF10EC
:106B8000B2EB502F0FD20D203EE7002BFBD194F833
:106B90002C10D4F82D30800041EA0321C4F82412CF
:106BA000ECE74000EAE74FF0FF30C4F81002C4F809
:106BB0000C02802084F80502032E30D1208E01289B
:106BC0002DD12046691C00F01BF940BB84F80592CA
:106BD000B4F8FE01A0F52A41553920D12078D4F827
:106BE000011040EA01201549884218D194F8E401C7
:106BF000D4F8E51140EA0120114988420FD194F8F8
:106C0000E801D4F8E91140EA0120C4F8100294F830
:106C1000EC01D4F8ED1140EA0120C4F80C02064959
:106C200084F80062091F0888401C0880A4F8060246
:106C30002046FFF75FFE08E7300000205252614116
:106C40007272416113B54FF6FF7301226946024823
:106C5000FBF790F800981CBD3003002010B50446E7
:106C60004FF0FF302268002A13D0114600E0491C83
:106C70000B78202B0ED33A2BF9D112F8013B303B85
:106C80000A2B06D28A4204D1002B02D1491C184695
:106C9000216010BD002010BD86B0FAF7C5F8FFF7DF
:106CA000CFFAFEF777FBFEF7CFFBFEF727FBFEF7E9
:106CB000BBFBFEF715FB34A0FFF734FC3548FAF7B1
:106CC00091FD18216846F9F766FA3248FAF774FD23
:106CD00004284CD030A0FFF725FCDC2211461046DA
:106CE000F9F744FCF9F7EEFC4FF45C422F493048C9
:106CF000FEF7B0FA2F48F9F7EFFC4FF496744FF413
:106D0000EB75052123462A460846F9F7F5FC23468C
:106D10002A464FF49B710520F9F7EEFC64223223DA
:106D200011461046FEF7D6FB23A1C1618168884752
:106D30002248F9F70FFC4FF48C734FF4C8724FF4EC
:106D4000A0711E20FEF7E8FB04461D49F9F724FD5B
:106D50001CA12046F9F724FD11212046F9F72DFD4D
:106D6000A1682046884719A0FFF7DCFBFEE76946CB
:106D70000848FAF7C9FB19A0FFF7D4FB0548816D55
:106D80001AA0FFF7CFFBA8E773746172743A0D0A7B
:106D900000000000AC0200205344BFA8B3F5CABCF9
:106DA000BBAFCAA7B0DC0D0A0000000080030020C2
:106DB00070030020D49D0008CED200000100002006
:106DC000689D000831323334000000000D0A2D2D7B
:106DD0002D2D454E442D2D2D2D0D0A00534420B34D
:106DE000F5CABCBBAFB3C9B9A6A3BA00426C6F6306
:106DF0006B53697A65203D2025640D0A0000000070
:106E000070B50546D0F82C020C460026A04210D0E2
:106E1000284600F010F806000BD195F80102012376
:106E200022462946FFF78CFD08B1741E0126C5F8DD
:106E30002C42304670BD2DE9F041044690F8040222
:106E4000002728B3D4F82C5294F8010201232A46D3
:106E50002146FFF78FFD08B1012719E0002084F8D3
:106E60000402D4F82002D4F81812281A88420FD24B
:106E700094F803620AE0D4F818020123054494F858
:106E800001022A462146FFF775FD761E022EF2D238
:106E90003846BDE8F081000000000000000001025B
:106EA00003040607080900000000010203040000B3
:106EB00000000000000000000000000000000000D2
:106EC0000000000000000000000000202020202022
:106ED00020202020200000303000000000000000B2
:106EE0000000002424242400000000000000000012
:106EF0000000000000000000000000000000000092
:106F000004800480090009007FE0090009001200E4
:106F1000FFC0120012002400240000000000000046
:106F20000000000000000000000000000600060055
:106F30000F0016803600360036003E001E00078027
:106F4000078006C006C006C026801F000600060097
:106F50000000000000000000000000000000000031
:106F60003C08661042204220424066803C80013C42
:106F700001660242044204420866103C0000000020
:106F80000000000000000000000000000000000001
:106F90000F8018C018C018CC1DCC0F8C1F8C31C8A6
:106FA00060C860786030603030D81F8F000000000B
:106FB0000000000000000000000000202020200051
:106FC00000000000000000000000000000000000C1
:106FD0000000000C1830303060606060606060302D
:106FE0003030180C00000000000000C0603030306D
:106FF0001818181818181830303060C00000000039
:1070000000000008086B1C1414220000000000009F
:107010000000000000000000000000000000000070
:107020000000000000000000020002000200020058
:107030003FE0020002000200020000000000000029
:107040000000000000000000000000000000000040
:10705000000000000000006040C0C0800000000090
:1070600000000000000000000000007E00000000A2
:107070000000000000000000000000000000000010
:107080000000000000000060600000000000000040
:10709000000000030606060C0C0C18183030306097
:1070A0006060C00000000000000000000000000060
:1070B0000F003180318060C060C060C060C060C0BF
:1070C00060C060C060C0318031801E0000000000E0
:1070D00000000000000000000000000000000000B0
:1070E00002000E003600060006000600060006003C
:1070F000060006000600060006000600000000006C
:10710000000000000000000000000000000000007F
:107110001F00218000C000C000C000C00180070027
:107120000E001C003000600060007FC00000000006
:10713000000000000000000000000000000000004F
:107140001E00238001800180018003003C00038039
:1071500000C000C000C000C041803E000000000030
:10716000000000000000000000000000000000001F
:1071700001800380078005800D8019803180618047
:107180004180FFE00180018001800180000000005B
:1071900000000000000000000000000000000000EF
:1071A0003F80300030003000300030003F00018070
:1071B00000C000C000C000C021803F0000000000EF
:1071C00000000000000000000000000000000000BF
:1071D0000F0018803000200060006F00718060C0D8
:1071E00060C060C060C030C031801F00000000007F
:1071F000000000000000000000000000000000008F
:107200007FC000800180010003000200060006002C
:107210000C000C000C001800180018000000000002
:10722000000000000000000000000000000000005E
:107230000F00198030C030C030C019800F0031807D
:1072400060C060C060C060C031801F0000000000EE
:10725000000000000000000000000000000000002E
:107260001F003180618060C060C060C060C031C0FC
:107270001EC000C00080018023001E00000000002E
:10728000000000000000000000000000000000609E
:1072900060000000000000606000000000000000CE
:1072A00000000000000000606000000000000060BE
:1072B00040C0C0800000000000000000000000008E
:1072C0000000000000000000002000E003800E002D
:1072D00018000E00038000E0002000000000000005
:1072E000000000000000000000000000000000009E
:1072F0000000000000000000000000003FE000006F
:10730000000000003FE0000000000000000000005E
:10731000000000000000000000000000000000006D
:10732000000000000000000010001C00070001C069
:10733000006001C007001C001000000000000000F9
:10734000000000000000000000000000000000003D
:107350003E00470003000300070006000C00180071
:1073600018001800000000001800180000000000BD
:10737000000000000000000000000000000000000D
:10738000000000000001F8000604000803001801D6
:107390000010F080211080221080221080221080A6
:1073A00022118023310011CE0010000008000006D9
:1073B000040001F8000000000000000000000000D0
:1073C00000000000000000000300078007800F801D
:1073D0000CC00CC01CC0186038603FE060306030EA
:1073E0006030C01800000000000000000000000035
:1073F00000000000000000003F0031C030C030C07D
:1074000030C031803F0030C030603060306030606C
:1074100030C03F80000000000000000000000000BD
:10742000000000000000000007C01C2038003000F1
:1074300060006000600060006000600030003000AC
:107440001C2007C000000000000000000000000039
:1074500000000000000000003F8030E0303030309D
:1074600030183018301830183018301830303020BC
:1074700030C03F800000000000000000000000005D
:1074800000000000000000003F80300030003000AD
:10749000300030003F00300030003000300030005D
:1074A00030003F80000000000000000000000000ED
:1074B00000000000000000003F803000300030007D
:1074C000300030003F8030003000300030003000AD
:1074D000300030000000000000000000000000004C
:1074E000000000000000000007E00C101800300051
:1074F00060006000600061F060306030303030303B
:10750000183007E00000000000000000000000004C
:10751000000000000000000030183018301830184B
:10752000301830183FF8301830183018301830182C
:1075300030183018000000000000000000000000BB
:1075400000000030303030303030303030303030CB
:1075500030000000000000000000000C0C0C0C0CBF
:107560000C0C0C0C0C0C0C18F000000000000000BF
:107570000000000000000000306030C031803300A7
:1075800036003C0038003C003400360033003180C7
:1075900030C030600000000000000000000000006B
:1075A000000000000000000030003000300030001B
:1075B000300030003000300030003000300030004B
:1075C00030003F80000000000000000000000000CC
:1075D000000000000000000000000000003807006C
:1075E0003C07003C0F00340B00360B00321B00330D
:1075F000130033130031B30031A30030A30030E394
:107600000030C30030430000000000000000000014
:10761000000000000000000000000000000000006A
:1076200038183C183C183618361833183318319867
:10763000309830D83058307830383038000000007A
:10764000000000000000000000000000000000003A
:1076500007C01C3030183018600C600C600C600CD7
:10766000600C600C30183018183007C000000000A3
:10767000000000000000000000000000000000000A
:107680003F00318030C030C030C030C031803F005A
:1076900030003000300030003000300000000000CA
:1076A00000000000000000000000000000000000DA
:1076B00007C01C3030183018600C600C600C600C77
:1076C000600C600C30183018183007F00018000CEF
:1076D00000000000000000000000000000000000AA
:1076E0003F8030C0306030603060306030C03F80FC
:1076F000318030C030603060303030100000000029
:107700000000000000000000000000000000000079
:107710001E00310060006000600070003C000F003F
:10772000070001800180018043003E00000000004E
:107730000000000000000000000000000000000049
:10774000FFC00C000C000C000C000C000C000C0026
:107750000C000C000C000C000C000C0000000000E1
:107760000000000000000000000000000000000019
:107770003030303030303030303030303030303009
:10778000303030303030182018600F80000000009A
:1077900000000000000000000000000000000000E9
:1077A000C03060606060606030C030C030C0198040
:1077B000198019800F000F000F0006000000000064
:1077C00000000000000000000000000000000000B9
:1077D0000000000000C0C0C0C0C0C061E18061E125
:1077E0008061618021210033330033330032130084
:1077F0001A12001E1E001E1E000C0C000C0C0000B5
:107800000000000000000000000000000000000078
:107810000000000000000000C030606030C0118037
:1078200019800F00060006000F001980388030C054
:107830006060C03000000000000000000000000098
:107840000000000000000000C06060C060C0308028
:10785000398019801F000F00060006000600060090
:10786000060006000000000000000000000000000C
:1078700000000000000000007FE000C001800380E5
:107880000300070006000C001C0018003800300040
:107890006000FFE0000000000000000000000000A9
:1078A0000000003C3030303030303030303030305C
:1078B0003030303C00000000000000C0C06060605C
:1078C0003030301818180C0C0C06060000000000B0
:1078D0000000007818181818181818181818181810
:1078E00018181878000000000000000000000000D8
:1078F0000200070005000D80088018C018C0306025
:107900000000000000000000000000000000000077
:107910000000000000000000000000000000000067
:1079200000000000000000000000000000FF000058
:1079300000006030100000000000000000000000A7
:107940000000000000000000000000000000000037
:1079500000000000000000001F0023800180038061
:107960003F8079806180618063803D8000000000FD
:107970000000000000000000000000000000000007
:107980003000300030003000378038C03060306068
:1079900030603060306030C038C037800000000098
:1079A00000000000000000000000000000000000D7
:1079B00000000000000000000E00310030006000F8
:1079C000600060006000600031001E0000000000E8
:1079D00000000000000000000000000000000000A7
:1079E00000600060006000600F6030E03060606048
:1079F000606060606060706030E01F6000000000E8
:107A00000000000000000000000000000000000076
:107A100000000000000000000F00318020C060C0A6
:107A20007FC060006000700030801F000000000018
:107A300000000000000000000000001C303030FC9E
:107A40003030303030303030300000000000000086
:107A50000000000000000000000000000000000026
:107A60000F6030E030606060606060606060706037
:107A700030E01F600060004020C01F0000000000D8
:107A80000000000000000000300030003000300036
:107A9000378039C030C030C030C030C030C030C096
:107AA00030C030C0000000000000000000000000F6
:107AB00000000060600000606060606060606060A6
:107AC0006000000000000000000000606000006036
:107AD0006060606060606060606060C08000000046
:107AE00000000000000000003000300030003000D6
:107AF00030C03180330036003C003C00360033009B
:107B0000318030C0000000000000000000000000D4
:107B100000000030303030303030303030303030F5
:107B20003000000000000000000000000000000025
:107B30000000000000000000000000000000000045
:107B400000379E0039E70030C30030C30030C30067
:107B500030C30030C30030C30030C30030C3000066
:107B60000000000000000000000000000000000015
:107B70000000000000000000000000000000000005
:107B8000378039C030C030C030C030C030C030C0A5
:107B900030C030C000000000000000000000000005
:107BA00000000000000000000000000000000000D5
:107BB0000F8030C030606060606060606060304046
:107BC00030C00F00000000000000000000000000B6
:107BD00000000000000000000000000000000000A5
:107BE000378038C03060306030603060306030C026
:107BF00038C0378030003000300030000000000016
:107C00000000000000000000000000000000000074
:107C10000F6030E030606060606060606060606095
:107C200030E01F6000600060006000600000000045
:107C30000000000000000036383030303030303086
:107C40003000000000000000000000000000001EE6
:107C5000316060783E0F03433C00000000000000EC
:107C600000000000303030FC303030303030303008
:107C70001C000000000000000000000000000000E8
:107C8000000000000000000060C060C060C060C074
:107C900060C060C060C060C031C01EC00000000095
:107CA00000000000000000000000000000000000D4
:107CB0000000000000000000C180C30063006300FA
:107CC0006600260034003C001C0018000000000084
:107CD00000000000000000000000000000000000A4
:107CE0000000000000000000C30CC30C67986798F8
:107CF000649824903CF03CF018601860000000008C
:107D00000000000000000000000000000000000073
:107D10000000000000000000C18063002600360063
:107D20001C001C00340036006300C180000000000D
:107D30000000000000000000000000000000000043
:107D40000000000000000000C0C061806180610090
:107D50003300330012001E000C000C000800180055
:107D60001000E00000000000000000000000000023
:107D700000000000000000007F80030006000600F5
:107D80000C001800300030006000FF800000000090
:107D900000000000000000000000001C38303030FF
:107DA00030303060303030303030301C0000000077
:107DB0000000303030303030303030303030303023
:107DC0003030303030000000000000E070303030E3
:107DD0003030301830303030303030E000000000CB
:107DE0000000000000000000000000000000000093
:107DF0000000000000001C20272021C0000000001F
:107E00000000000000000000000000000000000072
:107E10000000000000000000000000000000000062
:107E20000000000000000000000000000000000052
:107E30000000000000000000000000000000000042
:107E400000000000000000303000003030303030E2
:107E50003030303030000000000000000000000032
:107E600000000200020007001A801A0032003200EF
:107E70003200320032001A800F00020002000000BF
:107E800000000000000000000000000000000000F2
:107E900007000C80180018001800180018007F0058
:107EA000180018001800180030007FC00000000003
:107EB00000000000000000000000000000000000C2
:107EC0000000000040403F80110020802080208082
:107ED00011003F8040400000000000000000000052
:107EE0000000000000000000000000000000000092
:107EF00060C03180318011001B001B000E003F80EC
:107F0000060006003F800600060006000000000094
:107F10000000000000000000000030303030303041
:107F20003030000000303030303030303000000071
:107F300000000000000000003C00620060006000E3
:107F400038003E006700630073003E000E0006002C
:107F5000060046003C000000000000000000000099
:107F60000000006666000000000000000000000045
:107F70000000000000000000000000000000000001
:107F8000000000000003F00006180008040011E2E1
:107F900000331300260100260100260100260100FF
:107FA00033130011E20008040006180003F000007B
:107FB00000000000000000000000000000000000C1
:107FC0000000001C22023E42463A00000000000071
:107FD00000000000000000000000000000000000A1
:107FE0000000000000000000000000000D801B00E9
:107FF00036006C0036001F0000000000000000008A
:108000000000000000000000000000000000000070
:108010000000000000000000000000003FE0002021
:1080200000200020002000000000000000000000F0
:108030000000000000000000000000000000000040
:108040000000007E000000000000000000000000B2
:108050000000000000000000000000000003F0002D
:1080600006180008040013C2003223002221002257
:10807000210023C1002241003243001222000804E3
:108080000006180003F000000000000000000000DF
:108090000000000000000000000000FF00000000E1
:1080A00000000000000000000000000000000000D0
:1080B0000000003844444438000000000000000084
:1080C00000000000000000000000000000000000B0
:1080D00000000000000002000200020002003FE079
:1080E000020002000200020000003FE00000000069
:1080F00000000000000000000000003844040408F4
:1081000010207C00000000000000000000000000C3
:1081100000000038440438040444780000000000E3
:1081200000000000000000000000183060000000A7
:10813000000000000000000000000000000000003F
:10814000000000000000000000000000000000002F
:1081500030C030C030C030C030C030C030C030C09F
:1081600039C03E60300030003000300000000000B8
:1081700000000000000000003F007200720072006A
:10818000320012001200120012001200120012003F
:1081900012001200000000000000000000000000BB
:1081A000000000000000000000006060000000000F
:1081B00000000000000000000000000000000000BF
:1081C000000000000000000000407010106000007F
:1081D000000000307010101010107C000000000033
:1081E00000000000000000000000003C6642424227
:1081F000663C0000000000000000000000000000DD
:10820000000000000000000000000000000000006E
:10821000000000006C0036001B000D801B003E00BB
:10822000000000000000000000000000000000004E
:10823000000000000000000000000000003004000A
:1082400070080010100010100010200010400010E6
:1082500042007C8600008A00011A00021200023FE0
:1082600000040200080200000000000000000000FE
:1082700000000000000000000000000000000000FE
:108280000000000000300400700800101000101002
:1082900000102000104000104E007C910000810072
:1082A000010100020200020400040800081F00008F
:1082B00000000000000000000000000000000000BE
:1082C0000000000000000000000000000038040072
:1082D000440800041000381000042000044000444A
:1082E0004200788600008A00011A00021200023F54
:1082F000000402000802000000000000000000006E
:10830000000000000000000000000000000000006D
:1083100000000000000000000C000C000000000045
:108320000C000C000C0018003000700060006000B1
:1083300071001E00000000000600030001000000A4
:108340000300078007800F800CC00CC01CC01860A1
:1083500038603FE0603060306030C01800000000DE
:108360000000000000000000030006000C000000F8
:108370000300078007800F800CC00CC01CC0186071
:1083800038603FE0603060306030C01800000000AE
:10839000000000000000000002000500088000004E
:1083A0000300078007800F800CC00CC01CC0186041
:1083B00038603FE0603060306030C018000000007E
:1083C000000000000000000000000E4013800000CC
:1083D0000300078007800F800CC00CC01CC0186011
:1083E00038603FE0603060306030C018000000004E
:1083F000000000000000000000000CC00CC00000E5
:108400000300078007800F800CC00CC01CC01860E0
:1084100038603FE0603060306030C018000000001D
:108420000000000000000000000007000880088035
:108430000780070005800D800D8018C018C018C087
:1084400030603FE0603060306030C01800000000F5
:10845000000000000000000000000000000000001C
:10846000000000000001FF000360000260000660E1
:10847000000660000C60000C7E00186000186000B0
:108480003FE000306000606000606000C07F00007E
:1084900000000000000000000000000000000000DC
:1084A000000000000000000007C01C201800300081
:1084B000600060006000600060006000300030001C
:1084C0001C200FC002000380008003800000000019
:1084D0000C000600020000003F8030003000300039
:1084E000300030003F0030003000300030003000FD
:1084F00030003F800000000000000000000000008D
:10850000030006000C0000003F8030003000300007
:10851000300030003F0030003000300030003000CC
:1085200030003F800000000000000000000000005C
:1085300004000A00110000003F80300030003000CD
:10854000300030003F00300030003000300030009C
:1085500030003F800000000000000000000000002C
:1085600000001980198000003F803000300030008A
:10857000300030003F00300030003000300030006C
:1085800030003F800000000000000000000000609C
:10859000301000303030303030303030303030302B
:1085A0003000000000000018306000303030303003
:1085B00030303030303030303000000000000010FB
:1085C00028400030303030303030303030303030D3
:1085D000300000000000000098980030303030304B
:1085E00030303030303030303000000000000000DB
:1085F00000000000000000003F8030E030303030EC
:1086000030183018FE18301830183018303030203C
:1086100030C03F80000000000000000000000000AB
:108620000000072009C0000038183C183C18361814
:108630003618331833183198309830D8305830788D
:10864000303830380000000000000000000000005A
:10865000060003000100000007C01C30301830186D
:10866000600C600C600C600C600C600C30183018F2
:10867000183007C0000000000000000000000000EB
:1086800000C001800300000007C01C303018301803
:10869000600C600C600C600C600C600C30183018C2
:1086A000183007C0000000000000000000000000BB
:1086B000010002800440000007C01C303018301850
:1086C000600C600C600C600C600C600C3018301892
:1086D000183007C00000000000000000000000008B
:1086E0000000072009C0000007C01C3030183018F7
:1086F000600C600C600C600C600C600C3018301862
:10870000183007C00000000000000000000000005A
:10871000000006600660000007C01C3030183018EA
:10872000600C600C600C600C600C600C3018301831
:10873000183007C00000000000000000000000002A
:108740000000000000000000000000000000000029
:10875000102008400480030003000480084010201B
:108760000000000000000000000000000000000009
:10877000000000000000000007C41C38301830382A
:10878000604C60CC618C630C660C640C3818381833
:108790003C3047C000000000000000000000000066
:1087A000060003000100000030303030303030303F
:1087B00030303030303030303030303030301820E1
:1087C00018600F80000000000000000000000000A2
:1087D000018003000600000030303030303030308F
:1087E00030303030303030303030303030301820B1
:1087F00018600F8000000000000000000000000072
:108800000100028004400000303030303030303021
:108810003030303030303030303030303030182080
:1088200018600F8000000000000000000000000041
:1088300000000CC00CC00000303030303030303020
:108840003030303030303030303030303030182050
:1088500018600F8000000000000000000000000011
:10886000030006000C000000C06060C060C03080E3
:10887000398019801F000F00060006000600060060
:1088800006000600000000000000000000000000DC
:108890000000000000000000300030003F00318088
:1088A00030C030C030C030C031803F0030003000B8
:1088B0003000300000000000000000000000000058
:1088C00000000000000000000F0019C030C030C0E0
:1088D00030C03180360031C030E030603060306010
:1088E00030C03780000000000000000000000000E1
:1088F00000000000000000000C0006000200000064
:108900001F002380018003803F8079806180618027
:1089100063803D80000000000000000000000000B7
:10892000000000000000000006000C00180000001D
:108930001F002380018003803F80798061806180F7
:1089400063803D8000000000000000000000000087
:10895000000000000000000004000A0011000000F8
:108960001F002380018003803F80798061806180C7
:1089700063803D8000000000000000000000000057
:10898000000000000000000000001C802700000024
:108990001F002380018003803F8079806180618097
:1089A00063803D8000000000000000000000000027
:1089B0000000000000000000000033003300000051
:1089C0001F002380018003803F8079806180618067
:1089D00063803D80000000000000000000000000F7
:1089E0000000000000000600090009000600000069
:1089F0001F002380018003803F8079806180618037
:108A000063803D80000000000000000000000000C6
:108A10000000000000000000000000000000000056
:108A20001E3C23C6018301831FFF7180618061C0EA
:108A300062C23C7C0000000000000000000000005A
:108A40000000000000000000000000000000000026
:108A50000E00310030006000600060006000200007
:108A600031000E00040006000200060000000000B5
:108A700000000000000000000C00060002000000E2
:108A80000F00318020C060C07FC0600060007000B7
:108A900030801F0000000000000000000000000007
:108AA0000000000000000000030006000C000000B1
:108AB0000F00318020C060C07FC060006000700087
:108AC00030801F00000000000000000000000000D7
:108AD000000000000000000004000A001100000077
:108AE0000F00318020C060C07FC060006000700057
:108AF00030801F00000000000000000000000000A7
:108B00000000000000000000000019801980000033
:108B10000F00318020C060C07FC060006000700026
:108B200030801F0000000000000000000000000076
:108B300000000060301000303030303030303030E5
:108B4000300000000000000000000018306000301D
:108B50003030303030303030300000000000000065
:108B600000000010284000303030303030303030DD
:108B7000300000000000000000000000C8C8003005
:108B80003030303030303030300000000000000035
:108B90000000000000000000088007000E00110027
:108BA0001F80318020C060C060C060C060C0608035
:108BB00031801F00000000000000000000000000E5
:108BC000000000000000000000000E4013800000C4
:108BD000378039C030C030C030C030C030C030C045
:108BE00030C030C0000000000000000000000000A5
:108BF00000000000000000000C0006000200000061
:108C00000F8030C0306060606060606060603040E5
:108C100030C00F0000000000000000000000000055
:108C20000000000000000000030006000C0000002F
:108C30000F8030C0306060606060606060603040B5
:108C400030C00F0000000000000000000000000025
:108C50000000000000000000020005000880000085
:108C60000F8030C030606060606060606060304085
:108C700030C00F00000000000000000000000000F5
:108C8000000000000000000000000E401380000003
:108C90000F8030C030606060606060606060304055
:108CA00030C00F00000000000000000000000000C5
:108CB0000000000000000000000019801980000082
:108CC0000F8030C030606060606060606060304025
:108CD00030C00F0000000000000000000000000095
:108CE0000000000000000000000000000000000084
:108CF00003000300000000001FE00000000003006C
:108D00000300000000000000000000000000000060
:108D10000000000000000000000000000000000053
:108D20000FA030C030E061606260646068607840CD
:108D300030C07F0040000000000000000000000084
:108D400000000000000000000C000600020000000F
:108D500060C060C060C060C060C060C060C060C013
:108D600031C01EC000000000000000000000000034
:108D70000000000000000000030006000C000000DE
:108D800060C060C060C060C060C060C060C060C0E3
:108D900031C01EC000000000000000000000000004
:108DA000000000000000000004000A0011000000A4
:108DB00060C060C060C060C060C060C060C060C0B3
:108DC00031C01EC0000000000000000000000000D4
:108DD0000000000000000000000019801980000061
:108DE00060C060C060C060C060C060C060C060C083
:108DF00031C01EC0000000000000000000000000A4
:108E0000000000000000000006000C001800000038
:108E1000C0C06180618061003300330012001E0019
:108E20000C000C00080018001000E000000000001A
:108E30000000000000000000300030003000300072
:108E4000378038C03060306030603060306030C0B3
:108E500038C03780300030003000300000000000A3
:108E6000000000000000000000003300330000009C
:108E7000C0C06180618061003300330012001E00B9
:108E80000C000C00080018001000E00000000000BA
:108E9000000000000F0000000300078007800F8023
:108EA0000CC00CC01CC0186038603FE060306030FF
:108EB0006030C0180000000000000000000000004A
:108EC0000000000000000000000000001E00000084
:108ED0001F002380018003803F8079806180618052
:108EE00063803D80000000000000000000000000E2
:108EF000000010800F0000000300078007800F8033
:108F00000CC00CC01CC0186038603FE0603060309E
:108F10006030C018000000000000000000000000E9
:108F20000000000000000000000021001E00000002
:108F30001F002380018003803F80798061806180F1
:108F400063803D8000000000000000000000000081
:108F5000000000000000000006000F000F000F00DE
:108F600019801980198030C030C03FC060606060D7
:108F70004020C03000200020003800000000000029
:108F800000000000000000000000000000000000E1
:108F90001F002380018001803F807180618061809B
:108FA00063803D800200020001C00000000000005C
:108FB00000C001800300000007C01C203800300002
:108FC0006000600060006000600060003000300001
:108FD0001C2007C00000000000000000000000008E
:108FE0000000000000000000030006000C0000006C
:108FF0000E00310030006000600060006000600022
:1090000031001E0000000000000000000000000011
:10901000010002800440000007C01C20380030001E
:1090200060006000600060006000600030003000A0
:109030001C2007C00000000000000000000000002D
:10904000000000000000000004000A001100000001
:109050000E003100300060006000600060006000C1
:1090600031001E00000000000000000000000000B1
:10907000000003000300000007C01C20380030007F
:109080006000600060006000600060003000300040
:109090001C2007C0000000000000000000000000CD
:1090A00000000000000000000000060006000000B4
:1090B0000E00310030006000600060006000600061
:1090C00031001E0000000000000000000000000051
:1090D0000220014001C0000007C01C203800300001
:1090E00060006000600060006000600030003000E0
:1090F0001C2007C00000000000000000000000006D
:10910000000000000000000011000A000E00000036
:109110000E00310030006000600060006000600000
:1091200031001E00000000000000000000000000F0
:1091300008800500070000003F8030E0303030300C
:1091400030183018301830183018301830303020BF
:1091500030C03F8000000000000000000000000060
:10916000000000000000000000C800D800D000C0CF
:109170001EC031C020C060C060C060C060C060C0A0
:1091800031C01EC000000000000000000000000010
:1091900000000000000000003F8030E03030303040
:1091A00030183018FE183018301830183030302091
:1091B00030C03F8000000000000000000000000000
:1091C0000000000000000000006007F00060006088
:1091D0000F6030E0306060606060606060607060B0
:1091E00030E01F60000000000000000000000000F0
:1091F000000000000F0000003F8030003000300011
:10920000300030003F0030003000300030003000CF
:1092100030003F800000000000000000000000005F
:109220000000000000000000000000000F0000002F
:109230000F00318020C060C07FC0600060007000FF
:1092400030801F000000000000000000000000004F
:10925000000010800F0000003F8030003000300020
:10926000300030003F00300030003000300030006F
:1092700030003F80000000000000000000000000FF
:109280000000000000000000000010800F0000003F
:109290000F00318020C060C07FC06000600070009F
:1092A00030801F00000000000000000000000000EF
:1092B00000000600060000003F8030003000300053
:1092C000300030003F00300030003000300030000F
:1092D00030003F800000000000000000000000009F
:1092E0000000000000000000000006000600000072
:1092F0000F00318020C060C07FC06000600070003F
:1093000030801F000000000000000000000000008E
:1093100000000000000000003F80300030003000FE
:10932000300030003F0030003000300030003000AE
:1093300030003F80020002000380000000000000B7
:10934000000000000000000000000000000000001D
:109350000F00318020C060C07FC0600060007000DE
:1093600030801F80080008000E0000000000000090
:1093700011000A000E0000003F8030003000300075
:10938000300030003F00300030003000300030004E
:1093900030003F80000000000000000000000000DE
:1093A000000000000000000011000A000E00000094
:1093B0000F00318020C060C07FC06000600070007E
:1093C00030801F00000000000000000000000000CE
:1093D000010002800440000007E00C10180030007B
:1093E00060006000600061F060306030303030302C
:1093F000183007E00000000000000000000000003E
:1094000000000000000000000200050008800000CD
:109410000F6030E03060606060606060606070606D
:1094200030E01F600060004020C01F00000000000E
:109430000000042003C0000007E00C1018003000FA
:1094400060006000600061F06030603030303030CB
:10945000183007E0000000000000000000000000DD
:10946000000000000000000000000840078000002D
:109470000F6030E03060606060606060606070600D
:1094800030E01F600060004020C01F0000000000AE
:10949000000001800180000007E00C10180030007F
:1094A00060006000600061F060306030303030306B
:1094B000183007E00000000000000000000000007D
:1094C0000000000000000000000006000600000090
:1094D0000F6030E0306060606060606060607060AD
:1094E00030E01F600060004020C01F00000000004E
:1094F000000000000000000007E00C101800300021
:1095000060006000600061F060306030303030300A
:10951000183007E000000180030002000000000096
:109520000000000000000200020004000000000033
:109530000F6030E03060606060606060606070604C
:1095400030E01F600060004020C01F0000000000ED
:109550000100028004400000301830183018301824
:10956000301830183FF830183018301830183018CC
:10957000301830180000000000000000000000005B
:109580002000500088000000300030003000300023
:10959000378039C030C030C030C030C030C030C07B
:1095A00030C030C0000000000000000000000000DB
:1095B000000000000000000030183018FFFCFFFC25
:1095C000301830183FF8301830183018301830186C
:1095D00030183018000000000000000000000000FB
:1095E0000000000000000000300030007E0030006D
:1095F000378039C030C030C030C030C030C030C01B
:1096000030C030C00000000000000000000000007A
:1096100005050100AE6E000806060100C66E0008D2
:1096200008080100DE6E00080B0B0200F66E000851
:109630000B0B0200266F000810100200566F000886
:1096400010100200866F000805050100B66F0008C3
:1096500006060100CE6F000806060100E66F00084E
:1096600008080100FE6F00080D0D020016700008CA
:109670000404010046700008080801005E7000083C
:109680000404010076700008080801008E700008CC
:109690000B0B0200A67000080B0B0200D67000082E
:1096A0000B0B0200067100080B0B0200367100085C
:1096B0000B0B0200667100080B0B0200967100088C
:1096C0000B0B0200C67100080B0B0200F6710008BC
:1096D0000B0B0200267200080B0B020056720008EA
:1096E0000404010086720008040401009E72000850
:1096F0000D0D0200B67200080D0D0200E6720008A2
:109700000D0D0200167300080909020046730008D7
:1097100013130300767300080D0D0200BE730008DA
:109720000B0B0200EE7300080C0C02001E74000804
:109730000E0E02004E7400080A0A02007E74000831
:109740000A0A0200AE7400080D0D0200DE74000863
:109750000E0E02000E750008050501003E7500089A
:1097600007070100567500080B0B02006E75000814
:10977000090902009E75000812120300CE75000848
:109780000F0F0200167600080F0F02004676000841
:109790000B0B0200767600080F0F0200A676000879
:1097A0000C0C0200D67600080A0A020006770008B0
:1097B0000A0A0200367700080D0D020066770008DD
:1097C0000C0C02009677000812120300C6770008FE
:1097D0000C0C02000E7800080B0B02003E7800080B
:1097E0000B0B02006E780008060601009E78000848
:1097F00007070100B678000806060100CE780008C9
:109800000D0D0200E678000808080100167900082E
:10981000050501002E7900080A0A020046790008B1
:109820000C0C02007679000809090200A6790008EC
:109830000C0C0200D67900080A0A0200067A000819
:1098400006060100367A00080C0C02004E7A000869
:109850000B0B02007E7A000805050100AE7A0008B5
:1098600005050100C67A00080A0A0200DE7A00082F
:10987000050501000E7B000811110300267B00087E
:109880000B0B02006E7B00080B0B02009E7B000896
:109890000C0C0200CE7B00080C0C0200FE7B0008C2
:1098A000070701002E7C000808080100467C00081C
:1098B000070701005E7C00080B0B0200767C0008A5
:1098C00009090200A67C00080E0E0200D67C0008E2
:1098D00009090200067D00080A0A0200367D000818
:1098E00009090200667D000806060100967D000851
:1098F00005050100AE7D000806060100C67D0008D2
:109900000D0D0200DE7D0008050501000E7E000839
:1099100005050100267E0008060601003E7E0008BF
:109920000B0B0200567E00080B0B0200867E00081F
:109930000B0B0200B67E00080B0B0200E67E00084F
:1099400005050100167F0008090902002E7F0008A6
:10995000080801005E7F000811110300767F0008EF
:1099600008080100BE7F00080A0A0200D67F00082E
:109970000D0D02000680000808080100368000086E
:10998000111103004E8000080808010096800008AD
:1099900007070100AE8000080D0D0200C680000818
:1099A00007070100F6800008070701000E81000884
:1099B00006060100268100080B0B02003E8100080C
:1099C000090902006E810008040401009E8100085C
:1099D00004040100B681000807070100CE810008D9
:1099E00008080100E68100080A0A0200FE8100085A
:1099F000121203002E820008121203007682000861
:109A000012120300BE820008090902000683000842
:109A10000D0D0200368300080D0D0200668300085C
:109A20000D0D0200968300080D0D0200C68300088C
:109A30000D0D0200F68300080D0D020026840008BB
:109A400011110300568400080C0C02009E840008CB
:109A50000A0A0200CE8400080A0A0200FE840008F6
:109A60000A0A02002E8500080A0A02005E85000824
:109A7000050501008E85000805050100A685000882
:109A800005050100BE85000805050100D685000812
:109A90000E0E0200EE8500080F0F02001E86000861
:109AA0000F0F02004E8600080F0F02007E8600088E
:109AB0000F0F0200AE8600080F0F0200DE860008BE
:109AC0000F0F02000E8700080D0D02003E870008F0
:109AD0000F0F02006E8700080D0D02009E87000820
:109AE0000D0D0200CE8700080D0D0200FE87000854
:109AF0000D0D02002E8800080B0B02005E88000886
:109B00000B0B02008E8800080B0B0200BE880008B9
:109B10000A0A0200EE8800080A0A02001E890008EC
:109B20000A0A02004E8900080A0A02007E8900081B
:109B30000A0A0200AE8900080A0A0200DE8900084B
:109B4000101002000E8A0008090902003E8A00086F
:109B50000A0A02006E8A00080A0A02009E8A0008A9
:109B60000A0A0200CE8A00080A0A0200FE8A0008D9
:109B7000050501002E8B000805050100468B000835
:109B8000050501005E8B000805050100768B0008C5
:109B90000B0B02008E8B00080B0B0200BE8B000823
:109BA0000B0B0200EE8B00080B0B02001E8C000852
:109BB0000B0B02004E8C00080B0B02007E8C000881
:109BC0000B0B0200AE8C00080D0D0200DE8C0008AD
:109BD0000B0B02000E8D00080B0B02003E8D0008DF
:109BE0000B0B02006E8D00080B0B02009E8D00080F
:109BF0000B0B0200CE8D00080A0A0200FE8D000841
:109C00000C0C02002E8E00080A0A02005E8E00086C
:109C10000D0D02008E8E00080A0A0200BE8E00089A
:109C20000D0D0200EE8E00080A0A02001E8F0008C9
:109C30000D0D02004E8F00080A0A02007E8F0008F8
:109C40000C0C0200AE8F000809090200DE8F00082C
:109C50000C0C02000E900008090902003E9000085A
:109C60000C0C02006E900008090902009E9000088A
:109C70000C0C0200CE90000809090200FE900008BA
:109C80000E0E02002E9100080D0D02005E910008DC
:109C90000E0E02008E9100080C0C0200BE9100080E
:109CA0000A0A0200EE9100080A0A02001E92000849
:109CB0000A0A02004E9200080A0A02007E92000878
:109CC0000A0A0200AE9200080A0A0200DE920008A8
:109CD0000A0A02000E9300080A0A02003E930008D6
:109CE0000A0A02006E9300080A0A02009E93000806
:109CF0000D0D0200CE9300080C0C0200FE9300082C
:109D00000D0D02002E9400080C0C02005E94000859
:109D10000D0D02008E9400080C0C0200BE94000889
:109D20000D0D0200EE9400080C0C02001E950008B8
:109D30000E0E02004E9500080B0B02007E950008E7
:109D40000E0E0200AE9500080B0B0200DE95000817
:109D5000A0002701109900080000000020007F00EB
:109D600010960008509D000801181801010000001D
:109D70005C9D0008130A0E0000000000040000664D
:109D80000007C46039043001041001041001040804
:109D90007FFFFC01040001060001063001362001AE
:109DA000C2400F02C0790380210300010700010DAA
:109DB000840110C401E0740F001C020006000000C2
:109DC00018180300789D000811621162C09D0008F8
:109DD000000000000118180101000000C89D0008E3
:109DE000150B1000D2CE116229610008D561000860
:109DF00099610008F5610008496100081C9E00088F
:109E0000000000203800000044650008549E00084F
:109E10003800002080E500005465000800000000C4
:109E20000000000000000000000000000100000031
:109E3000100000000000000000A24A040000000022
:109E40000000000001000000000000000000000011
:049E5000000000000E
:0400000508000131BD
:00000001FF
