Component: ARM Compiler 5.06 update 6 (build 750) Tool: armlink [4d35ed]

==============================================================================

Section Cross References

    startup_stm32f103xe.o(RESET) refers to startup_stm32f103xe.o(STACK) for __initial_sp
    startup_stm32f103xe.o(RESET) refers to startup_stm32f103xe.o(.text) for Reset_Handler
    startup_stm32f103xe.o(RESET) refers to stm32f1xx_it.o(i.NMI_Handler) for NMI_Handler
    startup_stm32f103xe.o(RESET) refers to stm32f1xx_it.o(i.HardFault_Handler) for HardFault_Handler
    startup_stm32f103xe.o(RESET) refers to stm32f1xx_it.o(i.MemManage_Handler) for MemManage_Handler
    startup_stm32f103xe.o(RESET) refers to stm32f1xx_it.o(i.BusFault_Handler) for BusFault_Handler
    startup_stm32f103xe.o(RESET) refers to stm32f1xx_it.o(i.UsageFault_Handler) for UsageFault_Handler
    startup_stm32f103xe.o(RESET) refers to stm32f1xx_it.o(i.SVC_Handler) for SVC_Handler
    startup_stm32f103xe.o(RESET) refers to stm32f1xx_it.o(i.DebugMon_Handler) for DebugMon_Handler
    startup_stm32f103xe.o(RESET) refers to stm32f1xx_it.o(i.PendSV_Handler) for PendSV_Handler
    startup_stm32f103xe.o(RESET) refers to stm32f1xx_it.o(i.SysTick_Handler) for SysTick_Handler
    startup_stm32f103xe.o(.text) refers to system_stm32f1xx.o(i.SystemInit) for SystemInit
    startup_stm32f103xe.o(.text) refers to entry.o(.ARM.Collect$$$$00000000) for __main
    main.o(i.SystemClock_Config) refers to stm32f1xx_hal_rcc.o(i.HAL_RCC_OscConfig) for HAL_RCC_OscConfig
    main.o(i.SystemClock_Config) refers to stm32f1xx_hal_rcc.o(i.HAL_RCC_ClockConfig) for HAL_RCC_ClockConfig
    main.o(i.SystemClock_Config) refers to main.o(i._Error_Handler) for _Error_Handler
    main.o(i.SystemClock_Config) refers to stm32f1xx_hal_rcc.o(i.HAL_RCC_GetHCLKFreq) for HAL_RCC_GetHCLKFreq
    main.o(i.SystemClock_Config) refers to stm32f1xx_hal_cortex.o(i.HAL_SYSTICK_Config) for HAL_SYSTICK_Config
==============================================================================

Removing Unused input sections from the image.

    Removing startup_stm32f103xe.o(HEAP), (1536 bytes).
    Removing main.o(.rev16_text), (4 bytes).
    Removing main.o(.revsh_text), (4 bytes).
    Removing main.o(.rrx_text), (6 bytes).
    Removing gpio.o(.rev16_text), (4 bytes).
    Removing gpio.o(.revsh_text), (4 bytes).
    Removing gpio.o(.rrx_text), (6 bytes).
    Removing bsp_driver_sd.o(.rev16_text), (4 bytes).
    Removing bsp_driver_sd.o(.revsh_text), (4 bytes).
    Removing bsp_driver_sd.o(.rrx_text), (6 bytes).
    Removing bsp_driver_sd.o(i.BSP_SD_AbortCallback), (2 bytes).
    Removing bsp_driver_sd.o(i.BSP_SD_DMA_Rx_IRQHandler), (12 bytes).
    Removing bsp_driver_sd.o(i.BSP_SD_DMA_Tx_IRQHandler), (12 bytes).
    Removing bsp_driver_sd.o(i.BSP_SD_DetectCallback), (2 bytes).
    Removing bsp_driver_sd.o(i.BSP_SD_DetectIT), (2 bytes).
    Removing bsp_driver_sd.o(i.BSP_SD_Erase), (28 bytes).
    Removing bsp_driver_sd.o(i.BSP_SD_IRQHandler), (12 bytes).
    Removing bsp_driver_sd.o(i.BSP_SD_ITConfig), (4 bytes).
==============================================================================

Image Symbol Table

    Local Symbols

    Symbol Name                              Value     Ov Type        Size  Object(Section)

    ..//Src/system_stm32f1xx.c               0x00000000   Number         0  system_stm32f1xx.o ABSOLUTE
    ../Drivers/STM32F1xx_HAL_Driver/Src/stm32f1xx_hal.c 0x00000000   Number         0  stm32f1xx_hal.o ABSOLUTE
    ../Drivers/STM32F1xx_HAL_Driver/Src/stm32f1xx_hal_cortex.c 0x00000000   Number         0  stm32f1xx_hal_cortex.o ABSOLUTE
    ../Drivers/STM32F1xx_HAL_Driver/Src/stm32f1xx_hal_dma.c 0x00000000   Number         0  stm32f1xx_hal_dma.o ABSOLUTE
    ../Drivers/STM32F1xx_HAL_Driver/Src/stm32f1xx_hal_flash.c 0x00000000   Number         0  stm32f1xx_hal_flash.o ABSOLUTE
    ../Drivers/STM32F1xx_HAL_Driver/Src/stm32f1xx_hal_flash_ex.c 0x00000000   Number         0  stm32f1xx_hal_flash_ex.o ABSOLUTE
    ../Drivers/STM32F1xx_HAL_Driver/Src/stm32f1xx_hal_gpio.c 0x00000000   Number         0  stm32f1xx_hal_gpio.o ABSOLUTE
    ../Drivers/STM32F1xx_HAL_Driver/Src/stm32f1xx_hal_gpio_ex.c 0x00000000   Number         0  stm32f1xx_hal_gpio_ex.o ABSOLUTE
    ../Drivers/STM32F1xx_HAL_Driver/Src/stm32f1xx_hal_pwr.c 0x00000000   Number         0  stm32f1xx_hal_pwr.o ABSOLUTE
    ../Drivers/STM32F1xx_HAL_Driver/Src/stm32f1xx_hal_rcc.c 0x00000000   Number         0  stm32f1xx_hal_rcc.o ABSOLUTE
    ../Drivers/STM32F1xx_HAL_Driver/Src/stm32f1xx_hal_rcc_ex.c 0x00000000   Number         0  stm32f1xx_hal_rcc_ex.o ABSOLUTE
    ../Drivers/STM32F1xx_HAL_Driver/Src/stm32f1xx_hal_sd.c 0x00000000   Number         0  stm32f1xx_hal_sd.o ABSOLUTE
    ../Drivers/STM32F1xx_HAL_Driver/Src/stm32f1xx_hal_sram.c 0x00000000   Number         0  stm32f1xx_hal_sram.o ABSOLUTE
    ../Drivers/STM32F1xx_HAL_Driver/Src/stm32f1xx_hal_tim.c 0x00000000   Number         0  stm32f1xx_hal_tim.o ABSOLUTE
    ../Drivers/STM32F1xx_HAL_Driver/Src/stm32f1xx_hal_tim_ex.c 0x00000000   Number         0  stm32f1xx_hal_tim_ex.o ABSOLUTE
    ../Drivers/STM32F1xx_HAL_Driver/Src/stm32f1xx_hal_uart.c 0x00000000   Number         0  stm32f1xx_hal_uart.o ABSOLUTE
    ../Drivers/STM32F1xx_HAL_Driver/Src/stm32f1xx_ll_fsmc.c 0x00000000   Number         0  stm32f1xx_ll_fsmc.o ABSOLUTE
    ../Drivers/STM32F1xx_HAL_Driver/Src/stm32f1xx_ll_sdmmc.c 0x00000000   Number         0  stm32f1xx_ll_sdmmc.o ABSOLUTE
    ../Middlewares/Third_Party/FatFs/src/diskio.c 0x00000000   Number         0  diskio.o ABSOLUTE
    ../Middlewares/Third_Party/FatFs/src/drivers/sd_diskio.c 0x00000000   Number         0  sd_diskio.o ABSOLUTE
    ../Middlewares/Third_Party/FatFs/src/ff.c 0x00000000   Number         0  ff.o ABSOLUTE
    ../Middlewares/Third_Party/FatFs/src/ff_gen_drv.c 0x00000000   Number         0  ff_gen_drv.o ABSOLUTE
    ../Middlewares/Third_Party/FatFs/src/option/ccsbcs.c 0x00000000   Number         0  ccsbcs.o ABSOLUTE
    ../Middlewares/Third_Party/FatFs/src/option/syscall.c 0x00000000   Number         0  syscall.o ABSOLUTE
    ../Src/bsp_driver_sd.c                   0x00000000   Number         0  bsp_driver_sd.o ABSOLUTE
    ../Src/fatfs.c                           0x00000000   Number         0  fatfs.o ABSOLUTE
    ../Src/fsmc.c                            0x00000000   Number         0  fsmc.o ABSOLUTE
    ../Src/gpio.c                            0x00000000   Number         0  gpio.o ABSOLUTE
    ../Src/main.c                            0x00000000   Number         0  main.o ABSOLUTE
    ../Src/sdio.c                            0x00000000   Number         0  sdio.o ABSOLUTE
    ../Src/stm32f1xx_hal_msp.c               0x00000000   Number         0  stm32f1xx_hal_msp.o ABSOLUTE
    ../Src/stm32f1xx_it.c                    0x00000000   Number         0  stm32f1xx_it.o ABSOLUTE
    ../Src/usart.c                           0x00000000   Number         0  usart.o ABSOLUTE
    ../clib/microlib/division.c              0x00000000   Number         0  uldiv.o ABSOLUTE
    ../clib/microlib/division.c              0x00000000   Number         0  uidiv.o ABSOLUTE
    ../clib/microlib/init/entry.s            0x00000000   Number         0  entry5.o ABSOLUTE
    ../clib/microlib/init/entry.s            0x00000000   Number         0  entry7a.o ABSOLUTE
    ../clib/microlib/init/entry.s            0x00000000   Number         0  entry7b.o ABSOLUTE
    ../clib/microlib/init/entry.s            0x00000000   Number         0  entry8a.o ABSOLUTE
    ../clib/microlib/init/entry.s            0x00000000   Number         0  entry8b.o ABSOLUTE
    ../clib/microlib/init/entry.s            0x00000000   Number         0  entry9a.o ABSOLUTE
    ../clib/microlib/init/entry.s            0x00000000   Number         0  entry9b.o ABSOLUTE
    ../clib/microlib/init/entry.s            0x00000000   Number         0  entry10a.o ABSOLUTE
    ../clib/microlib/init/entry.s            0x00000000   Number         0  entry10b.o ABSOLUTE
    ../clib/microlib/init/entry.s            0x00000000   Number         0  entry11a.o ABSOLUTE
    ../clib/microlib/init/entry.s            0x00000000   Number         0  entry11b.o ABSOLUTE
    ../clib/microlib/init/entry.s            0x00000000   Number         0  entry2.o ABSOLUTE
    ../clib/microlib/init/entry.s            0x00000000   Number         0  entry.o ABSOLUTE
    ../clib/microlib/longlong.c              0x00000000   Number         0  llsshr.o ABSOLUTE
    ../clib/microlib/longlong.c              0x00000000   Number         0  llushr.o ABSOLUTE
    ../clib/microlib/longlong.c              0x00000000   Number         0  llshl.o ABSOLUTE
    ../clib/microlib/printf/printf.c         0x00000000   Number         0  printf1.o ABSOLUTE
    ../clib/microlib/printf/printf.c         0x00000000   Number         0  printf0.o ABSOLUTE
    ../clib/microlib/printf/printf.c         0x00000000   Number         0  printfb.o ABSOLUTE
    ../clib/microlib/printf/printf.c         0x00000000   Number         0  printf6.o ABSOLUTE
    ../clib/microlib/printf/printf.c         0x00000000   Number         0  printf5.o ABSOLUTE
    ../clib/microlib/printf/printf.c         0x00000000   Number         0  printf4.o ABSOLUTE
    ../clib/microlib/printf/printf.c         0x00000000   Number         0  printf3.o ABSOLUTE
    ../clib/microlib/printf/printf.c         0x00000000   Number         0  printf7.o ABSOLUTE
    ../clib/microlib/printf/printf.c         0x00000000   Number         0  printfa.o ABSOLUTE
    ../clib/microlib/printf/printf.c         0x00000000   Number         0  printf8.o ABSOLUTE
    ../clib/microlib/printf/printf.c         0x00000000   Number         0  printf2.o ABSOLUTE
    ../clib/microlib/printf/stubs.s          0x00000000   Number         0  stubs.o ABSOLUTE
    ../clib/microlib/stdio/streams.c         0x00000000   Number         0  stdout.o ABSOLUTE
    ../clib/microlib/string/memset.c         0x00000000   Number         0  memseta.o ABSOLUTE
    ../clib/microlib/string/strcpy.c         0x00000000   Number         0  strcpy.o ABSOLUTE
    ../clib/microlib/string/strlen.c         0x00000000   Number         0  strlen.o ABSOLUTE
    ../clib/microlib/stubs.s                 0x00000000   Number         0  iusefp.o ABSOLUTE
    ../fplib/microlib/d2f.c                  0x00000000   Number         0  d2f.o ABSOLUTE
    ../fplib/microlib/f2d.c                  0x00000000   Number         0  f2d.o ABSOLUTE
    ../fplib/microlib/fpadd.c                0x00000000   Number         0  dadd.o ABSOLUTE
    ../fplib/microlib/fpadd.c                0x00000000   Number         0  fadd.o ABSOLUTE
    ../fplib/microlib/fpdiv.c                0x00000000   Number         0  fdiv.o ABSOLUTE
    ../fplib/microlib/fpdiv.c                0x00000000   Number         0  ddiv.o ABSOLUTE
    ../fplib/microlib/fpepilogue.c           0x00000000   Number         0  depilogue.o ABSOLUTE
    ../fplib/microlib/fpepilogue.c           0x00000000   Number         0  fepilogue.o ABSOLUTE
    ../fplib/microlib/fpfix.c                0x00000000   Number         0  dfixui.o ABSOLUTE
    ../fplib/microlib/fpfix.c                0x00000000   Number         0  dfixi.o ABSOLUTE
    ../fplib/microlib/fpfix.c                0x00000000   Number         0  ffixui.o ABSOLUTE
    ../fplib/microlib/fpfix.c                0x00000000   Number         0  dfixul.o ABSOLUTE
    ../fplib/microlib/fpflt.c                0x00000000   Number         0  ffltui.o ABSOLUTE
    ../fplib/microlib/fpflt.c                0x00000000   Number         0  dfltui.o ABSOLUTE
    ../fplib/microlib/fpflt.c                0x00000000   Number         0  fflti.o ABSOLUTE
    ../fplib/microlib/fpmul.c                0x00000000   Number         0  dmul.o ABSOLUTE
    ../fplib/microlib/fpmul.c                0x00000000   Number         0  fmul.o ABSOLUTE
    ..\..\..\DataStruct\RGBHSV\RGB_HSV.C     0x00000000   Number         0  rgb_hsv.o ABSOLUTE
    ..\..\..\basic\CUIGUI_COLOR.C            0x00000000   Number         0  cuigui_color.o ABSOLUTE
    ..\..\..\basic\CUIGUI_LCDDRIVER.C        0x00000000   Number         0  cuigui_lcddriver.o ABSOLUTE
    ..\..\..\basic\GUI.C                     0x00000000   Number         0  gui.o ABSOLUTE
    ..\..\..\config\lcd\TFT\lcd.c            0x00000000   Number         0  lcd.o ABSOLUTE
    ..\..\..\font\MicrosoftYaHeiASCII24.c    0x00000000   Number         0  microsoftyaheiascii24.o ABSOLUTE
    ..\..\..\font\songti24.c                 0x00000000   Number         0  songti24.o ABSOLUTE
    ..\..\..\guimodule\BMP\CUIGUI_BMP.C      0x00000000   Number         0  cuigui_bmp.o ABSOLUTE
    ..\..\..\guimodule\BMP\draw.c            0x00000000   Number         0  draw.o ABSOLUTE
    ..\..\..\guimodule\BUTTON\CUIGUI_BUTTON.C 0x00000000   Number         0  cuigui_button.o ABSOLUTE
    ..\..\..\guimodule\EditText\CUIGUI_EDIT.C 0x00000000   Number         0  cuigui_edit.o ABSOLUTE
    ..\..\..\guimodule\GroupBox\CUIGUI_GroupBox.C 0x00000000   Number         0  cuigui_groupbox.o ABSOLUTE
    ..\..\..\guimodule\SLIDER\CUIGUI_SLIDER.C 0x00000000   Number         0  cuigui_slider.o ABSOLUTE
    ..\..\..\layout\RELATIVE_LAYOUT.C        0x00000000   Number         0  relative_layout.o ABSOLUTE
    ..\..\..\malloc\List4_Malloc.C           0x00000000   Number         0  list4_malloc.o ABSOLUTE
    ..\Drivers\STM32F1xx_HAL_Driver\Src\stm32f1xx_hal.c 0x00000000   Number         0  stm32f1xx_hal.o ABSOLUTE
    ..\Drivers\STM32F1xx_HAL_Driver\Src\stm32f1xx_hal_cortex.c 0x00000000   Number         0  stm32f1xx_hal_cortex.o ABSOLUTE
    ..\Drivers\STM32F1xx_HAL_Driver\Src\stm32f1xx_hal_dma.c 0x00000000   Number         0  stm32f1xx_hal_dma.o ABSOLUTE
    ..\Drivers\STM32F1xx_HAL_Driver\Src\stm32f1xx_hal_flash.c 0x00000000   Number         0  stm32f1xx_hal_flash.o ABSOLUTE
    ..\Drivers\STM32F1xx_HAL_Driver\Src\stm32f1xx_hal_flash_ex.c 0x00000000   Number         0  stm32f1xx_hal_flash_ex.o ABSOLUTE
    ..\Drivers\STM32F1xx_HAL_Driver\Src\stm32f1xx_hal_gpio.c 0x00000000   Number         0  stm32f1xx_hal_gpio.o ABSOLUTE
    ..\Drivers\STM32F1xx_HAL_Driver\Src\stm32f1xx_hal_gpio_ex.c 0x00000000   Number         0  stm32f1xx_hal_gpio_ex.o ABSOLUTE
    ..\Drivers\STM32F1xx_HAL_Driver\Src\stm32f1xx_hal_pwr.c 0x00000000   Number         0  stm32f1xx_hal_pwr.o ABSOLUTE
    ..\Drivers\STM32F1xx_HAL_Driver\Src\stm32f1xx_hal_rcc.c 0x00000000   Number         0  stm32f1xx_hal_rcc.o ABSOLUTE
    ..\Drivers\STM32F1xx_HAL_Driver\Src\stm32f1xx_hal_rcc_ex.c 0x00000000   Number         0  stm32f1xx_hal_rcc_ex.o ABSOLUTE
    ..\Drivers\STM32F1xx_HAL_Driver\Src\stm32f1xx_hal_sd.c 0x00000000   Number         0  stm32f1xx_hal_sd.o ABSOLUTE
    ..\Drivers\STM32F1xx_HAL_Driver\Src\stm32f1xx_hal_sram.c 0x00000000   Number         0  stm32f1xx_hal_sram.o ABSOLUTE
    ..\Drivers\STM32F1xx_HAL_Driver\Src\stm32f1xx_hal_tim.c 0x00000000   Number         0  stm32f1xx_hal_tim.o ABSOLUTE
    ..\Drivers\STM32F1xx_HAL_Driver\Src\stm32f1xx_hal_tim_ex.c 0x00000000   Number         0  stm32f1xx_hal_tim_ex.o ABSOLUTE
    ..\Drivers\STM32F1xx_HAL_Driver\Src\stm32f1xx_hal_uart.c 0x00000000   Number         0  stm32f1xx_hal_uart.o ABSOLUTE
    ..\Drivers\STM32F1xx_HAL_Driver\Src\stm32f1xx_ll_fsmc.c 0x00000000   Number         0  stm32f1xx_ll_fsmc.o ABSOLUTE
    ..\Drivers\STM32F1xx_HAL_Driver\Src\stm32f1xx_ll_sdmmc.c 0x00000000   Number         0  stm32f1xx_ll_sdmmc.o ABSOLUTE
    ..\Middlewares\Third_Party\FatFs\src\diskio.c 0x00000000   Number         0  diskio.o ABSOLUTE
    ..\Middlewares\Third_Party\FatFs\src\drivers\sd_diskio.c 0x00000000   Number         0  sd_diskio.o ABSOLUTE
    ..\Middlewares\Third_Party\FatFs\src\ff.c 0x00000000   Number         0  ff.o ABSOLUTE
    ..\Middlewares\Third_Party\FatFs\src\ff_gen_drv.c 0x00000000   Number         0  ff_gen_drv.o ABSOLUTE
    ..\Middlewares\Third_Party\FatFs\src\option\ccsbcs.c 0x00000000   Number         0  ccsbcs.o ABSOLUTE
    ..\Middlewares\Third_Party\FatFs\src\option\syscall.c 0x00000000   Number         0  syscall.o ABSOLUTE
    ..\Src\bsp_driver_sd.c                   0x00000000   Number         0  bsp_driver_sd.o ABSOLUTE
    ..\Src\fatfs.c                           0x00000000   Number         0  fatfs.o ABSOLUTE
    ..\Src\fsmc.c                            0x00000000   Number         0  fsmc.o ABSOLUTE
    ..\Src\gpio.c                            0x00000000   Number         0  gpio.o ABSOLUTE
    ..\Src\main.c                            0x00000000   Number         0  main.o ABSOLUTE
    ..\Src\sdio.c                            0x00000000   Number         0  sdio.o ABSOLUTE
    ..\Src\stm32f1xx_hal_msp.c               0x00000000   Number         0  stm32f1xx_hal_msp.o ABSOLUTE
    ..\Src\stm32f1xx_it.c                    0x00000000   Number         0  stm32f1xx_it.o ABSOLUTE
    ..\Src\usart.c                           0x00000000   Number         0  usart.o ABSOLUTE
    ..\\..\\..\\DataStruct\\RGBHSV\\RGB_HSV.C 0x00000000   Number         0  rgb_hsv.o ABSOLUTE
    ..\\..\\..\\basic\\CUIGUI_COLOR.C        0x00000000   Number         0  cuigui_color.o ABSOLUTE
    ..\\..\\..\\basic\\CUIGUI_LCDDRIVER.C    0x00000000   Number         0  cuigui_lcddriver.o ABSOLUTE
    ..\\..\\..\\basic\\GUI.C                 0x00000000   Number         0  gui.o ABSOLUTE
    ..\\..\\..\\config\\lcd\\TFT\\lcd.c      0x00000000   Number         0  lcd.o ABSOLUTE
    ..\\..\\..\\font\\MicrosoftYaHeiASCII24.c 0x00000000   Number         0  microsoftyaheiascii24.o ABSOLUTE
    ..\\..\\..\\font\\songti24.c             0x00000000   Number         0  songti24.o ABSOLUTE
    ..\\..\\..\\guimodule\\BMP\\CUIGUI_BMP.C 0x00000000   Number         0  cuigui_bmp.o ABSOLUTE
    ..\\..\\..\\guimodule\\BMP\\draw.c       0x00000000   Number         0  draw.o ABSOLUTE
    ..\\..\\..\\guimodule\\BUTTON\\CUIGUI_BUTTON.C 0x00000000   Number         0  cuigui_button.o ABSOLUTE
    ..\\..\\..\\guimodule\\EditText\\CUIGUI_EDIT.C 0x00000000   Number         0  cuigui_edit.o ABSOLUTE
    ..\\..\\..\\guimodule\\GroupBox\\CUIGUI_GroupBox.C 0x00000000   Number         0  cuigui_groupbox.o ABSOLUTE
    ..\\..\\..\\guimodule\\SLIDER\\CUIGUI_SLIDER.C 0x00000000   Number         0  cuigui_slider.o ABSOLUTE
    ..\\..\\..\\layout\\RELATIVE_LAYOUT.C    0x00000000   Number         0  relative_layout.o ABSOLUTE
    ..\\..\\..\\malloc\\List4_Malloc.C       0x00000000   Number         0  list4_malloc.o ABSOLUTE
    ..\\Src\system_stm32f1xx.c               0x00000000   Number         0  system_stm32f1xx.o ABSOLUTE
    cdcmple.s                                0x00000000   Number         0  cdcmple.o ABSOLUTE
    cdrcmple.s                               0x00000000   Number         0  cdrcmple.o ABSOLUTE
    dc.s                                     0x00000000   Number         0  dc.o ABSOLUTE
    handlers.s                               0x00000000   Number         0  handlers.o ABSOLUTE
    init.s                                   0x00000000   Number         0  init.o ABSOLUTE
    startup_stm32f103xe.s                    0x00000000   Number         0  startup_stm32f103xe.o ABSOLUTE
    RESET                                    0x08000000   Section      304  startup_stm32f103xe.o(RESET)
    .ARM.Collect$$$$00000000                 0x08000130   Section        0  entry.o(.ARM.Collect$$$$00000000)
    .ARM.Collect$$$$00000001                 0x08000130   Section        4  entry2.o(.ARM.Collect$$$$00000001)
    .ARM.Collect$$$$00000004                 0x08000134   Section        4  entry5.o(.ARM.Collect$$$$00000004)
    .ARM.Collect$$$$00000008                 0x08000138   Section        0  entry7b.o(.ARM.Collect$$$$00000008)
    .ARM.Collect$$$$0000000A                 0x08000138   Section        0  entry8b.o(.ARM.Collect$$$$0000000A)
    .ARM.Collect$$$$0000000B                 0x08000138   Section        8  entry9a.o(.ARM.Collect$$$$0000000B)
    .ARM.Collect$$$$0000000D                 0x08000140   Section        0  entry10a.o(.ARM.Collect$$$$0000000D)
    .ARM.Collect$$$$0000000F                 0x08000140   Section        0  entry11a.o(.ARM.Collect$$$$0000000F)
    .ARM.Collect$$$$00002712                 0x08000140   Section        4  entry2.o(.ARM.Collect$$$$00002712)
    __lit__00000000                          0x08000140   Data           4  entry2.o(.ARM.Collect$$$$00002712)
    .text                                    0x08000144   Section       36  startup_stm32f103xe.o(.text)
    .text                                    0x08000168   Section        0  llushr.o(.text)
    .text                                    0x08000188   Section        0  memseta.o(.text)
    .text                                    0x080001ac   Section        0  dmul.o(.text)
    .text                                    0x08000290   Section        0  dfltui.o(.text)
    .text                                    0x080002aa   Section        0  dfixui.o(.text)
    .text                                    0x080002dc   Section        0  uldiv.o(.text)
    .text                                    0x0800033e   Section        0  llshl.o(.text)
    .text                                    0x0800035c   Section        0  iusefp.o(.text)
    .text                                    0x0800035c   Section        0  depilogue.o(.text)
    .text                                    0x08000418   Section       36  init.o(.text)
    i.BSP_SD_GetCardInfo                     0x0800043c   Section        0  bsp_driver_sd.o(i.BSP_SD_GetCardInfo)
    i.BSP_SD_GetCardState                    0x08000448   Section        0  bsp_driver_sd.o(i.BSP_SD_GetCardState)
    i.BSP_SD_Init                            0x08000460   Section        0  bsp_driver_sd.o(i.BSP_SD_Init)
    i.BSP_SD_ReadBlocks                      0x08000494   Section        0  bsp_driver_sd.o(i.BSP_SD_ReadBlocks)
    i.BSP_SD_WriteBlocks                     0x080004b4   Section        0  bsp_driver_sd.o(i.BSP_SD_WriteBlocks)
    i.BtSkin                                 0x080004d4   Section        0  cuigui_button.o(i.BtSkin)
    i.BtText                                 0x080004e2   Section        0  cuigui_button.o(i.BtText)
    i.BusFault_Handler                       0x08000538   Section        0  stm32f1xx_it.o(i.BusFault_Handler)
    i.CUIGUI_BMP_Init                        0x08000554   Section        0  cuigui_bmp.o(i.CUIGUI_BMP_Init)
    i.CUIGUI_Color                           0x0800056c   Section        0  cuigui_color.o(i.CUIGUI_Color)
    i.CUIGUI_DrawEdit                        0x0800057c   Section        0  cuigui_edit.o(i.CUIGUI_DrawEdit)
    i.CUIGUI_DrawHLine                       0x08000590   Section        0  cuigui_lcddriver.o(i.CUIGUI_DrawHLine)
    i.CUIGUI_DrawPoint                       0x080005b4   Section        0  cuigui_lcddriver.o(i.CUIGUI_DrawPoint)
    i.CUIGUI_DrawStr                         0x080005b8   Section        0  gui.o(i.CUIGUI_DrawStr)
    i.CUIGUI_DrawVLine                       0x080005ec   Section        0  cuigui_lcddriver.o(i.CUIGUI_DrawVLine)
    i.CUIGUI_DrawWord                        0x08000610   Section        0  gui.o(i.CUIGUI_DrawWord)
    i.CUIGUI_FillRect                        0x08000670   Section        0  cuigui_lcddriver.o(i.CUIGUI_FillRect)
    i.CUIGUI_GetFont                         0x080006b8   Section        0  gui.o(i.CUIGUI_GetFont)
    i.CUIGUI_Init                            0x080006c4   Section        0  cuigui_lcddriver.o(i.CUIGUI_Init)
    i.CUIGUI_SetFont                         0x080006d8   Section        0  gui.o(i.CUIGUI_SetFont)
    i.DebugMon_Handler                       0x080006e4   Section        0  stm32f1xx_it.o(i.DebugMon_Handler)
    i.DefaultDrawButton                      0x080006e6   Section        0  cuigui_button.o(i.DefaultDrawButton)
    i.DefaultDrawGroupBox                    0x080006f8   Section        0  cuigui_groupbox.o(i.DefaultDrawGroupBox)
    i.EDIT_SetFont                           0x08000798   Section        0  cuigui_edit.o(i.EDIT_SetFont)
    i.EDIT_SetText                           0x080007a0   Section        0  cuigui_edit.o(i.EDIT_SetText)
    i.EDIT_SetTextAlign                      0x080007ba   Section        0  cuigui_edit.o(i.EDIT_SetTextAlign)
    i.EditShowTXT                            0x080007be   Section        0  cuigui_edit.o(i.EditShowTXT)
    i.EditSkin                               0x08000852   Section        0  cuigui_edit.o(i.EditSkin)
    i.FATFS_LinkDriver                       0x0800097e   Section        0  ff_gen_drv.o(i.FATFS_LinkDriver)
    i.FATFS_LinkDriverEx                     0x08000984   Section        0  ff_gen_drv.o(i.FATFS_LinkDriverEx)
    i.FSMC_NORSRAM_Extended_Timing_Init      0x080009c4   Section        0  stm32f1xx_ll_fsmc.o(i.FSMC_NORSRAM_Extended_Timing_Init)
    i.FSMC_NORSRAM_Init                      0x08000a00   Section        0  stm32f1xx_ll_fsmc.o(i.FSMC_NORSRAM_Init)
    i.FSMC_NORSRAM_Timing_Init               0x08000a98   Section        0  stm32f1xx_ll_fsmc.o(i.FSMC_NORSRAM_Timing_Init)
    i.GBK2UNICODE                            0x08000adc   Section        0  gui.o(i.GBK2UNICODE)
    i.GetHeightFont                          0x08000b08   Section        0  gui.o(i.GetHeightFont)
    i.GetLengthStr                           0x08000b0c   Section        0  gui.o(i.GetLengthStr)
    i.GetUnicode                             0x08000b34   Section        0  gui.o(i.GetUnicode)
    i.GetWordWidth                           0x08000b38   Section        0  gui.o(i.GetWordWidth)
    i.GetXORColor                            0x08000b78   Section        0  cuigui_lcddriver.o(i.GetXORColor)
    i.HAL_Delay                              0x08000b80   Section        0  stm32f1xx_hal.o(i.HAL_Delay)
    i.HAL_FSMC_MspInit                       0x08000ba4   Section        0  fsmc.o(i.HAL_FSMC_MspInit)
    HAL_FSMC_MspInit                         0x08000ba5   Thumb Code    96  fsmc.o(i.HAL_FSMC_MspInit)
    i.HAL_GPIO_Init                          0x08000c18   Section        0  stm32f1xx_hal_gpio.o(i.HAL_GPIO_Init)
    i.HAL_GPIO_WritePin                      0x08000e00   Section        0  stm32f1xx_hal_gpio.o(i.HAL_GPIO_WritePin)
    i.HAL_GetTick                            0x08000e0c   Section        0  stm32f1xx_hal.o(i.HAL_GetTick)
    i.HAL_IncTick                            0x08000e18   Section        0  stm32f1xx_hal.o(i.HAL_IncTick)
    i.HAL_Init                               0x08000e28   Section        0  stm32f1xx_hal.o(i.HAL_Init)
    i.HAL_InitTick                           0x08000e4c   Section        0  stm32f1xx_hal.o(i.HAL_InitTick)
    i.HAL_MspInit                            0x08000e8c   Section        0  stm32f1xx_hal_msp.o(i.HAL_MspInit)
    i.HAL_NVIC_SetPriority                   0x08000f1c   Section        0  stm32f1xx_hal_cortex.o(i.HAL_NVIC_SetPriority)
    i.HAL_NVIC_SetPriorityGrouping           0x08000f5c   Section        0  stm32f1xx_hal_cortex.o(i.HAL_NVIC_SetPriorityGrouping)
    i.HAL_RCC_ClockConfig                    0x08000f80   Section        0  stm32f1xx_hal_rcc.o(i.HAL_RCC_ClockConfig)
    i.HAL_RCC_GetHCLKFreq                    0x080010d4   Section        0  stm32f1xx_hal_rcc.o(i.HAL_RCC_GetHCLKFreq)
    i.HAL_RCC_GetPCLK1Freq                   0x080010e0   Section        0  stm32f1xx_hal_rcc.o(i.HAL_RCC_GetPCLK1Freq)
    i.HAL_RCC_GetPCLK2Freq                   0x08001100   Section        0  stm32f1xx_hal_rcc.o(i.HAL_RCC_GetPCLK2Freq)
    i.HAL_RCC_GetSysClockFreq                0x08001120   Section        0  stm32f1xx_hal_rcc.o(i.HAL_RCC_GetSysClockFreq)
    i.HAL_RCC_OscConfig                      0x0800118c   Section        0  stm32f1xx_hal_rcc.o(i.HAL_RCC_OscConfig)
    i.HAL_SD_ConfigWideBusOperation          0x08001490   Section        0  stm32f1xx_hal_sd.o(i.HAL_SD_ConfigWideBusOperation)
    i.HAL_SD_GetCardCID                      0x08001508   Section        0  stm32f1xx_hal_sd.o(i.HAL_SD_GetCardCID)
    i.HAL_SD_GetCardCSD                      0x080015ba   Section        0  stm32f1xx_hal_sd.o(i.HAL_SD_GetCardCSD)
    i.HAL_SD_GetCardInfo                     0x08001794   Section        0  stm32f1xx_hal_sd.o(i.HAL_SD_GetCardInfo)
    i.HAL_SD_GetCardState                    0x080017b8   Section        0  stm32f1xx_hal_sd.o(i.HAL_SD_GetCardState)
    i.HAL_SD_Init                            0x080017e4   Section        0  stm32f1xx_hal_sd.o(i.HAL_SD_Init)
    i.HAL_SD_InitCard                        0x0800181c   Section        0  stm32f1xx_hal_sd.o(i.HAL_SD_InitCard)
    i.HAL_SD_MspInit                         0x08001870   Section        0  sdio.o(i.HAL_SD_MspInit)
    i.HAL_SD_ReadBlocks                      0x080018c8   Section        0  stm32f1xx_hal_sd.o(i.HAL_SD_ReadBlocks)
    i.HAL_SD_WriteBlocks                     0x08001a7c   Section        0  stm32f1xx_hal_sd.o(i.HAL_SD_WriteBlocks)
    i.HAL_SRAM_Init                          0x08001c16   Section        0  stm32f1xx_hal_sram.o(i.HAL_SRAM_Init)
    i.HAL_SRAM_MspInit                       0x08001c6c   Section        0  fsmc.o(i.HAL_SRAM_MspInit)
    i.HAL_SYSTICK_CLKSourceConfig            0x08001c70   Section        0  stm32f1xx_hal_cortex.o(i.HAL_SYSTICK_CLKSourceConfig)
    i.HAL_SYSTICK_Callback                   0x08001c88   Section        0  stm32f1xx_hal_cortex.o(i.HAL_SYSTICK_Callback)
    i.HAL_SYSTICK_Config                     0x08001c8a   Section        0  stm32f1xx_hal_cortex.o(i.HAL_SYSTICK_Config)
    i.HAL_SYSTICK_IRQHandler                 0x08001cb2   Section        0  stm32f1xx_hal_cortex.o(i.HAL_SYSTICK_IRQHandler)
    i.HAL_UART_Init                          0x08001cba   Section        0  stm32f1xx_hal_uart.o(i.HAL_UART_Init)
    i.HAL_UART_MspInit                       0x08001d1c   Section        0  usart.o(i.HAL_UART_MspInit)
    i.HAL_UART_Transmit                      0x08001d74   Section        0  stm32f1xx_hal_uart.o(i.HAL_UART_Transmit)
    i.HardFault_Handler                      0x08001e30   Section        0  stm32f1xx_it.o(i.HardFault_Handler)
    i.LCD_Clear                              0x08001e4c   Section        0  lcd.o(i.LCD_Clear)
    i.LCD_Display_Dir                        0x08001eb8   Section        0  lcd.o(i.LCD_Display_Dir)
    i.LCD_Fast_DrawPoint                     0x08001fec   Section        0  lcd.o(i.LCD_Fast_DrawPoint)
    i.LCD_Init                               0x080020fc   Section        0  lcd.o(i.LCD_Init)
    i.LCD_ReadReg                            0x08004e00   Section        0  lcd.o(i.LCD_ReadReg)
    i.LCD_SSD_BackLightSet                   0x08004e10   Section        0  lcd.o(i.LCD_SSD_BackLightSet)
    i.LCD_Scan_Dir                           0x08004e4c   Section        0  lcd.o(i.LCD_Scan_Dir)
    i.LCD_SetCursor                          0x08004ff4   Section        0  lcd.o(i.LCD_SetCursor)
    i.LCD_WriteRAM_Prepare                   0x08005134   Section        0  lcd.o(i.LCD_WriteRAM_Prepare)
    i.LCD_WriteReg                           0x08005148   Section        0  lcd.o(i.LCD_WriteReg)
    i.List4_InsertBlock                      0x08005158   Section        0  list4_malloc.o(i.List4_InsertBlock)
    i.List4_Malloc                           0x080051ac   Section        0  list4_malloc.o(i.List4_Malloc)
    i.List4_Malloc_Init                      0x08005254   Section        0  list4_malloc.o(i.List4_Malloc_Init)
    i.MX_FATFS_Init                          0x080052e0   Section        0  fatfs.o(i.MX_FATFS_Init)
    i.MX_FSMC_Init                           0x080052fc   Section        0  fsmc.o(i.MX_FSMC_Init)
    i.MX_GPIO_Init                           0x08005394   Section        0  gpio.o(i.MX_GPIO_Init)
    i.MX_SDIO_SD_Init                        0x08005428   Section        0  sdio.o(i.MX_SDIO_SD_Init)
    i.MX_USART1_UART_Init                    0x08005448   Section        0  usart.o(i.MX_USART1_UART_Init)
    i.MemManage_Handler                      0x08005494   Section        0  stm32f1xx_it.o(i.MemManage_Handler)
    i.NMI_Handler                            0x080054b0   Section        0  stm32f1xx_it.o(i.NMI_Handler)
    i.NVIC_SetPriority                       0x080054b2   Section        0  stm32f1xx_hal_cortex.o(i.NVIC_SetPriority)
    NVIC_SetPriority                         0x080054b3   Thumb Code    32  stm32f1xx_hal_cortex.o(i.NVIC_SetPriority)
    i.NewButton                              0x080054d4   Section        0  cuigui_button.o(i.NewButton)
    i.NewEdit                                0x08005518   Section        0  cuigui_edit.o(i.NewEdit)
    i.Obj_SkinPressed                        0x08005564   Section        0  cuigui_button.o(i.Obj_SkinPressed)
    i.Obj_SkinUnPressed                      0x0800569a   Section        0  cuigui_button.o(i.Obj_SkinUnPressed)
    i.PendSV_Handler                         0x080057d0   Section        0  stm32f1xx_it.o(i.PendSV_Handler)
    i.SDIO_ConfigData                        0x080057d2   Section        0  stm32f1xx_ll_sdmmc.o(i.SDIO_ConfigData)
    i.SDIO_GetPowerState                     0x080057f6   Section        0  stm32f1xx_ll_sdmmc.o(i.SDIO_GetPowerState)
    i.SDIO_GetResponse                       0x080057fe   Section        0  stm32f1xx_ll_sdmmc.o(i.SDIO_GetResponse)
    i.SDIO_Init                              0x0800580a   Section        0  stm32f1xx_ll_sdmmc.o(i.SDIO_Init)
    i.SDIO_PowerState_ON                     0x0800582e   Section        0  stm32f1xx_ll_sdmmc.o(i.SDIO_PowerState_ON)
    i.SDIO_ReadFIFO                          0x08005836   Section        0  stm32f1xx_ll_sdmmc.o(i.SDIO_ReadFIFO)
    i.SDIO_SendCommand                       0x0800583c   Section        0  stm32f1xx_ll_sdmmc.o(i.SDIO_SendCommand)
    i.SDIO_WriteFIFO                         0x0800585c   Section        0  stm32f1xx_ll_sdmmc.o(i.SDIO_WriteFIFO)
    i.SDMMC_CmdAppCommand                    0x08005866   Section        0  stm32f1xx_ll_sdmmc.o(i.SDMMC_CmdAppCommand)
    i.SDMMC_CmdAppOperCommand                0x08005898   Section        0  stm32f1xx_ll_sdmmc.o(i.SDMMC_CmdAppOperCommand)
    i.SDMMC_CmdBlockLength                   0x080058cc   Section        0  stm32f1xx_ll_sdmmc.o(i.SDMMC_CmdBlockLength)
    i.SDMMC_CmdBusWidth                      0x080058fe   Section        0  stm32f1xx_ll_sdmmc.o(i.SDMMC_CmdBusWidth)
    i.SDMMC_CmdGoIdleState                   0x08005930   Section        0  stm32f1xx_ll_sdmmc.o(i.SDMMC_CmdGoIdleState)
    i.SDMMC_CmdOperCond                      0x08005980   Section        0  stm32f1xx_ll_sdmmc.o(i.SDMMC_CmdOperCond)
    i.SDMMC_CmdReadMultiBlock                0x080059e8   Section        0  stm32f1xx_ll_sdmmc.o(i.SDMMC_CmdReadMultiBlock)
    i.SDMMC_CmdReadSingleBlock               0x08005a1a   Section        0  stm32f1xx_ll_sdmmc.o(i.SDMMC_CmdReadSingleBlock)
    i.SDMMC_CmdSelDesel                      0x08005a4c   Section        0  stm32f1xx_ll_sdmmc.o(i.SDMMC_CmdSelDesel)
    i.SDMMC_CmdSendCID                       0x08005a7e   Section        0  stm32f1xx_ll_sdmmc.o(i.SDMMC_CmdSendCID)
    i.SDMMC_CmdSendCSD                       0x08005aaa   Section        0  stm32f1xx_ll_sdmmc.o(i.SDMMC_CmdSendCSD)
    i.SDMMC_CmdSendSCR                       0x08005ad6   Section        0  stm32f1xx_ll_sdmmc.o(i.SDMMC_CmdSendSCR)
    i.SDMMC_CmdSendStatus                    0x08005b06   Section        0  stm32f1xx_ll_sdmmc.o(i.SDMMC_CmdSendStatus)
    i.SDMMC_CmdSetRelAdd                     0x08005b38   Section        0  stm32f1xx_ll_sdmmc.o(i.SDMMC_CmdSetRelAdd)
    i.SDMMC_CmdStopTransfer                  0x08005b68   Section        0  stm32f1xx_ll_sdmmc.o(i.SDMMC_CmdStopTransfer)
    i.SDMMC_CmdWriteMultiBlock               0x08005b9c   Section        0  stm32f1xx_ll_sdmmc.o(i.SDMMC_CmdWriteMultiBlock)
    i.SDMMC_CmdWriteSingleBlock              0x08005bce   Section        0  stm32f1xx_ll_sdmmc.o(i.SDMMC_CmdWriteSingleBlock)
    i.SDMMC_GetCmdResp1                      0x08005c00   Section        0  stm32f1xx_ll_sdmmc.o(i.SDMMC_GetCmdResp1)
    SDMMC_GetCmdResp1                        0x08005c01   Thumb Code   276  stm32f1xx_ll_sdmmc.o(i.SDMMC_GetCmdResp1)
    i.SDMMC_GetCmdResp2                      0x08005d1c   Section        0  stm32f1xx_ll_sdmmc.o(i.SDMMC_GetCmdResp2)
    SDMMC_GetCmdResp2                        0x08005d1d   Thumb Code    74  stm32f1xx_ll_sdmmc.o(i.SDMMC_GetCmdResp2)
    i.SDMMC_GetCmdResp3                      0x08005d6c   Section        0  stm32f1xx_ll_sdmmc.o(i.SDMMC_GetCmdResp3)
    SDMMC_GetCmdResp3                        0x08005d6d   Thumb Code    60  stm32f1xx_ll_sdmmc.o(i.SDMMC_GetCmdResp3)
    i.SDMMC_GetCmdResp6                      0x08005dac   Section        0  stm32f1xx_ll_sdmmc.o(i.SDMMC_GetCmdResp6)
    SDMMC_GetCmdResp6                        0x08005dad   Thumb Code   128  stm32f1xx_ll_sdmmc.o(i.SDMMC_GetCmdResp6)
    i.SD_FindSCR                             0x08005e30   Section        0  stm32f1xx_hal_sd.o(i.SD_FindSCR)
    SD_FindSCR                               0x08005e31   Thumb Code   212  stm32f1xx_hal_sd.o(i.SD_FindSCR)
    i.SD_InitCard                            0x08005f04   Section        0  stm32f1xx_hal_sd.o(i.SD_InitCard)
    SD_InitCard                              0x08005f05   Thumb Code   230  stm32f1xx_hal_sd.o(i.SD_InitCard)
    i.SD_PowerON                             0x08005fea   Section        0  stm32f1xx_hal_sd.o(i.SD_PowerON)
    SD_PowerON                               0x08005feb   Thumb Code   162  stm32f1xx_hal_sd.o(i.SD_PowerON)
    i.SD_WideBus_Disable                     0x0800608c   Section        0  stm32f1xx_hal_sd.o(i.SD_WideBus_Disable)
    SD_WideBus_Disable                       0x0800608d   Thumb Code    78  stm32f1xx_hal_sd.o(i.SD_WideBus_Disable)
    i.SD_WideBus_Enable                      0x080060da   Section        0  stm32f1xx_hal_sd.o(i.SD_WideBus_Enable)
    SD_WideBus_Enable                        0x080060db   Thumb Code    78  stm32f1xx_hal_sd.o(i.SD_WideBus_Enable)
    i.SD_initialize                          0x08006128   Section        0  sd_diskio.o(i.SD_initialize)
    i.SD_ioctl                               0x08006148   Section        0  sd_diskio.o(i.SD_ioctl)
    i.SD_read                                0x08006198   Section        0  sd_diskio.o(i.SD_read)
    i.SD_status                              0x080061d4   Section        0  sd_diskio.o(i.SD_status)
    i.SD_write                               0x080061f4   Section        0  sd_diskio.o(i.SD_write)
    i.SVC_Handler                            0x08006230   Section        0  stm32f1xx_it.o(i.SVC_Handler)
    i.SysTick_Handler                        0x08006232   Section        0  stm32f1xx_it.o(i.SysTick_Handler)
    i.SystemClock_Config                     0x08006240   Section        0  main.o(i.SystemClock_Config)
    i.SystemInit                             0x080062c0   Section        0  system_stm32f1xx.o(i.SystemInit)
    i.UART_SetConfig                         0x08006308   Section        0  stm32f1xx_hal_uart.o(i.UART_SetConfig)
    UART_SetConfig                           0x08006309   Thumb Code   364  stm32f1xx_hal_uart.o(i.UART_SetConfig)
    i.UART_WaitOnFlagUntilTimeout            0x08006478   Section        0  stm32f1xx_hal_uart.o(i.UART_WaitOnFlagUntilTimeout)
    UART_WaitOnFlagUntilTimeout              0x08006479   Thumb Code   100  stm32f1xx_hal_uart.o(i.UART_WaitOnFlagUntilTimeout)
    i.UsageFault_Handler                     0x080064dc   Section        0  stm32f1xx_it.o(i.UsageFault_Handler)
    i._Error_Handler                         0x080064fc   Section        0  main.o(i._Error_Handler)
    i.__0printf$5                            0x08006524   Section        0  printf5.o(i.__0printf$5)
    i.__scatterload_copy                     0x08006544   Section       14  handlers.o(i.__scatterload_copy)
    i.__scatterload_null                     0x08006552   Section        2  handlers.o(i.__scatterload_null)
    i.__scatterload_zeroinit                 0x08006554   Section       14  handlers.o(i.__scatterload_zeroinit)
    i._draw_model                            0x08006562   Section        0  gui.o(i._draw_model)
    i._printf_core                           0x080065d4   Section        0  printf5.o(i._printf_core)
    _printf_core                             0x080065d5   Thumb Code   658  printf5.o(i._printf_core)
    i.check_fs                               0x08006894   Section        0  ff.o(i.check_fs)
    check_fs                                 0x08006895   Thumb Code    90  ff.o(i.check_fs)
    i.clear_lock                             0x080068f4   Section        0  ff.o(i.clear_lock)
    clear_lock                               0x080068f5   Thumb Code    32  ff.o(i.clear_lock)
    i.disk_initialize                        0x08006918   Section        0  diskio.o(i.disk_initialize)
    i.disk_read                              0x08006940   Section        0  diskio.o(i.disk_read)
    i.disk_status                            0x0800695c   Section        0  diskio.o(i.disk_status)
    i.disk_write                             0x08006974   Section        0  diskio.o(i.disk_write)
    i.f_mount                                0x08006990   Section        0  ff.o(i.f_mount)
    i.find_volume                            0x080069ec   Section        0  ff.o(i.find_volume)
    find_volume                              0x080069ed   Thumb Code   588  ff.o(i.find_volume)
    i.fputc                                  0x08006c44   Section        0  usart.o(i.fputc)
    i.get_ldnumber                           0x08006c5c   Section        0  ff.o(i.get_ldnumber)
    get_ldnumber                             0x08006c5d   Thumb Code    60  ff.o(i.get_ldnumber)
    i.main                                   0x08006c98   Section        0  main.o(i.main)
    i.move_window                            0x08006e00   Section        0  ff.o(i.move_window)
    move_window                              0x08006e01   Thumb Code    54  ff.o(i.move_window)
    i.sync_window                            0x08006e36   Section        0  ff.o(i.sync_window)
    sync_window                              0x08006e37   Thumb Code    96  ff.o(i.sync_window)
    .constdata                               0x08006e96   Section       16  system_stm32f1xx.o(.constdata)
    .constdata                               0x08006ea6   Section        8  system_stm32f1xx.o(.constdata)
    .constdata                               0x08006eae   Section       24  microsoftyaheiascii24.o(.constdata)
    .constdata                               0x08006ec6   Section       24  microsoftyaheiascii24.o(.constdata)
    .constdata                               0x08006ede   Section       24  microsoftyaheiascii24.o(.constdata)
    .constdata                               0x08006ef6   Section       48  microsoftyaheiascii24.o(.constdata)
    .constdata                               0x08006f26   Section       48  microsoftyaheiascii24.o(.constdata)
    .constdata                               0x08006f56   Section       48  microsoftyaheiascii24.o(.constdata)
    .constdata                               0x08006f86   Section       48  microsoftyaheiascii24.o(.constdata)
    .constdata                               0x08006fb6   Section       24  microsoftyaheiascii24.o(.constdata)
    .constdata                               0x08006fce   Section       24  microsoftyaheiascii24.o(.constdata)
    .constdata                               0x08006fe6   Section       24  microsoftyaheiascii24.o(.constdata)
    .constdata                               0x08006ffe   Section       24  microsoftyaheiascii24.o(.constdata)
    .constdata                               0x08007016   Section       48  microsoftyaheiascii24.o(.constdata)
    .constdata                               0x08007046   Section       24  microsoftyaheiascii24.o(.constdata)
    .constdata                               0x0800705e   Section       24  microsoftyaheiascii24.o(.constdata)
    .constdata                               0x08007076   Section       24  microsoftyaheiascii24.o(.constdata)
    .constdata                               0x0800708e   Section       24  microsoftyaheiascii24.o(.constdata)
    .constdata                               0x080070a6   Section       48  microsoftyaheiascii24.o(.constdata)
    .constdata                               0x080070d6   Section       48  microsoftyaheiascii24.o(.constdata)
    .constdata                               0x08007106   Section       48  microsoftyaheiascii24.o(.constdata)
    .constdata                               0x08007136   Section       48  microsoftyaheiascii24.o(.constdata)
    .constdata                               0x08007166   Section       48  microsoftyaheiascii24.o(.constdata)
    .constdata                               0x08007196   Section       48  microsoftyaheiascii24.o(.constdata)
    .constdata                               0x080071c6   Section       48  microsoftyaheiascii24.o(.constdata)
    .constdata                               0x080071f6   Section       48  microsoftyaheiascii24.o(.constdata)
    .constdata                               0x08007226   Section       48  microsoftyaheiascii24.o(.constdata)
    .constdata                               0x08007256   Section       48  microsoftyaheiascii24.o(.constdata)
    .constdata                               0x08007286   Section       24  microsoftyaheiascii24.o(.constdata)
    .constdata                               0x0800729e   Section       24  microsoftyaheiascii24.o(.constdata)
    .constdata                               0x080072b6   Section       48  microsoftyaheiascii24.o(.constdata)
    .constdata                               0x080072e6   Section       48  microsoftyaheiascii24.o(.constdata)
    .constdata                               0x08007316   Section       48  microsoftyaheiascii24.o(.constdata)
    .constdata                               0x08007346   Section       48  microsoftyaheiascii24.o(.constdata)
    .constdata                               0x08007376   Section       72  microsoftyaheiascii24.o(.constdata)
    .constdata                               0x080073be   Section       48  microsoftyaheiascii24.o(.constdata)
    .constdata                               0x080073ee   Section       48  microsoftyaheiascii24.o(.constdata)
    .constdata                               0x0800741e   Section       48  microsoftyaheiascii24.o(.constdata)
    .constdata                               0x0800744e   Section       48  microsoftyaheiascii24.o(.constdata)
    .constdata                               0x0800747e   Section       48  microsoftyaheiascii24.o(.constdata)
    .constdata                               0x080074ae   Section       48  microsoftyaheiascii24.o(.constdata)
    .constdata                               0x080074de   Section       48  microsoftyaheiascii24.o(.constdata)
    .constdata                               0x0800750e   Section       48  microsoftyaheiascii24.o(.constdata)
    .constdata                               0x0800753e   Section       24  microsoftyaheiascii24.o(.constdata)
    .constdata                               0x08007556   Section       24  microsoftyaheiascii24.o(.constdata)
    .constdata                               0x0800756e   Section       48  microsoftyaheiascii24.o(.constdata)
    .constdata                               0x0800759e   Section       48  microsoftyaheiascii24.o(.constdata)
    .constdata                               0x080075ce   Section       72  microsoftyaheiascii24.o(.constdata)
    .constdata                               0x08007616   Section       48  microsoftyaheiascii24.o(.constdata)
    .constdata                               0x08007646   Section       48  microsoftyaheiascii24.o(.constdata)
    .constdata                               0x08007676   Section       48  microsoftyaheiascii24.o(.constdata)
    .constdata                               0x080076a6   Section       48  microsoftyaheiascii24.o(.constdata)
    .constdata                               0x080076d6   Section       48  microsoftyaheiascii24.o(.constdata)
    .constdata                               0x08007706   Section       48  microsoftyaheiascii24.o(.constdata)
    .constdata                               0x08007736   Section       48  microsoftyaheiascii24.o(.constdata)
    .constdata                               0x08007766   Section       48  microsoftyaheiascii24.o(.constdata)
    .constdata                               0x08007796   Section       48  microsoftyaheiascii24.o(.constdata)
    .constdata                               0x080077c6   Section       72  microsoftyaheiascii24.o(.constdata)
    .constdata                               0x0800780e   Section       48  microsoftyaheiascii24.o(.constdata)
    .constdata                               0x0800783e   Section       48  microsoftyaheiascii24.o(.constdata)
    .constdata                               0x0800786e   Section       48  microsoftyaheiascii24.o(.constdata)
    .constdata                               0x0800789e   Section       24  microsoftyaheiascii24.o(.constdata)
    .constdata                               0x080078b6   Section       24  microsoftyaheiascii24.o(.constdata)
    .constdata                               0x080078ce   Section       24  microsoftyaheiascii24.o(.constdata)
    .constdata                               0x080078e6   Section       48  microsoftyaheiascii24.o(.constdata)
    .constdata                               0x08007916   Section       24  microsoftyaheiascii24.o(.constdata)
    .constdata                               0x0800792e   Section       24  microsoftyaheiascii24.o(.constdata)
    .constdata                               0x08007946   Section       48  microsoftyaheiascii24.o(.constdata)
    .constdata                               0x08007976   Section       48  microsoftyaheiascii24.o(.constdata)
    .constdata                               0x080079a6   Section       48  microsoftyaheiascii24.o(.constdata)
    .constdata                               0x080079d6   Section       48  microsoftyaheiascii24.o(.constdata)
    .constdata                               0x08007a06   Section       48  microsoftyaheiascii24.o(.constdata)
    .constdata                               0x08007a36   Section       24  microsoftyaheiascii24.o(.constdata)
    .constdata                               0x08007a4e   Section       48  microsoftyaheiascii24.o(.constdata)
    .constdata                               0x08007a7e   Section       48  microsoftyaheiascii24.o(.constdata)
    .constdata                               0x08007aae   Section       24  microsoftyaheiascii24.o(.constdata)
    .constdata                               0x08007ac6   Section       24  microsoftyaheiascii24.o(.constdata)
    .constdata                               0x08007ade   Section       48  microsoftyaheiascii24.o(.constdata)
    .constdata                               0x08007b0e   Section       24  microsoftyaheiascii24.o(.constdata)
    .constdata                               0x08007b26   Section       72  microsoftyaheiascii24.o(.constdata)
    .constdata                               0x08007b6e   Section       48  microsoftyaheiascii24.o(.constdata)
    .constdata                               0x08007b9e   Section       48  microsoftyaheiascii24.o(.constdata)
    .constdata                               0x08007bce   Section       48  microsoftyaheiascii24.o(.constdata)
    .constdata                               0x08007bfe   Section       48  microsoftyaheiascii24.o(.constdata)
    .constdata                               0x08007c2e   Section       24  microsoftyaheiascii24.o(.constdata)
    .constdata                               0x08007c46   Section       24  microsoftyaheiascii24.o(.constdata)
    .constdata                               0x08007c5e   Section       24  microsoftyaheiascii24.o(.constdata)
    .constdata                               0x08007c76   Section       48  microsoftyaheiascii24.o(.constdata)
    .constdata                               0x08007ca6   Section       48  microsoftyaheiascii24.o(.constdata)
    .constdata                               0x08007cd6   Section       48  microsoftyaheiascii24.o(.constdata)
    .constdata                               0x08007d06   Section       48  microsoftyaheiascii24.o(.constdata)
    .constdata                               0x08007d36   Section       48  microsoftyaheiascii24.o(.constdata)
    .constdata                               0x08007d66   Section       48  microsoftyaheiascii24.o(.constdata)
    .constdata                               0x08007d96   Section       24  microsoftyaheiascii24.o(.constdata)
    .constdata                               0x08007dae   Section       24  microsoftyaheiascii24.o(.constdata)
    .constdata                               0x08007dc6   Section       24  microsoftyaheiascii24.o(.constdata)
    .constdata                               0x08007dde   Section       48  microsoftyaheiascii24.o(.constdata)
    .constdata                               0x08007e0e   Section       24  microsoftyaheiascii24.o(.constdata)
    .constdata                               0x08007e26   Section       24  microsoftyaheiascii24.o(.constdata)
    .constdata                               0x08007e3e   Section       24  microsoftyaheiascii24.o(.constdata)
    .constdata                               0x08007e56   Section       48  microsoftyaheiascii24.o(.constdata)
    .constdata                               0x08007e86   Section       48  microsoftyaheiascii24.o(.constdata)
    .constdata                               0x08007eb6   Section       48  microsoftyaheiascii24.o(.constdata)
    .constdata                               0x08007ee6   Section       48  microsoftyaheiascii24.o(.constdata)
    .constdata                               0x08007f16   Section       24  microsoftyaheiascii24.o(.constdata)
    .constdata                               0x08007f2e   Section       48  microsoftyaheiascii24.o(.constdata)
    .constdata                               0x08007f5e   Section       24  microsoftyaheiascii24.o(.constdata)
    .constdata                               0x08007f76   Section       72  microsoftyaheiascii24.o(.constdata)
    .constdata                               0x08007fbe   Section       24  microsoftyaheiascii24.o(.constdata)
    .constdata                               0x08007fd6   Section       48  microsoftyaheiascii24.o(.constdata)
    .constdata                               0x08008006   Section       48  microsoftyaheiascii24.o(.constdata)
    .constdata                               0x08008036   Section       24  microsoftyaheiascii24.o(.constdata)
    .constdata                               0x0800804e   Section       72  microsoftyaheiascii24.o(.constdata)
    .constdata                               0x08008096   Section       24  microsoftyaheiascii24.o(.constdata)
    .constdata                               0x080080ae   Section       24  microsoftyaheiascii24.o(.constdata)
    .constdata                               0x080080c6   Section       48  microsoftyaheiascii24.o(.constdata)
    .constdata                               0x080080f6   Section       24  microsoftyaheiascii24.o(.constdata)
    .constdata                               0x0800810e   Section       24  microsoftyaheiascii24.o(.constdata)
    .constdata                               0x08008126   Section       24  microsoftyaheiascii24.o(.constdata)
    .constdata                               0x0800813e   Section       48  microsoftyaheiascii24.o(.constdata)
    .constdata                               0x0800816e   Section       48  microsoftyaheiascii24.o(.constdata)
    .constdata                               0x0800819e   Section       24  microsoftyaheiascii24.o(.constdata)
    .constdata                               0x080081b6   Section       24  microsoftyaheiascii24.o(.constdata)
    .constdata                               0x080081ce   Section       24  microsoftyaheiascii24.o(.constdata)
    .constdata                               0x080081e6   Section       24  microsoftyaheiascii24.o(.constdata)
    .constdata                               0x080081fe   Section       48  microsoftyaheiascii24.o(.constdata)
    .constdata                               0x0800822e   Section       72  microsoftyaheiascii24.o(.constdata)
    .constdata                               0x08008276   Section       72  microsoftyaheiascii24.o(.constdata)
    .constdata                               0x080082be   Section       72  microsoftyaheiascii24.o(.constdata)
    .constdata                               0x08008306   Section       48  microsoftyaheiascii24.o(.constdata)
    .constdata                               0x08008336   Section       48  microsoftyaheiascii24.o(.constdata)
    .constdata                               0x08008366   Section       48  microsoftyaheiascii24.o(.constdata)
    .constdata                               0x08008396   Section       48  microsoftyaheiascii24.o(.constdata)
    .constdata                               0x080083c6   Section       48  microsoftyaheiascii24.o(.constdata)
    .constdata                               0x080083f6   Section       48  microsoftyaheiascii24.o(.constdata)
    .constdata                               0x08008426   Section       48  microsoftyaheiascii24.o(.constdata)
    .constdata                               0x08008456   Section       72  microsoftyaheiascii24.o(.constdata)
    .constdata                               0x0800849e   Section       48  microsoftyaheiascii24.o(.constdata)
    .constdata                               0x080084ce   Section       48  microsoftyaheiascii24.o(.constdata)
    .constdata                               0x080084fe   Section       48  microsoftyaheiascii24.o(.constdata)
    .constdata                               0x0800852e   Section       48  microsoftyaheiascii24.o(.constdata)
    .constdata                               0x0800855e   Section       48  microsoftyaheiascii24.o(.constdata)
    .constdata                               0x0800858e   Section       24  microsoftyaheiascii24.o(.constdata)
    .constdata                               0x080085a6   Section       24  microsoftyaheiascii24.o(.constdata)
    .constdata                               0x080085be   Section       24  microsoftyaheiascii24.o(.constdata)
    .constdata                               0x080085d6   Section       24  microsoftyaheiascii24.o(.constdata)
    .constdata                               0x080085ee   Section       48  microsoftyaheiascii24.o(.constdata)
    .constdata                               0x0800861e   Section       48  microsoftyaheiascii24.o(.constdata)
    .constdata                               0x0800864e   Section       48  microsoftyaheiascii24.o(.constdata)
    .constdata                               0x0800867e   Section       48  microsoftyaheiascii24.o(.constdata)
    .constdata                               0x080086ae   Section       48  microsoftyaheiascii24.o(.constdata)
    .constdata                               0x080086de   Section       48  microsoftyaheiascii24.o(.constdata)
    .constdata                               0x0800870e   Section       48  microsoftyaheiascii24.o(.constdata)
    .constdata                               0x0800873e   Section       48  microsoftyaheiascii24.o(.constdata)
    .constdata                               0x0800876e   Section       48  microsoftyaheiascii24.o(.constdata)
    .constdata                               0x0800879e   Section       48  microsoftyaheiascii24.o(.constdata)
    .constdata                               0x080087ce   Section       48  microsoftyaheiascii24.o(.constdata)
    .constdata                               0x080087fe   Section       48  microsoftyaheiascii24.o(.constdata)
    .constdata                               0x0800882e   Section       48  microsoftyaheiascii24.o(.constdata)
    .constdata                               0x0800885e   Section       48  microsoftyaheiascii24.o(.constdata)
    .constdata                               0x0800888e   Section       48  microsoftyaheiascii24.o(.constdata)
    .constdata                               0x080088be   Section       48  microsoftyaheiascii24.o(.constdata)
    .constdata                               0x080088ee   Section       48  microsoftyaheiascii24.o(.constdata)
    .constdata                               0x0800891e   Section       48  microsoftyaheiascii24.o(.constdata)
    .constdata                               0x0800894e   Section       48  microsoftyaheiascii24.o(.constdata)
    .constdata                               0x0800897e   Section       48  microsoftyaheiascii24.o(.constdata)
    .constdata                               0x080089ae   Section       48  microsoftyaheiascii24.o(.constdata)
    .constdata                               0x080089de   Section       48  microsoftyaheiascii24.o(.constdata)
    .constdata                               0x08008a0e   Section       48  microsoftyaheiascii24.o(.constdata)
    .constdata                               0x08008a3e   Section       48  microsoftyaheiascii24.o(.constdata)
    .constdata                               0x08008a6e   Section       48  microsoftyaheiascii24.o(.constdata)
    .constdata                               0x08008a9e   Section       48  microsoftyaheiascii24.o(.constdata)
    .constdata                               0x08008ace   Section       48  microsoftyaheiascii24.o(.constdata)
    .constdata                               0x08008afe   Section       48  microsoftyaheiascii24.o(.constdata)
    .constdata                               0x08008b2e   Section       24  microsoftyaheiascii24.o(.constdata)
    .constdata                               0x08008b46   Section       24  microsoftyaheiascii24.o(.constdata)
    .constdata                               0x08008b5e   Section       24  microsoftyaheiascii24.o(.constdata)
    .constdata                               0x08008b76   Section       24  microsoftyaheiascii24.o(.constdata)
    .constdata                               0x08008b8e   Section       48  microsoftyaheiascii24.o(.constdata)
    .constdata                               0x08008bbe   Section       48  microsoftyaheiascii24.o(.constdata)
    .constdata                               0x08008bee   Section       48  microsoftyaheiascii24.o(.constdata)
    .constdata                               0x08008c1e   Section       48  microsoftyaheiascii24.o(.constdata)
    .constdata                               0x08008c4e   Section       48  microsoftyaheiascii24.o(.constdata)
    .constdata                               0x08008c7e   Section       48  microsoftyaheiascii24.o(.constdata)
    .constdata                               0x08008cae   Section       48  microsoftyaheiascii24.o(.constdata)
    .constdata                               0x08008cde   Section       48  microsoftyaheiascii24.o(.constdata)
    .constdata                               0x08008d0e   Section       48  microsoftyaheiascii24.o(.constdata)
    .constdata                               0x08008d3e   Section       48  microsoftyaheiascii24.o(.constdata)
    .constdata                               0x08008d6e   Section       48  microsoftyaheiascii24.o(.constdata)
    .constdata                               0x08008d9e   Section       48  microsoftyaheiascii24.o(.constdata)
    .constdata                               0x08008dce   Section       48  microsoftyaheiascii24.o(.constdata)
    .constdata                               0x08008dfe   Section       48  microsoftyaheiascii24.o(.constdata)
    .constdata                               0x08008e2e   Section       48  microsoftyaheiascii24.o(.constdata)
    .constdata                               0x08008e5e   Section       48  microsoftyaheiascii24.o(.constdata)
    .constdata                               0x08008e8e   Section       48  microsoftyaheiascii24.o(.constdata)
    .constdata                               0x08008ebe   Section       48  microsoftyaheiascii24.o(.constdata)
    .constdata                               0x08008eee   Section       48  microsoftyaheiascii24.o(.constdata)
    .constdata                               0x08008f1e   Section       48  microsoftyaheiascii24.o(.constdata)
    .constdata                               0x08008f4e   Section       48  microsoftyaheiascii24.o(.constdata)
    .constdata                               0x08008f7e   Section       48  microsoftyaheiascii24.o(.constdata)
    .constdata                               0x08008fae   Section       48  microsoftyaheiascii24.o(.constdata)
    .constdata                               0x08008fde   Section       48  microsoftyaheiascii24.o(.constdata)
    .constdata                               0x0800900e   Section       48  microsoftyaheiascii24.o(.constdata)
    .constdata                               0x0800903e   Section       48  microsoftyaheiascii24.o(.constdata)
    .constdata                               0x0800906e   Section       48  microsoftyaheiascii24.o(.constdata)
    .constdata                               0x0800909e   Section       48  microsoftyaheiascii24.o(.constdata)
    .constdata                               0x080090ce   Section       48  microsoftyaheiascii24.o(.constdata)
    .constdata                               0x080090fe   Section       48  microsoftyaheiascii24.o(.constdata)
    .constdata                               0x0800912e   Section       48  microsoftyaheiascii24.o(.constdata)
    .constdata                               0x0800915e   Section       48  microsoftyaheiascii24.o(.constdata)
    .constdata                               0x0800918e   Section       48  microsoftyaheiascii24.o(.constdata)
    .constdata                               0x080091be   Section       48  microsoftyaheiascii24.o(.constdata)
    .constdata                               0x080091ee   Section       48  microsoftyaheiascii24.o(.constdata)
    .constdata                               0x0800921e   Section       48  microsoftyaheiascii24.o(.constdata)
    .constdata                               0x0800924e   Section       48  microsoftyaheiascii24.o(.constdata)
    .constdata                               0x0800927e   Section       48  microsoftyaheiascii24.o(.constdata)
    .constdata                               0x080092ae   Section       48  microsoftyaheiascii24.o(.constdata)
    .constdata                               0x080092de   Section       48  microsoftyaheiascii24.o(.constdata)
    .constdata                               0x0800930e   Section       48  microsoftyaheiascii24.o(.constdata)
    .constdata                               0x0800933e   Section       48  microsoftyaheiascii24.o(.constdata)
    .constdata                               0x0800936e   Section       48  microsoftyaheiascii24.o(.constdata)
    .constdata                               0x0800939e   Section       48  microsoftyaheiascii24.o(.constdata)
    .constdata                               0x080093ce   Section       48  microsoftyaheiascii24.o(.constdata)
    .constdata                               0x080093fe   Section       48  microsoftyaheiascii24.o(.constdata)
    .constdata                               0x0800942e   Section       48  microsoftyaheiascii24.o(.constdata)
    .constdata                               0x0800945e   Section       48  microsoftyaheiascii24.o(.constdata)
    .constdata                               0x0800948e   Section       48  microsoftyaheiascii24.o(.constdata)
    .constdata                               0x080094be   Section       48  microsoftyaheiascii24.o(.constdata)
    .constdata                               0x080094ee   Section       48  microsoftyaheiascii24.o(.constdata)
    .constdata                               0x0800951e   Section       48  microsoftyaheiascii24.o(.constdata)
    .constdata                               0x0800954e   Section       48  microsoftyaheiascii24.o(.constdata)
    .constdata                               0x0800957e   Section       48  microsoftyaheiascii24.o(.constdata)
    .constdata                               0x080095ae   Section       48  microsoftyaheiascii24.o(.constdata)
    .constdata                               0x080095de   Section       48  microsoftyaheiascii24.o(.constdata)
    .constdata                               0x08009610   Section     1856  microsoftyaheiascii24.o(.constdata)
    .constdata                               0x08009d50   Section       12  microsoftyaheiascii24.o(.constdata)
    .constdata                               0x08009d5c   Section       12  microsoftyaheiascii24.o(.constdata)
    .constdata                               0x08009d68   Section       16  microsoftyaheiascii24.o(.constdata)
    .constdata                               0x08009d78   Section       72  songti24.o(.constdata)
    .constdata                               0x08009dc0   Section        8  songti24.o(.constdata)
    .constdata                               0x08009dc8   Section       12  songti24.o(.constdata)
    .constdata                               0x08009dd4   Section       16  songti24.o(.constdata)
    .constdata                               0x08009de4   Section        4  gui.o(.constdata)
    Array                                    0x08009de4   Data           4  gui.o(.constdata)
    .constdata                               0x08009de8   Section       20  sd_diskio.o(.constdata)
    .data                                    0x20000000   Section        5  fatfs.o(.data)
    .data                                    0x20000008   Section        8  fsmc.o(.data)
    FSMC_Initialized                         0x20000008   Data           4  fsmc.o(.data)
    FSMC_DeInitialized                       0x2000000c   Data           4  fsmc.o(.data)
    .data                                    0x20000010   Section       12  stm32f1xx_hal.o(.data)
    .data                                    0x2000001c   Section        4  system_stm32f1xx.o(.data)
    .data                                    0x20000020   Section        4  gui.o(.data)
    .data                                    0x20000024   Section        4  cuigui_bmp.o(.data)
    bmpdisk                                  0x20000024   Data           4  cuigui_bmp.o(.data)
    .data                                    0x20000028   Section        1  sd_diskio.o(.data)
    Stat                                     0x20000028   Data           1  sd_diskio.o(.data)
    .data                                    0x2000002c   Section        8  ff.o(.data)
    Fsid                                     0x2000002c   Data           2  ff.o(.data)
    FatFs                                    0x20000030   Data           4  ff.o(.data)
    .data                                    0x20000034   Section        4  stdout.o(.data)
    .bss                                     0x20000038   Section      560  fatfs.o(.bss)
    .bss                                     0x20000268   Section       68  fsmc.o(.bss)
    .bss                                     0x200002ac   Section      132  sdio.o(.bss)
    .bss                                     0x20000330   Section       64  usart.o(.bss)
    .bss                                     0x20000370   Section       16  list4_malloc.o(.bss)
    .bss                                     0x20000380   Section    56320  list4_malloc.o(.bss)
    .bss                                     0x2000df80   Section       14  lcd.o(.bss)
    .bss                                     0x2000df90   Section       24  ff.o(.bss)
    Files                                    0x2000df90   Data          24  ff.o(.bss)
    .bss                                     0x2000dfa8   Section       12  ff_gen_drv.o(.bss)
    STACK                                    0x2000dfb8   Section     1536  startup_stm32f103xe.o(STACK)

    Global Symbols

    Symbol Name                              Value     Ov Type        Size  Object(Section)

    BuildAttributes$$THM_ISAv4$P$D$K$B$S$PE$A:L22UL41UL21$X:L11$S22US41US21$IEEE1$IW$USESV6$~STKCKD$USESV7$~SHL$OTIME$ROPI$EBA8$MICROLIB$REQ8$PRES8$EABIv2 0x00000000   Number         0  anon$$obj.o ABSOLUTE
    __ARM_use_no_argv                        0x00000000   Number         0  main.o ABSOLUTE
    _printf_a                                0x00000000   Number         0  stubs.o ABSOLUTE
    _printf_c                                0x00000000   Number         0  stubs.o ABSOLUTE
    _printf_charcount                        0x00000000   Number         0  stubs.o ABSOLUTE
    _printf_d                                0x00000000   Number         0  stubs.o ABSOLUTE
    _printf_e                                0x00000000   Number         0  stubs.o ABSOLUTE
    _printf_f                                0x00000000   Number         0  stubs.o ABSOLUTE
    _printf_flags                            0x00000000   Number         0  stubs.o ABSOLUTE
    _printf_fp_dec                           0x00000000   Number         0  stubs.o ABSOLUTE
    _printf_fp_hex                           0x00000000   Number         0  stubs.o ABSOLUTE
    _printf_g                                0x00000000   Number         0  stubs.o ABSOLUTE
    _printf_i                                0x00000000   Number         0  stubs.o ABSOLUTE
    _printf_int_dec                          0x00000000   Number         0  stubs.o ABSOLUTE
    _printf_l                                0x00000000   Number         0  stubs.o ABSOLUTE
    _printf_lc                               0x00000000   Number         0  stubs.o ABSOLUTE
    _printf_ll                               0x00000000   Number         0  stubs.o ABSOLUTE
    _printf_lld                              0x00000000   Number         0  stubs.o ABSOLUTE
    _printf_lli                              0x00000000   Number         0  stubs.o ABSOLUTE
    _printf_llo                              0x00000000   Number         0  stubs.o ABSOLUTE
    _printf_llu                              0x00000000   Number         0  stubs.o ABSOLUTE
    _printf_llx                              0x00000000   Number         0  stubs.o ABSOLUTE
    _printf_longlong_dec                     0x00000000   Number         0  stubs.o ABSOLUTE
    _printf_longlong_hex                     0x00000000   Number         0  stubs.o ABSOLUTE
    _printf_longlong_oct                     0x00000000   Number         0  stubs.o ABSOLUTE
    _printf_ls                               0x00000000   Number         0  stubs.o ABSOLUTE
    _printf_mbtowc                           0x00000000   Number         0  stubs.o ABSOLUTE
    _printf_n                                0x00000000   Number         0  stubs.o ABSOLUTE
    _printf_o                                0x00000000   Number         0  stubs.o ABSOLUTE
    _printf_p                                0x00000000   Number         0  stubs.o ABSOLUTE
    _printf_percent                          0x00000000   Number         0  stubs.o ABSOLUTE
    _printf_pre_padding                      0x00000000   Number         0  stubs.o ABSOLUTE
    _printf_return_value                     0x00000000   Number         0  stubs.o ABSOLUTE
    _printf_s                                0x00000000   Number         0  stubs.o ABSOLUTE
    _printf_sizespec                         0x00000000   Number         0  stubs.o ABSOLUTE
    _printf_str                              0x00000000   Number         0  stubs.o ABSOLUTE
    _printf_truncate_signed                  0x00000000   Number         0  stubs.o ABSOLUTE
    _printf_truncate_unsigned                0x00000000   Number         0  stubs.o ABSOLUTE
    _printf_u                                0x00000000   Number         0  stubs.o ABSOLUTE
    _printf_wc                               0x00000000   Number         0  stubs.o ABSOLUTE
    _printf_wctomb                           0x00000000   Number         0  stubs.o ABSOLUTE
    _printf_widthprec                        0x00000000   Number         0  stubs.o ABSOLUTE
    _printf_x                                0x00000000   Number         0  stubs.o ABSOLUTE
    __cpp_initialize__aeabi_                  - Undefined Weak Reference
    __cxa_finalize                            - Undefined Weak Reference
    __decompress                              - Undefined Weak Reference
    _clock_init                               - Undefined Weak Reference
    _microlib_exit                            - Undefined Weak Reference
    __Vectors_Size                           0x00000130   Number         0  startup_stm32f103xe.o ABSOLUTE
    __Vectors                                0x08000000   Data           4  startup_stm32f103xe.o(RESET)
    __Vectors_End                            0x08000130   Data           0  startup_stm32f103xe.o(RESET)
    __main                                   0x08000131   Thumb Code     0  entry.o(.ARM.Collect$$$$00000000)
    _main_stk                                0x08000131   Thumb Code     0  entry2.o(.ARM.Collect$$$$00000001)
    _main_scatterload                        0x08000135   Thumb Code     0  entry5.o(.ARM.Collect$$$$00000004)
    __main_after_scatterload                 0x08000139   Thumb Code     0  entry5.o(.ARM.Collect$$$$00000004)
    _main_clock                              0x08000139   Thumb Code     0  entry7b.o(.ARM.Collect$$$$00000008)
    _main_cpp_init                           0x08000139   Thumb Code     0  entry8b.o(.ARM.Collect$$$$0000000A)
    _main_init                               0x08000139   Thumb Code     0  entry9a.o(.ARM.Collect$$$$0000000B)
    __rt_final_cpp                           0x08000141   Thumb Code     0  entry10a.o(.ARM.Collect$$$$0000000D)
    __rt_final_exit                          0x08000141   Thumb Code     0  entry11a.o(.ARM.Collect$$$$0000000F)
    Reset_Handler                            0x08000145   Thumb Code     8  startup_stm32f103xe.o(.text)
    ADC1_2_IRQHandler                        0x0800015f   Thumb Code     0  startup_stm32f103xe.o(.text)
    ADC3_IRQHandler                          0x0800015f   Thumb Code     0  startup_stm32f103xe.o(.text)
    CAN1_RX1_IRQHandler                      0x0800015f   Thumb Code     0  startup_stm32f103xe.o(.text)
    CAN1_SCE_IRQHandler                      0x0800015f   Thumb Code     0  startup_stm32f103xe.o(.text)
    DMA1_Channel1_IRQHandler                 0x0800015f   Thumb Code     0  startup_stm32f103xe.o(.text)
    DMA1_Channel2_IRQHandler                 0x0800015f   Thumb Code     0  startup_stm32f103xe.o(.text)
    DMA1_Channel3_IRQHandler                 0x0800015f   Thumb Code     0  startup_stm32f103xe.o(.text)
    DMA1_Channel4_IRQHandler                 0x0800015f   Thumb Code     0  startup_stm32f103xe.o(.text)
    DMA1_Channel5_IRQHandler                 0x0800015f   Thumb Code     0  startup_stm32f103xe.o(.text)
    DMA1_Channel6_IRQHandler                 0x0800015f   Thumb Code     0  startup_stm32f103xe.o(.text)
    DMA1_Channel7_IRQHandler                 0x0800015f   Thumb Code     0  startup_stm32f103xe.o(.text)
    DMA2_Channel1_IRQHandler                 0x0800015f   Thumb Code     0  startup_stm32f103xe.o(.text)
    DMA2_Channel2_IRQHandler                 0x0800015f   Thumb Code     0  startup_stm32f103xe.o(.text)
    DMA2_Channel3_IRQHandler                 0x0800015f   Thumb Code     0  startup_stm32f103xe.o(.text)
    DMA2_Channel4_5_IRQHandler               0x0800015f   Thumb Code     0  startup_stm32f103xe.o(.text)
    EXTI0_IRQHandler                         0x0800015f   Thumb Code     0  startup_stm32f103xe.o(.text)
    EXTI15_10_IRQHandler                     0x0800015f   Thumb Code     0  startup_stm32f103xe.o(.text)
    EXTI1_IRQHandler                         0x0800015f   Thumb Code     0  startup_stm32f103xe.o(.text)
    EXTI2_IRQHandler                         0x0800015f   Thumb Code     0  startup_stm32f103xe.o(.text)
    EXTI3_IRQHandler                         0x0800015f   Thumb Code     0  startup_stm32f103xe.o(.text)
    EXTI4_IRQHandler                         0x0800015f   Thumb Code     0  startup_stm32f103xe.o(.text)
    EXTI9_5_IRQHandler                       0x0800015f   Thumb Code     0  startup_stm32f103xe.o(.text)
    FLASH_IRQHandler                         0x0800015f   Thumb Code     0  startup_stm32f103xe.o(.text)
    FSMC_IRQHandler                          0x0800015f   Thumb Code     0  startup_stm32f103xe.o(.text)
    I2C1_ER_IRQHandler                       0x0800015f   Thumb Code     0  startup_stm32f103xe.o(.text)
    I2C1_EV_IRQHandler                       0x0800015f   Thumb Code     0  startup_stm32f103xe.o(.text)
    I2C2_ER_IRQHandler                       0x0800015f   Thumb Code     0  startup_stm32f103xe.o(.text)
    I2C2_EV_IRQHandler                       0x0800015f   Thumb Code     0  startup_stm32f103xe.o(.text)
    PVD_IRQHandler                           0x0800015f   Thumb Code     0  startup_stm32f103xe.o(.text)
    RCC_IRQHandler                           0x0800015f   Thumb Code     0  startup_stm32f103xe.o(.text)
    RTC_Alarm_IRQHandler                     0x0800015f   Thumb Code     0  startup_stm32f103xe.o(.text)
    RTC_IRQHandler                           0x0800015f   Thumb Code     0  startup_stm32f103xe.o(.text)
    SDIO_IRQHandler                          0x0800015f   Thumb Code     0  startup_stm32f103xe.o(.text)
    SPI1_IRQHandler                          0x0800015f   Thumb Code     0  startup_stm32f103xe.o(.text)
    SPI2_IRQHandler                          0x0800015f   Thumb Code     0  startup_stm32f103xe.o(.text)
    SPI3_IRQHandler                          0x0800015f   Thumb Code     0  startup_stm32f103xe.o(.text)
    TAMPER_IRQHandler                        0x0800015f   Thumb Code     0  startup_stm32f103xe.o(.text)
    TIM1_BRK_IRQHandler                      0x0800015f   Thumb Code     0  startup_stm32f103xe.o(.text)
    TIM1_CC_IRQHandler                       0x0800015f   Thumb Code     0  startup_stm32f103xe.o(.text)
    TIM1_TRG_COM_IRQHandler                  0x0800015f   Thumb Code     0  startup_stm32f103xe.o(.text)
    TIM1_UP_IRQHandler                       0x0800015f   Thumb Code     0  startup_stm32f103xe.o(.text)
    TIM2_IRQHandler                          0x0800015f   Thumb Code     0  startup_stm32f103xe.o(.text)
    TIM3_IRQHandler                          0x0800015f   Thumb Code     0  startup_stm32f103xe.o(.text)
    TIM4_IRQHandler                          0x0800015f   Thumb Code     0  startup_stm32f103xe.o(.text)
    TIM5_IRQHandler                          0x0800015f   Thumb Code     0  startup_stm32f103xe.o(.text)
    TIM6_IRQHandler                          0x0800015f   Thumb Code     0  startup_stm32f103xe.o(.text)
    TIM7_IRQHandler                          0x0800015f   Thumb Code     0  startup_stm32f103xe.o(.text)
    TIM8_BRK_IRQHandler                      0x0800015f   Thumb Code     0  startup_stm32f103xe.o(.text)
    TIM8_CC_IRQHandler                       0x0800015f   Thumb Code     0  startup_stm32f103xe.o(.text)
    TIM8_TRG_COM_IRQHandler                  0x0800015f   Thumb Code     0  startup_stm32f103xe.o(.text)
    TIM8_UP_IRQHandler                       0x0800015f   Thumb Code     0  startup_stm32f103xe.o(.text)
    UART4_IRQHandler                         0x0800015f   Thumb Code     0  startup_stm32f103xe.o(.text)
    UART5_IRQHandler                         0x0800015f   Thumb Code     0  startup_stm32f103xe.o(.text)
    USART1_IRQHandler                        0x0800015f   Thumb Code     0  startup_stm32f103xe.o(.text)
    USART2_IRQHandler                        0x0800015f   Thumb Code     0  startup_stm32f103xe.o(.text)
    USART3_IRQHandler                        0x0800015f   Thumb Code     0  startup_stm32f103xe.o(.text)
    USBWakeUp_IRQHandler                     0x0800015f   Thumb Code     0  startup_stm32f103xe.o(.text)
    USB_HP_CAN1_TX_IRQHandler                0x0800015f   Thumb Code     0  startup_stm32f103xe.o(.text)
    USB_LP_CAN1_RX0_IRQHandler               0x0800015f   Thumb Code     0  startup_stm32f103xe.o(.text)
    WWDG_IRQHandler                          0x0800015f   Thumb Code     0  startup_stm32f103xe.o(.text)
    __aeabi_llsr                             0x08000169   Thumb Code    32  llushr.o(.text)
    _ll_ushift_r                             0x08000169   Thumb Code     0  llushr.o(.text)
    __aeabi_memset                           0x08000189   Thumb Code    14  memseta.o(.text)
    __aeabi_memset4                          0x08000189   Thumb Code     0  memseta.o(.text)
    __aeabi_memset8                          0x08000189   Thumb Code     0  memseta.o(.text)
    __aeabi_memclr                           0x08000197   Thumb Code     4  memseta.o(.text)
    __aeabi_memclr4                          0x08000197   Thumb Code     0  memseta.o(.text)
    __aeabi_memclr8                          0x08000197   Thumb Code     0  memseta.o(.text)
    _memset$wrapper                          0x0800019b   Thumb Code    18  memseta.o(.text)
    __aeabi_dmul                             0x080001ad   Thumb Code   228  dmul.o(.text)
    __aeabi_ui2d                             0x08000291   Thumb Code    26  dfltui.o(.text)
    __aeabi_d2uiz                            0x080002ab   Thumb Code    50  dfixui.o(.text)
    __aeabi_uldivmod                         0x080002dd   Thumb Code    98  uldiv.o(.text)
    __aeabi_llsl                             0x0800033f   Thumb Code    30  llshl.o(.text)
    _ll_shift_l                              0x0800033f   Thumb Code     0  llshl.o(.text)
    __I$use$fp                               0x0800035d   Thumb Code     0  iusefp.o(.text)
    _double_round                            0x0800035d   Thumb Code    30  depilogue.o(.text)
    _double_epilogue                         0x0800037b   Thumb Code   156  depilogue.o(.text)
    __scatterload                            0x08000419   Thumb Code    28  init.o(.text)
    __scatterload_rt2                        0x08000419   Thumb Code     0  init.o(.text)
    BSP_SD_GetCardInfo                       0x0800043d   Thumb Code     8  bsp_driver_sd.o(i.BSP_SD_GetCardInfo)
    BSP_SD_GetCardState                      0x08000449   Thumb Code    20  bsp_driver_sd.o(i.BSP_SD_GetCardState)
    BSP_SD_Init                              0x08000461   Thumb Code    48  bsp_driver_sd.o(i.BSP_SD_Init)
    BSP_SD_ReadBlocks                        0x08000495   Thumb Code    26  bsp_driver_sd.o(i.BSP_SD_ReadBlocks)
    BSP_SD_WriteBlocks                       0x080004b5   Thumb Code    26  bsp_driver_sd.o(i.BSP_SD_WriteBlocks)
    BtSkin                                   0x080004d5   Thumb Code    14  cuigui_button.o(i.BtSkin)
    BtText                                   0x080004e3   Thumb Code    84  cuigui_button.o(i.BtText)
    BusFault_Handler                         0x08000539   Thumb Code     8  stm32f1xx_it.o(i.BusFault_Handler)
    CUIGUI_BMP_Init                          0x08000555   Thumb Code    14  cuigui_bmp.o(i.CUIGUI_BMP_Init)
    CUIGUI_Color                             0x0800056d   Thumb Code    16  cuigui_color.o(i.CUIGUI_Color)
    CUIGUI_DrawEdit                          0x0800057d   Thumb Code    18  cuigui_edit.o(i.CUIGUI_DrawEdit)
    CUIGUI_DrawHLine                         0x08000591   Thumb Code    32  cuigui_lcddriver.o(i.CUIGUI_DrawHLine)
    CUIGUI_DrawPoint                         0x080005b5   Thumb Code     4  cuigui_lcddriver.o(i.CUIGUI_DrawPoint)
    CUIGUI_DrawStr                           0x080005b9   Thumb Code    52  gui.o(i.CUIGUI_DrawStr)
    CUIGUI_DrawVLine                         0x080005ed   Thumb Code    36  cuigui_lcddriver.o(i.CUIGUI_DrawVLine)
    CUIGUI_DrawWord                          0x08000611   Thumb Code    92  gui.o(i.CUIGUI_DrawWord)
    CUIGUI_FillRect                          0x08000671   Thumb Code    68  cuigui_lcddriver.o(i.CUIGUI_FillRect)
    CUIGUI_GetFont                           0x080006b9   Thumb Code     6  gui.o(i.CUIGUI_GetFont)
    CUIGUI_Init                              0x080006c5   Thumb Code    18  cuigui_lcddriver.o(i.CUIGUI_Init)
    CUIGUI_SetFont                           0x080006d9   Thumb Code     6  gui.o(i.CUIGUI_SetFont)
    DebugMon_Handler                         0x080006e5   Thumb Code     2  stm32f1xx_it.o(i.DebugMon_Handler)
    DefaultDrawButton                        0x080006e7   Thumb Code    18  cuigui_button.o(i.DefaultDrawButton)
    DefaultDrawGroupBox                      0x080006f9   Thumb Code   160  cuigui_groupbox.o(i.DefaultDrawGroupBox)
    EDIT_SetFont                             0x08000799   Thumb Code     8  cuigui_edit.o(i.EDIT_SetFont)
    EDIT_SetText                             0x080007a1   Thumb Code    26  cuigui_edit.o(i.EDIT_SetText)
    EDIT_SetTextAlign                        0x080007bb   Thumb Code     4  cuigui_edit.o(i.EDIT_SetTextAlign)
    EditShowTXT                              0x080007bf   Thumb Code   148  cuigui_edit.o(i.EditShowTXT)
    EditSkin                                 0x08000853   Thumb Code   300  cuigui_edit.o(i.EditSkin)
    FATFS_LinkDriver                         0x0800097f   Thumb Code     6  ff_gen_drv.o(i.FATFS_LinkDriver)
    FATFS_LinkDriverEx                       0x08000985   Thumb Code    60  ff_gen_drv.o(i.FATFS_LinkDriverEx)
    FSMC_NORSRAM_Extended_Timing_Init        0x080009c5   Thumb Code    56  stm32f1xx_ll_fsmc.o(i.FSMC_NORSRAM_Extended_Timing_Init)
    FSMC_NORSRAM_Init                        0x08000a01   Thumb Code   148  stm32f1xx_ll_fsmc.o(i.FSMC_NORSRAM_Init)
    FSMC_NORSRAM_Timing_Init                 0x08000a99   Thumb Code    64  stm32f1xx_ll_fsmc.o(i.FSMC_NORSRAM_Timing_Init)
    GBK2UNICODE                              0x08000add   Thumb Code    40  gui.o(i.GBK2UNICODE)
    GetHeightFont                            0x08000b09   Thumb Code     4  gui.o(i.GetHeightFont)
    GetLengthStr                             0x08000b0d   Thumb Code    40  gui.o(i.GetLengthStr)
    GetUnicode                               0x08000b35   Thumb Code     4  gui.o(i.GetUnicode)
    GetWordWidth                             0x08000b39   Thumb Code    60  gui.o(i.GetWordWidth)
    GetXORColor                              0x08000b79   Thumb Code     8  cuigui_lcddriver.o(i.GetXORColor)
    HAL_Delay                                0x08000b81   Thumb Code    32  stm32f1xx_hal.o(i.HAL_Delay)
    HAL_GPIO_Init                            0x08000c19   Thumb Code   446  stm32f1xx_hal_gpio.o(i.HAL_GPIO_Init)
    HAL_GPIO_WritePin                        0x08000e01   Thumb Code    10  stm32f1xx_hal_gpio.o(i.HAL_GPIO_WritePin)
    HAL_GetTick                              0x08000e0d   Thumb Code     6  stm32f1xx_hal.o(i.HAL_GetTick)
    HAL_IncTick                              0x08000e19   Thumb Code    12  stm32f1xx_hal.o(i.HAL_IncTick)
    HAL_Init                                 0x08000e29   Thumb Code    32  stm32f1xx_hal.o(i.HAL_Init)
    HAL_InitTick                             0x08000e4d   Thumb Code    54  stm32f1xx_hal.o(i.HAL_InitTick)
    HAL_MspInit                              0x08000e8d   Thumb Code   134  stm32f1xx_hal_msp.o(i.HAL_MspInit)
    HAL_NVIC_SetPriority                     0x08000f1d   Thumb Code    60  stm32f1xx_hal_cortex.o(i.HAL_NVIC_SetPriority)
    HAL_NVIC_SetPriorityGrouping             0x08000f5d   Thumb Code    26  stm32f1xx_hal_cortex.o(i.HAL_NVIC_SetPriorityGrouping)
    HAL_RCC_ClockConfig                      0x08000f81   Thumb Code   322  stm32f1xx_hal_rcc.o(i.HAL_RCC_ClockConfig)
    HAL_RCC_GetHCLKFreq                      0x080010d5   Thumb Code     6  stm32f1xx_hal_rcc.o(i.HAL_RCC_GetHCLKFreq)
    HAL_RCC_GetPCLK1Freq                     0x080010e1   Thumb Code    20  stm32f1xx_hal_rcc.o(i.HAL_RCC_GetPCLK1Freq)
    HAL_RCC_GetPCLK2Freq                     0x08001101   Thumb Code    20  stm32f1xx_hal_rcc.o(i.HAL_RCC_GetPCLK2Freq)
    HAL_RCC_GetSysClockFreq                  0x08001121   Thumb Code    74  stm32f1xx_hal_rcc.o(i.HAL_RCC_GetSysClockFreq)
    HAL_RCC_OscConfig                        0x0800118d   Thumb Code   750  stm32f1xx_hal_rcc.o(i.HAL_RCC_OscConfig)
    HAL_SD_ConfigWideBusOperation            0x08001491   Thumb Code   120  stm32f1xx_hal_sd.o(i.HAL_SD_ConfigWideBusOperation)
    HAL_SD_GetCardCID                        0x08001509   Thumb Code   178  stm32f1xx_hal_sd.o(i.HAL_SD_GetCardCID)
    HAL_SD_GetCardCSD                        0x080015bb   Thumb Code   474  stm32f1xx_hal_sd.o(i.HAL_SD_GetCardCSD)
    HAL_SD_GetCardInfo                       0x08001795   Thumb Code    36  stm32f1xx_hal_sd.o(i.HAL_SD_GetCardInfo)
    HAL_SD_GetCardState                      0x080017b9   Thumb Code    44  stm32f1xx_hal_sd.o(i.HAL_SD_GetCardState)
    HAL_SD_Init                              0x080017e5   Thumb Code    54  stm32f1xx_hal_sd.o(i.HAL_SD_Init)
    HAL_SD_InitCard                          0x0800181d   Thumb Code    80  stm32f1xx_hal_sd.o(i.HAL_SD_InitCard)
    HAL_SD_MspInit                           0x08001871   Thumb Code    72  sdio.o(i.HAL_SD_MspInit)
    HAL_SD_ReadBlocks                        0x080018c9   Thumb Code   434  stm32f1xx_hal_sd.o(i.HAL_SD_ReadBlocks)
    HAL_SD_WriteBlocks                       0x08001a7d   Thumb Code   410  stm32f1xx_hal_sd.o(i.HAL_SD_WriteBlocks)
    HAL_SRAM_Init                            0x08001c17   Thumb Code    86  stm32f1xx_hal_sram.o(i.HAL_SRAM_Init)
    HAL_SRAM_MspInit                         0x08001c6d   Thumb Code     4  fsmc.o(i.HAL_SRAM_MspInit)
    HAL_SYSTICK_CLKSourceConfig              0x08001c71   Thumb Code    24  stm32f1xx_hal_cortex.o(i.HAL_SYSTICK_CLKSourceConfig)
    HAL_SYSTICK_Callback                     0x08001c89   Thumb Code     2  stm32f1xx_hal_cortex.o(i.HAL_SYSTICK_Callback)
    HAL_SYSTICK_Config                       0x08001c8b   Thumb Code    40  stm32f1xx_hal_cortex.o(i.HAL_SYSTICK_Config)
    HAL_SYSTICK_IRQHandler                   0x08001cb3   Thumb Code     8  stm32f1xx_hal_cortex.o(i.HAL_SYSTICK_IRQHandler)
    HAL_UART_Init                            0x08001cbb   Thumb Code    98  stm32f1xx_hal_uart.o(i.HAL_UART_Init)
    HAL_UART_MspInit                         0x08001d1d   Thumb Code    76  usart.o(i.HAL_UART_MspInit)
    HAL_UART_Transmit                        0x08001d75   Thumb Code   186  stm32f1xx_hal_uart.o(i.HAL_UART_Transmit)
    HardFault_Handler                        0x08001e31   Thumb Code     8  stm32f1xx_it.o(i.HardFault_Handler)
    LCD_Clear                                0x08001e4d   Thumb Code    98  lcd.o(i.LCD_Clear)
    LCD_Display_Dir                          0x08001eb9   Thumb Code   304  lcd.o(i.LCD_Display_Dir)
    LCD_Fast_DrawPoint                       0x08001fed   Thumb Code   262  lcd.o(i.LCD_Fast_DrawPoint)
    LCD_Init                                 0x080020fd   Thumb Code 11520  lcd.o(i.LCD_Init)
    LCD_ReadReg                              0x08004e01   Thumb Code    10  lcd.o(i.LCD_ReadReg)
    LCD_SSD_BackLightSet                     0x08004e11   Thumb Code    50  lcd.o(i.LCD_SSD_BackLightSet)
    LCD_Scan_Dir                             0x08004e4d   Thumb Code   414  lcd.o(i.LCD_Scan_Dir)
    LCD_SetCursor                            0x08004ff5   Thumb Code   310  lcd.o(i.LCD_SetCursor)
    LCD_WriteRAM_Prepare                     0x08005135   Thumb Code    10  lcd.o(i.LCD_WriteRAM_Prepare)
    LCD_WriteReg                             0x08005149   Thumb Code    10  lcd.o(i.LCD_WriteReg)
    List4_InsertBlock                        0x08005159   Thumb Code    84  list4_malloc.o(i.List4_InsertBlock)
    List4_Malloc                             0x080051ad   Thumb Code   122  list4_malloc.o(i.List4_Malloc)
    List4_Malloc_Init                        0x08005255   Thumb Code    52  list4_malloc.o(i.List4_Malloc_Init)
    MX_FATFS_Init                            0x080052e1   Thumb Code    18  fatfs.o(i.MX_FATFS_Init)
    MX_FSMC_Init                             0x080052fd   Thumb Code   122  fsmc.o(i.MX_FSMC_Init)
    MX_GPIO_Init                             0x08005395   Thumb Code   138  gpio.o(i.MX_GPIO_Init)
    MX_SDIO_SD_Init                          0x08005429   Thumb Code    24  sdio.o(i.MX_SDIO_SD_Init)
    MX_USART1_UART_Init                      0x08005449   Thumb Code    52  usart.o(i.MX_USART1_UART_Init)
    MemManage_Handler                        0x08005495   Thumb Code     8  stm32f1xx_it.o(i.MemManage_Handler)
    NMI_Handler                              0x080054b1   Thumb Code     2  stm32f1xx_it.o(i.NMI_Handler)
    NewButton                                0x080054d5   Thumb Code    58  cuigui_button.o(i.NewButton)
    NewEdit                                  0x08005519   Thumb Code    68  cuigui_edit.o(i.NewEdit)
    Obj_SkinPressed                          0x08005565   Thumb Code   310  cuigui_button.o(i.Obj_SkinPressed)
    Obj_SkinUnPressed                        0x0800569b   Thumb Code   310  cuigui_button.o(i.Obj_SkinUnPressed)
    PendSV_Handler                           0x080057d1   Thumb Code     2  stm32f1xx_it.o(i.PendSV_Handler)
    SDIO_ConfigData                          0x080057d3   Thumb Code    36  stm32f1xx_ll_sdmmc.o(i.SDIO_ConfigData)
    SDIO_GetPowerState                       0x080057f7   Thumb Code     8  stm32f1xx_ll_sdmmc.o(i.SDIO_GetPowerState)
    SDIO_GetResponse                         0x080057ff   Thumb Code    12  stm32f1xx_ll_sdmmc.o(i.SDIO_GetResponse)
    SDIO_Init                                0x0800580b   Thumb Code    36  stm32f1xx_ll_sdmmc.o(i.SDIO_Init)
    SDIO_PowerState_ON                       0x0800582f   Thumb Code     8  stm32f1xx_ll_sdmmc.o(i.SDIO_PowerState_ON)
    SDIO_ReadFIFO                            0x08005837   Thumb Code     6  stm32f1xx_ll_sdmmc.o(i.SDIO_ReadFIFO)
    SDIO_SendCommand                         0x0800583d   Thumb Code    32  stm32f1xx_ll_sdmmc.o(i.SDIO_SendCommand)
    SDIO_WriteFIFO                           0x0800585d   Thumb Code    10  stm32f1xx_ll_sdmmc.o(i.SDIO_WriteFIFO)
    SDMMC_CmdAppCommand                      0x08005867   Thumb Code    50  stm32f1xx_ll_sdmmc.o(i.SDMMC_CmdAppCommand)
    SDMMC_CmdAppOperCommand                  0x08005899   Thumb Code    48  stm32f1xx_ll_sdmmc.o(i.SDMMC_CmdAppOperCommand)
    SDMMC_CmdBlockLength                     0x080058cd   Thumb Code    50  stm32f1xx_ll_sdmmc.o(i.SDMMC_CmdBlockLength)
    SDMMC_CmdBusWidth                        0x080058ff   Thumb Code    50  stm32f1xx_ll_sdmmc.o(i.SDMMC_CmdBusWidth)
    SDMMC_CmdGoIdleState                     0x08005931   Thumb Code    76  stm32f1xx_ll_sdmmc.o(i.SDMMC_CmdGoIdleState)
    SDMMC_CmdOperCond                        0x08005981   Thumb Code    98  stm32f1xx_ll_sdmmc.o(i.SDMMC_CmdOperCond)
    SDMMC_CmdReadMultiBlock                  0x080059e9   Thumb Code    50  stm32f1xx_ll_sdmmc.o(i.SDMMC_CmdReadMultiBlock)
    SDMMC_CmdReadSingleBlock                 0x08005a1b   Thumb Code    50  stm32f1xx_ll_sdmmc.o(i.SDMMC_CmdReadSingleBlock)
    SDMMC_CmdSelDesel                        0x08005a4d   Thumb Code    50  stm32f1xx_ll_sdmmc.o(i.SDMMC_CmdSelDesel)
    SDMMC_CmdSendCID                         0x08005a7f   Thumb Code    44  stm32f1xx_ll_sdmmc.o(i.SDMMC_CmdSendCID)
    SDMMC_CmdSendCSD                         0x08005aab   Thumb Code    44  stm32f1xx_ll_sdmmc.o(i.SDMMC_CmdSendCSD)
    SDMMC_CmdSendSCR                         0x08005ad7   Thumb Code    48  stm32f1xx_ll_sdmmc.o(i.SDMMC_CmdSendSCR)
    SDMMC_CmdSendStatus                      0x08005b07   Thumb Code    50  stm32f1xx_ll_sdmmc.o(i.SDMMC_CmdSendStatus)
    SDMMC_CmdSetRelAdd                       0x08005b39   Thumb Code    48  stm32f1xx_ll_sdmmc.o(i.SDMMC_CmdSetRelAdd)
    SDMMC_CmdStopTransfer                    0x08005b69   Thumb Code    46  stm32f1xx_ll_sdmmc.o(i.SDMMC_CmdStopTransfer)
    SDMMC_CmdWriteMultiBlock                 0x08005b9d   Thumb Code    50  stm32f1xx_ll_sdmmc.o(i.SDMMC_CmdWriteMultiBlock)
    SDMMC_CmdWriteSingleBlock                0x08005bcf   Thumb Code    50  stm32f1xx_ll_sdmmc.o(i.SDMMC_CmdWriteSingleBlock)
    SD_initialize                            0x08006129   Thumb Code    26  sd_diskio.o(i.SD_initialize)
    SD_ioctl                                 0x08006149   Thumb Code    74  sd_diskio.o(i.SD_ioctl)
    SD_read                                  0x08006199   Thumb Code    52  sd_diskio.o(i.SD_read)
    SD_status                                0x080061d5   Thumb Code    26  sd_diskio.o(i.SD_status)
    SD_write                                 0x080061f5   Thumb Code    52  sd_diskio.o(i.SD_write)
    SVC_Handler                              0x08006231   Thumb Code     2  stm32f1xx_it.o(i.SVC_Handler)
    SysTick_Handler                          0x08006233   Thumb Code    14  stm32f1xx_it.o(i.SysTick_Handler)
    SystemClock_Config                       0x08006241   Thumb Code   112  main.o(i.SystemClock_Config)
    SystemInit                               0x080062c1   Thumb Code    56  system_stm32f1xx.o(i.SystemInit)
    UsageFault_Handler                       0x080064dd   Thumb Code     8  stm32f1xx_it.o(i.UsageFault_Handler)
    _Error_Handler                           0x080064fd   Thumb Code    10  main.o(i._Error_Handler)
    __0printf$5                              0x08006525   Thumb Code    22  printf5.o(i.__0printf$5)
    __1printf$5                              0x08006525   Thumb Code     0  printf5.o(i.__0printf$5)
    __2printf                                0x08006525   Thumb Code     0  printf5.o(i.__0printf$5)
    __scatterload_copy                       0x08006545   Thumb Code    14  handlers.o(i.__scatterload_copy)
    __scatterload_null                       0x08006553   Thumb Code     2  handlers.o(i.__scatterload_null)
    __scatterload_zeroinit                   0x08006555   Thumb Code    14  handlers.o(i.__scatterload_zeroinit)
    _draw_model                              0x08006563   Thumb Code   112  gui.o(i._draw_model)
    disk_initialize                          0x08006919   Thumb Code    36  diskio.o(i.disk_initialize)
    disk_read                                0x08006941   Thumb Code    24  diskio.o(i.disk_read)
    disk_status                              0x0800695d   Thumb Code    18  diskio.o(i.disk_status)
    disk_write                               0x08006975   Thumb Code    24  diskio.o(i.disk_write)
    f_mount                                  0x08006991   Thumb Code    88  ff.o(i.f_mount)
    fputc                                    0x08006c45   Thumb Code    20  usart.o(i.fputc)
    main                                     0x08006c99   Thumb Code   240  main.o(i.main)
    AHBPrescTable                            0x08006e96   Data          16  system_stm32f1xx.o(.constdata)
    APBPrescTable                            0x08006ea6   Data           8  system_stm32f1xx.o(.constdata)
    acGUI_FontMicrosoftYaHeiASCII24_0020     0x08006eae   Data          24  microsoftyaheiascii24.o(.constdata)
    acGUI_FontMicrosoftYaHeiASCII24_0021     0x08006ec6   Data          24  microsoftyaheiascii24.o(.constdata)
    acGUI_FontMicrosoftYaHeiASCII24_0022     0x08006ede   Data          24  microsoftyaheiascii24.o(.constdata)
    acGUI_FontMicrosoftYaHeiASCII24_0023     0x08006ef6   Data          48  microsoftyaheiascii24.o(.constdata)
    acGUI_FontMicrosoftYaHeiASCII24_0024     0x08006f26   Data          48  microsoftyaheiascii24.o(.constdata)
    acGUI_FontMicrosoftYaHeiASCII24_0025     0x08006f56   Data          48  microsoftyaheiascii24.o(.constdata)
    acGUI_FontMicrosoftYaHeiASCII24_0026     0x08006f86   Data          48  microsoftyaheiascii24.o(.constdata)
    acGUI_FontMicrosoftYaHeiASCII24_0027     0x08006fb6   Data          24  microsoftyaheiascii24.o(.constdata)
    acGUI_FontMicrosoftYaHeiASCII24_0028     0x08006fce   Data          24  microsoftyaheiascii24.o(.constdata)
    acGUI_FontMicrosoftYaHeiASCII24_0029     0x08006fe6   Data          24  microsoftyaheiascii24.o(.constdata)
    acGUI_FontMicrosoftYaHeiASCII24_002A     0x08006ffe   Data          24  microsoftyaheiascii24.o(.constdata)
    acGUI_FontMicrosoftYaHeiASCII24_002B     0x08007016   Data          48  microsoftyaheiascii24.o(.constdata)
    acGUI_FontMicrosoftYaHeiASCII24_002C     0x08007046   Data          24  microsoftyaheiascii24.o(.constdata)
    acGUI_FontMicrosoftYaHeiASCII24_002D     0x0800705e   Data          24  microsoftyaheiascii24.o(.constdata)
    acGUI_FontMicrosoftYaHeiASCII24_002E     0x08007076   Data          24  microsoftyaheiascii24.o(.constdata)
    acGUI_FontMicrosoftYaHeiASCII24_002F     0x0800708e   Data          24  microsoftyaheiascii24.o(.constdata)
    acGUI_FontMicrosoftYaHeiASCII24_0030     0x080070a6   Data          48  microsoftyaheiascii24.o(.constdata)
    acGUI_FontMicrosoftYaHeiASCII24_0031     0x080070d6   Data          48  microsoftyaheiascii24.o(.constdata)
    acGUI_FontMicrosoftYaHeiASCII24_0032     0x08007106   Data          48  microsoftyaheiascii24.o(.constdata)
    acGUI_FontMicrosoftYaHeiASCII24_0033     0x08007136   Data          48  microsoftyaheiascii24.o(.constdata)
    acGUI_FontMicrosoftYaHeiASCII24_0034     0x08007166   Data          48  microsoftyaheiascii24.o(.constdata)
    acGUI_FontMicrosoftYaHeiASCII24_0035     0x08007196   Data          48  microsoftyaheiascii24.o(.constdata)
    acGUI_FontMicrosoftYaHeiASCII24_0036     0x080071c6   Data          48  microsoftyaheiascii24.o(.constdata)
    acGUI_FontMicrosoftYaHeiASCII24_0037     0x080071f6   Data          48  microsoftyaheiascii24.o(.constdata)
    acGUI_FontMicrosoftYaHeiASCII24_0038     0x08007226   Data          48  microsoftyaheiascii24.o(.constdata)
    acGUI_FontMicrosoftYaHeiASCII24_0039     0x08007256   Data          48  microsoftyaheiascii24.o(.constdata)
    acGUI_FontMicrosoftYaHeiASCII24_003A     0x08007286   Data          24  microsoftyaheiascii24.o(.constdata)
    acGUI_FontMicrosoftYaHeiASCII24_003B     0x0800729e   Data          24  microsoftyaheiascii24.o(.constdata)
    acGUI_FontMicrosoftYaHeiASCII24_003C     0x080072b6   Data          48  microsoftyaheiascii24.o(.constdata)
    acGUI_FontMicrosoftYaHeiASCII24_003D     0x080072e6   Data          48  microsoftyaheiascii24.o(.constdata)
    acGUI_FontMicrosoftYaHeiASCII24_003E     0x08007316   Data          48  microsoftyaheiascii24.o(.constdata)
    acGUI_FontMicrosoftYaHeiASCII24_003F     0x08007346   Data          48  microsoftyaheiascii24.o(.constdata)
    acGUI_FontMicrosoftYaHeiASCII24_0040     0x08007376   Data          72  microsoftyaheiascii24.o(.constdata)
    acGUI_FontMicrosoftYaHeiASCII24_0041     0x080073be   Data          48  microsoftyaheiascii24.o(.constdata)
    acGUI_FontMicrosoftYaHeiASCII24_0042     0x080073ee   Data          48  microsoftyaheiascii24.o(.constdata)
    acGUI_FontMicrosoftYaHeiASCII24_0043     0x0800741e   Data          48  microsoftyaheiascii24.o(.constdata)
    acGUI_FontMicrosoftYaHeiASCII24_0044     0x0800744e   Data          48  microsoftyaheiascii24.o(.constdata)
    acGUI_FontMicrosoftYaHeiASCII24_0045     0x0800747e   Data          48  microsoftyaheiascii24.o(.constdata)
    acGUI_FontMicrosoftYaHeiASCII24_0046     0x080074ae   Data          48  microsoftyaheiascii24.o(.constdata)
    acGUI_FontMicrosoftYaHeiASCII24_0047     0x080074de   Data          48  microsoftyaheiascii24.o(.constdata)
    acGUI_FontMicrosoftYaHeiASCII24_0048     0x0800750e   Data          48  microsoftyaheiascii24.o(.constdata)
    acGUI_FontMicrosoftYaHeiASCII24_0049     0x0800753e   Data          24  microsoftyaheiascii24.o(.constdata)
    acGUI_FontMicrosoftYaHeiASCII24_004A     0x08007556   Data          24  microsoftyaheiascii24.o(.constdata)
    acGUI_FontMicrosoftYaHeiASCII24_004B     0x0800756e   Data          48  microsoftyaheiascii24.o(.constdata)
    acGUI_FontMicrosoftYaHeiASCII24_004C     0x0800759e   Data          48  microsoftyaheiascii24.o(.constdata)
    acGUI_FontMicrosoftYaHeiASCII24_004D     0x080075ce   Data          72  microsoftyaheiascii24.o(.constdata)
    acGUI_FontMicrosoftYaHeiASCII24_004E     0x08007616   Data          48  microsoftyaheiascii24.o(.constdata)
    acGUI_FontMicrosoftYaHeiASCII24_004F     0x08007646   Data          48  microsoftyaheiascii24.o(.constdata)
    acGUI_FontMicrosoftYaHeiASCII24_0050     0x08007676   Data          48  microsoftyaheiascii24.o(.constdata)
    acGUI_FontMicrosoftYaHeiASCII24_0051     0x080076a6   Data          48  microsoftyaheiascii24.o(.constdata)
    acGUI_FontMicrosoftYaHeiASCII24_0052     0x080076d6   Data          48  microsoftyaheiascii24.o(.constdata)
    acGUI_FontMicrosoftYaHeiASCII24_0053     0x08007706   Data          48  microsoftyaheiascii24.o(.constdata)
    acGUI_FontMicrosoftYaHeiASCII24_0054     0x08007736   Data          48  microsoftyaheiascii24.o(.constdata)
    acGUI_FontMicrosoftYaHeiASCII24_0055     0x08007766   Data          48  microsoftyaheiascii24.o(.constdata)
    acGUI_FontMicrosoftYaHeiASCII24_0056     0x08007796   Data          48  microsoftyaheiascii24.o(.constdata)
    acGUI_FontMicrosoftYaHeiASCII24_0057     0x080077c6   Data          72  microsoftyaheiascii24.o(.constdata)
    acGUI_FontMicrosoftYaHeiASCII24_0058     0x0800780e   Data          48  microsoftyaheiascii24.o(.constdata)
    acGUI_FontMicrosoftYaHeiASCII24_0059     0x0800783e   Data          48  microsoftyaheiascii24.o(.constdata)
    acGUI_FontMicrosoftYaHeiASCII24_005A     0x0800786e   Data          48  microsoftyaheiascii24.o(.constdata)
    acGUI_FontMicrosoftYaHeiASCII24_005B     0x0800789e   Data          24  microsoftyaheiascii24.o(.constdata)
    acGUI_FontMicrosoftYaHeiASCII24_005C     0x080078b6   Data          24  microsoftyaheiascii24.o(.constdata)
    acGUI_FontMicrosoftYaHeiASCII24_005D     0x080078ce   Data          24  microsoftyaheiascii24.o(.constdata)
    acGUI_FontMicrosoftYaHeiASCII24_005E     0x080078e6   Data          48  microsoftyaheiascii24.o(.constdata)
    acGUI_FontMicrosoftYaHeiASCII24_005F     0x08007916   Data          24  microsoftyaheiascii24.o(.constdata)
    acGUI_FontMicrosoftYaHeiASCII24_0060     0x0800792e   Data          24  microsoftyaheiascii24.o(.constdata)
    acGUI_FontMicrosoftYaHeiASCII24_0061     0x08007946   Data          48  microsoftyaheiascii24.o(.constdata)
    acGUI_FontMicrosoftYaHeiASCII24_0062     0x08007976   Data          48  microsoftyaheiascii24.o(.constdata)
    acGUI_FontMicrosoftYaHeiASCII24_0063     0x080079a6   Data          48  microsoftyaheiascii24.o(.constdata)
    acGUI_FontMicrosoftYaHeiASCII24_0064     0x080079d6   Data          48  microsoftyaheiascii24.o(.constdata)
    acGUI_FontMicrosoftYaHeiASCII24_0065     0x08007a06   Data          48  microsoftyaheiascii24.o(.constdata)
    acGUI_FontMicrosoftYaHeiASCII24_0066     0x08007a36   Data          24  microsoftyaheiascii24.o(.constdata)
    acGUI_FontMicrosoftYaHeiASCII24_0067     0x08007a4e   Data          48  microsoftyaheiascii24.o(.constdata)
    acGUI_FontMicrosoftYaHeiASCII24_0068     0x08007a7e   Data          48  microsoftyaheiascii24.o(.constdata)
    acGUI_FontMicrosoftYaHeiASCII24_0069     0x08007aae   Data          24  microsoftyaheiascii24.o(.constdata)
    acGUI_FontMicrosoftYaHeiASCII24_006A     0x08007ac6   Data          24  microsoftyaheiascii24.o(.constdata)
    acGUI_FontMicrosoftYaHeiASCII24_006B     0x08007ade   Data          48  microsoftyaheiascii24.o(.constdata)
    acGUI_FontMicrosoftYaHeiASCII24_006C     0x08007b0e   Data          24  microsoftyaheiascii24.o(.constdata)
    acGUI_FontMicrosoftYaHeiASCII24_006D     0x08007b26   Data          72  microsoftyaheiascii24.o(.constdata)
    acGUI_FontMicrosoftYaHeiASCII24_006E     0x08007b6e   Data          48  microsoftyaheiascii24.o(.constdata)
    acGUI_FontMicrosoftYaHeiASCII24_006F     0x08007b9e   Data          48  microsoftyaheiascii24.o(.constdata)
    acGUI_FontMicrosoftYaHeiASCII24_0070     0x08007bce   Data          48  microsoftyaheiascii24.o(.constdata)
    acGUI_FontMicrosoftYaHeiASCII24_0071     0x08007bfe   Data          48  microsoftyaheiascii24.o(.constdata)
    acGUI_FontMicrosoftYaHeiASCII24_0072     0x08007c2e   Data          24  microsoftyaheiascii24.o(.constdata)
    acGUI_FontMicrosoftYaHeiASCII24_0073     0x08007c46   Data          24  microsoftyaheiascii24.o(.constdata)
    acGUI_FontMicrosoftYaHeiASCII24_0074     0x08007c5e   Data          24  microsoftyaheiascii24.o(.constdata)
    acGUI_FontMicrosoftYaHeiASCII24_0075     0x08007c76   Data          48  microsoftyaheiascii24.o(.constdata)
    acGUI_FontMicrosoftYaHeiASCII24_0076     0x08007ca6   Data          48  microsoftyaheiascii24.o(.constdata)
    acGUI_FontMicrosoftYaHeiASCII24_0077     0x08007cd6   Data          48  microsoftyaheiascii24.o(.constdata)
    acGUI_FontMicrosoftYaHeiASCII24_0078     0x08007d06   Data          48  microsoftyaheiascii24.o(.constdata)
    acGUI_FontMicrosoftYaHeiASCII24_0079     0x08007d36   Data          48  microsoftyaheiascii24.o(.constdata)
    acGUI_FontMicrosoftYaHeiASCII24_007A     0x08007d66   Data          48  microsoftyaheiascii24.o(.constdata)
    acGUI_FontMicrosoftYaHeiASCII24_007B     0x08007d96   Data          24  microsoftyaheiascii24.o(.constdata)
    acGUI_FontMicrosoftYaHeiASCII24_007C     0x08007dae   Data          24  microsoftyaheiascii24.o(.constdata)
    acGUI_FontMicrosoftYaHeiASCII24_007D     0x08007dc6   Data          24  microsoftyaheiascii24.o(.constdata)
    acGUI_FontMicrosoftYaHeiASCII24_007E     0x08007dde   Data          48  microsoftyaheiascii24.o(.constdata)
    acGUI_FontMicrosoftYaHeiASCII24_007F     0x08007e0e   Data          24  microsoftyaheiascii24.o(.constdata)
    acGUI_FontMicrosoftYaHeiASCII24_00A0     0x08007e26   Data          24  microsoftyaheiascii24.o(.constdata)
    acGUI_FontMicrosoftYaHeiASCII24_00A1     0x08007e3e   Data          24  microsoftyaheiascii24.o(.constdata)
    acGUI_FontMicrosoftYaHeiASCII24_00A2     0x08007e56   Data          48  microsoftyaheiascii24.o(.constdata)
    acGUI_FontMicrosoftYaHeiASCII24_00A3     0x08007e86   Data          48  microsoftyaheiascii24.o(.constdata)
    acGUI_FontMicrosoftYaHeiASCII24_00A4     0x08007eb6   Data          48  microsoftyaheiascii24.o(.constdata)
    acGUI_FontMicrosoftYaHeiASCII24_00A5     0x08007ee6   Data          48  microsoftyaheiascii24.o(.constdata)
    acGUI_FontMicrosoftYaHeiASCII24_00A6     0x08007f16   Data          24  microsoftyaheiascii24.o(.constdata)
    acGUI_FontMicrosoftYaHeiASCII24_00A7     0x08007f2e   Data          48  microsoftyaheiascii24.o(.constdata)
    acGUI_FontMicrosoftYaHeiASCII24_00A8     0x08007f5e   Data          24  microsoftyaheiascii24.o(.constdata)
    acGUI_FontMicrosoftYaHeiASCII24_00A9     0x08007f76   Data          72  microsoftyaheiascii24.o(.constdata)
    acGUI_FontMicrosoftYaHeiASCII24_00AA     0x08007fbe   Data          24  microsoftyaheiascii24.o(.constdata)
    acGUI_FontMicrosoftYaHeiASCII24_00AB     0x08007fd6   Data          48  microsoftyaheiascii24.o(.constdata)
    acGUI_FontMicrosoftYaHeiASCII24_00AC     0x08008006   Data          48  microsoftyaheiascii24.o(.constdata)
    acGUI_FontMicrosoftYaHeiASCII24_00AD     0x08008036   Data          24  microsoftyaheiascii24.o(.constdata)
    acGUI_FontMicrosoftYaHeiASCII24_00AE     0x0800804e   Data          72  microsoftyaheiascii24.o(.constdata)
    acGUI_FontMicrosoftYaHeiASCII24_00AF     0x08008096   Data          24  microsoftyaheiascii24.o(.constdata)
    acGUI_FontMicrosoftYaHeiASCII24_00B0     0x080080ae   Data          24  microsoftyaheiascii24.o(.constdata)
    acGUI_FontMicrosoftYaHeiASCII24_00B1     0x080080c6   Data          48  microsoftyaheiascii24.o(.constdata)
    acGUI_FontMicrosoftYaHeiASCII24_00B2     0x080080f6   Data          24  microsoftyaheiascii24.o(.constdata)
    acGUI_FontMicrosoftYaHeiASCII24_00B3     0x0800810e   Data          24  microsoftyaheiascii24.o(.constdata)
    acGUI_FontMicrosoftYaHeiASCII24_00B4     0x08008126   Data          24  microsoftyaheiascii24.o(.constdata)
    acGUI_FontMicrosoftYaHeiASCII24_00B5     0x0800813e   Data          48  microsoftyaheiascii24.o(.constdata)
    acGUI_FontMicrosoftYaHeiASCII24_00B6     0x0800816e   Data          48  microsoftyaheiascii24.o(.constdata)
    acGUI_FontMicrosoftYaHeiASCII24_00B7     0x0800819e   Data          24  microsoftyaheiascii24.o(.constdata)
    acGUI_FontMicrosoftYaHeiASCII24_00B8     0x080081b6   Data          24  microsoftyaheiascii24.o(.constdata)
    acGUI_FontMicrosoftYaHeiASCII24_00B9     0x080081ce   Data          24  microsoftyaheiascii24.o(.constdata)
    acGUI_FontMicrosoftYaHeiASCII24_00BA     0x080081e6   Data          24  microsoftyaheiascii24.o(.constdata)
    acGUI_FontMicrosoftYaHeiASCII24_00BB     0x080081fe   Data          48  microsoftyaheiascii24.o(.constdata)
    acGUI_FontMicrosoftYaHeiASCII24_00BC     0x0800822e   Data          72  microsoftyaheiascii24.o(.constdata)
    acGUI_FontMicrosoftYaHeiASCII24_00BD     0x08008276   Data          72  microsoftyaheiascii24.o(.constdata)
    acGUI_FontMicrosoftYaHeiASCII24_00BE     0x080082be   Data          72  microsoftyaheiascii24.o(.constdata)
    acGUI_FontMicrosoftYaHeiASCII24_00BF     0x08008306   Data          48  microsoftyaheiascii24.o(.constdata)
    acGUI_FontMicrosoftYaHeiASCII24_00C0     0x08008336   Data          48  microsoftyaheiascii24.o(.constdata)
    acGUI_FontMicrosoftYaHeiASCII24_00C1     0x08008366   Data          48  microsoftyaheiascii24.o(.constdata)
    acGUI_FontMicrosoftYaHeiASCII24_00C2     0x08008396   Data          48  microsoftyaheiascii24.o(.constdata)
    acGUI_FontMicrosoftYaHeiASCII24_00C3     0x080083c6   Data          48  microsoftyaheiascii24.o(.constdata)
    acGUI_FontMicrosoftYaHeiASCII24_00C4     0x080083f6   Data          48  microsoftyaheiascii24.o(.constdata)
    acGUI_FontMicrosoftYaHeiASCII24_00C5     0x08008426   Data          48  microsoftyaheiascii24.o(.constdata)
    acGUI_FontMicrosoftYaHeiASCII24_00C6     0x08008456   Data          72  microsoftyaheiascii24.o(.constdata)
    acGUI_FontMicrosoftYaHeiASCII24_00C7     0x0800849e   Data          48  microsoftyaheiascii24.o(.constdata)
    acGUI_FontMicrosoftYaHeiASCII24_00C8     0x080084ce   Data          48  microsoftyaheiascii24.o(.constdata)
    acGUI_FontMicrosoftYaHeiASCII24_00C9     0x080084fe   Data          48  microsoftyaheiascii24.o(.constdata)
    acGUI_FontMicrosoftYaHeiASCII24_00CA     0x0800852e   Data          48  microsoftyaheiascii24.o(.constdata)
    acGUI_FontMicrosoftYaHeiASCII24_00CB     0x0800855e   Data          48  microsoftyaheiascii24.o(.constdata)
    acGUI_FontMicrosoftYaHeiASCII24_00CC     0x0800858e   Data          24  microsoftyaheiascii24.o(.constdata)
    acGUI_FontMicrosoftYaHeiASCII24_00CD     0x080085a6   Data          24  microsoftyaheiascii24.o(.constdata)
    acGUI_FontMicrosoftYaHeiASCII24_00CE     0x080085be   Data          24  microsoftyaheiascii24.o(.constdata)
    acGUI_FontMicrosoftYaHeiASCII24_00CF     0x080085d6   Data          24  microsoftyaheiascii24.o(.constdata)
    acGUI_FontMicrosoftYaHeiASCII24_00D0     0x080085ee   Data          48  microsoftyaheiascii24.o(.constdata)
    acGUI_FontMicrosoftYaHeiASCII24_00D1     0x0800861e   Data          48  microsoftyaheiascii24.o(.constdata)
    acGUI_FontMicrosoftYaHeiASCII24_00D2     0x0800864e   Data          48  microsoftyaheiascii24.o(.constdata)
    acGUI_FontMicrosoftYaHeiASCII24_00D3     0x0800867e   Data          48  microsoftyaheiascii24.o(.constdata)
    acGUI_FontMicrosoftYaHeiASCII24_00D4     0x080086ae   Data          48  microsoftyaheiascii24.o(.constdata)
    acGUI_FontMicrosoftYaHeiASCII24_00D5     0x080086de   Data          48  microsoftyaheiascii24.o(.constdata)
    acGUI_FontMicrosoftYaHeiASCII24_00D6     0x0800870e   Data          48  microsoftyaheiascii24.o(.constdata)
    acGUI_FontMicrosoftYaHeiASCII24_00D7     0x0800873e   Data          48  microsoftyaheiascii24.o(.constdata)
    acGUI_FontMicrosoftYaHeiASCII24_00D8     0x0800876e   Data          48  microsoftyaheiascii24.o(.constdata)
    acGUI_FontMicrosoftYaHeiASCII24_00D9     0x0800879e   Data          48  microsoftyaheiascii24.o(.constdata)
    acGUI_FontMicrosoftYaHeiASCII24_00DA     0x080087ce   Data          48  microsoftyaheiascii24.o(.constdata)
    acGUI_FontMicrosoftYaHeiASCII24_00DB     0x080087fe   Data          48  microsoftyaheiascii24.o(.constdata)
    acGUI_FontMicrosoftYaHeiASCII24_00DC     0x0800882e   Data          48  microsoftyaheiascii24.o(.constdata)
    acGUI_FontMicrosoftYaHeiASCII24_00DD     0x0800885e   Data          48  microsoftyaheiascii24.o(.constdata)
    acGUI_FontMicrosoftYaHeiASCII24_00DE     0x0800888e   Data          48  microsoftyaheiascii24.o(.constdata)
    acGUI_FontMicrosoftYaHeiASCII24_00DF     0x080088be   Data          48  microsoftyaheiascii24.o(.constdata)
    acGUI_FontMicrosoftYaHeiASCII24_00E0     0x080088ee   Data          48  microsoftyaheiascii24.o(.constdata)
    acGUI_FontMicrosoftYaHeiASCII24_00E1     0x0800891e   Data          48  microsoftyaheiascii24.o(.constdata)
    acGUI_FontMicrosoftYaHeiASCII24_00E2     0x0800894e   Data          48  microsoftyaheiascii24.o(.constdata)
    acGUI_FontMicrosoftYaHeiASCII24_00E3     0x0800897e   Data          48  microsoftyaheiascii24.o(.constdata)
    acGUI_FontMicrosoftYaHeiASCII24_00E4     0x080089ae   Data          48  microsoftyaheiascii24.o(.constdata)
    acGUI_FontMicrosoftYaHeiASCII24_00E5     0x080089de   Data          48  microsoftyaheiascii24.o(.constdata)
    acGUI_FontMicrosoftYaHeiASCII24_00E6     0x08008a0e   Data          48  microsoftyaheiascii24.o(.constdata)
    acGUI_FontMicrosoftYaHeiASCII24_00E7     0x08008a3e   Data          48  microsoftyaheiascii24.o(.constdata)
    acGUI_FontMicrosoftYaHeiASCII24_00E8     0x08008a6e   Data          48  microsoftyaheiascii24.o(.constdata)
    acGUI_FontMicrosoftYaHeiASCII24_00E9     0x08008a9e   Data          48  microsoftyaheiascii24.o(.constdata)
    acGUI_FontMicrosoftYaHeiASCII24_00EA     0x08008ace   Data          48  microsoftyaheiascii24.o(.constdata)
    acGUI_FontMicrosoftYaHeiASCII24_00EB     0x08008afe   Data          48  microsoftyaheiascii24.o(.constdata)
    acGUI_FontMicrosoftYaHeiASCII24_00EC     0x08008b2e   Data          24  microsoftyaheiascii24.o(.constdata)
    acGUI_FontMicrosoftYaHeiASCII24_00ED     0x08008b46   Data          24  microsoftyaheiascii24.o(.constdata)
    acGUI_FontMicrosoftYaHeiASCII24_00EE     0x08008b5e   Data          24  microsoftyaheiascii24.o(.constdata)
    acGUI_FontMicrosoftYaHeiASCII24_00EF     0x08008b76   Data          24  microsoftyaheiascii24.o(.constdata)
    acGUI_FontMicrosoftYaHeiASCII24_00F0     0x08008b8e   Data          48  microsoftyaheiascii24.o(.constdata)
    acGUI_FontMicrosoftYaHeiASCII24_00F1     0x08008bbe   Data          48  microsoftyaheiascii24.o(.constdata)
    acGUI_FontMicrosoftYaHeiASCII24_00F2     0x08008bee   Data          48  microsoftyaheiascii24.o(.constdata)
    acGUI_FontMicrosoftYaHeiASCII24_00F3     0x08008c1e   Data          48  microsoftyaheiascii24.o(.constdata)
    acGUI_FontMicrosoftYaHeiASCII24_00F4     0x08008c4e   Data          48  microsoftyaheiascii24.o(.constdata)
    acGUI_FontMicrosoftYaHeiASCII24_00F5     0x08008c7e   Data          48  microsoftyaheiascii24.o(.constdata)
    acGUI_FontMicrosoftYaHeiASCII24_00F6     0x08008cae   Data          48  microsoftyaheiascii24.o(.constdata)
    acGUI_FontMicrosoftYaHeiASCII24_00F7     0x08008cde   Data          48  microsoftyaheiascii24.o(.constdata)
    acGUI_FontMicrosoftYaHeiASCII24_00F8     0x08008d0e   Data          48  microsoftyaheiascii24.o(.constdata)
    acGUI_FontMicrosoftYaHeiASCII24_00F9     0x08008d3e   Data          48  microsoftyaheiascii24.o(.constdata)
    acGUI_FontMicrosoftYaHeiASCII24_00FA     0x08008d6e   Data          48  microsoftyaheiascii24.o(.constdata)
    acGUI_FontMicrosoftYaHeiASCII24_00FB     0x08008d9e   Data          48  microsoftyaheiascii24.o(.constdata)
    acGUI_FontMicrosoftYaHeiASCII24_00FC     0x08008dce   Data          48  microsoftyaheiascii24.o(.constdata)
    acGUI_FontMicrosoftYaHeiASCII24_00FD     0x08008dfe   Data          48  microsoftyaheiascii24.o(.constdata)
    acGUI_FontMicrosoftYaHeiASCII24_00FE     0x08008e2e   Data          48  microsoftyaheiascii24.o(.constdata)
    acGUI_FontMicrosoftYaHeiASCII24_00FF     0x08008e5e   Data          48  microsoftyaheiascii24.o(.constdata)
    acGUI_FontMicrosoftYaHeiASCII24_0100     0x08008e8e   Data          48  microsoftyaheiascii24.o(.constdata)
    acGUI_FontMicrosoftYaHeiASCII24_0101     0x08008ebe   Data          48  microsoftyaheiascii24.o(.constdata)
    acGUI_FontMicrosoftYaHeiASCII24_0102     0x08008eee   Data          48  microsoftyaheiascii24.o(.constdata)
    acGUI_FontMicrosoftYaHeiASCII24_0103     0x08008f1e   Data          48  microsoftyaheiascii24.o(.constdata)
    acGUI_FontMicrosoftYaHeiASCII24_0104     0x08008f4e   Data          48  microsoftyaheiascii24.o(.constdata)
    acGUI_FontMicrosoftYaHeiASCII24_0105     0x08008f7e   Data          48  microsoftyaheiascii24.o(.constdata)
    acGUI_FontMicrosoftYaHeiASCII24_0106     0x08008fae   Data          48  microsoftyaheiascii24.o(.constdata)
    acGUI_FontMicrosoftYaHeiASCII24_0107     0x08008fde   Data          48  microsoftyaheiascii24.o(.constdata)
    acGUI_FontMicrosoftYaHeiASCII24_0108     0x0800900e   Data          48  microsoftyaheiascii24.o(.constdata)
    acGUI_FontMicrosoftYaHeiASCII24_0109     0x0800903e   Data          48  microsoftyaheiascii24.o(.constdata)
    acGUI_FontMicrosoftYaHeiASCII24_010A     0x0800906e   Data          48  microsoftyaheiascii24.o(.constdata)
    acGUI_FontMicrosoftYaHeiASCII24_010B     0x0800909e   Data          48  microsoftyaheiascii24.o(.constdata)
    acGUI_FontMicrosoftYaHeiASCII24_010C     0x080090ce   Data          48  microsoftyaheiascii24.o(.constdata)
    acGUI_FontMicrosoftYaHeiASCII24_010D     0x080090fe   Data          48  microsoftyaheiascii24.o(.constdata)
    acGUI_FontMicrosoftYaHeiASCII24_010E     0x0800912e   Data          48  microsoftyaheiascii24.o(.constdata)
    acGUI_FontMicrosoftYaHeiASCII24_010F     0x0800915e   Data          48  microsoftyaheiascii24.o(.constdata)
    acGUI_FontMicrosoftYaHeiASCII24_0110     0x0800918e   Data          48  microsoftyaheiascii24.o(.constdata)
    acGUI_FontMicrosoftYaHeiASCII24_0111     0x080091be   Data          48  microsoftyaheiascii24.o(.constdata)
    acGUI_FontMicrosoftYaHeiASCII24_0112     0x080091ee   Data          48  microsoftyaheiascii24.o(.constdata)
    acGUI_FontMicrosoftYaHeiASCII24_0113     0x0800921e   Data          48  microsoftyaheiascii24.o(.constdata)
    acGUI_FontMicrosoftYaHeiASCII24_0114     0x0800924e   Data          48  microsoftyaheiascii24.o(.constdata)
    acGUI_FontMicrosoftYaHeiASCII24_0115     0x0800927e   Data          48  microsoftyaheiascii24.o(.constdata)
    acGUI_FontMicrosoftYaHeiASCII24_0116     0x080092ae   Data          48  microsoftyaheiascii24.o(.constdata)
    acGUI_FontMicrosoftYaHeiASCII24_0117     0x080092de   Data          48  microsoftyaheiascii24.o(.constdata)
    acGUI_FontMicrosoftYaHeiASCII24_0118     0x0800930e   Data          48  microsoftyaheiascii24.o(.constdata)
    acGUI_FontMicrosoftYaHeiASCII24_0119     0x0800933e   Data          48  microsoftyaheiascii24.o(.constdata)
    acGUI_FontMicrosoftYaHeiASCII24_011A     0x0800936e   Data          48  microsoftyaheiascii24.o(.constdata)
    acGUI_FontMicrosoftYaHeiASCII24_011B     0x0800939e   Data          48  microsoftyaheiascii24.o(.constdata)
    acGUI_FontMicrosoftYaHeiASCII24_011C     0x080093ce   Data          48  microsoftyaheiascii24.o(.constdata)
    acGUI_FontMicrosoftYaHeiASCII24_011D     0x080093fe   Data          48  microsoftyaheiascii24.o(.constdata)
    acGUI_FontMicrosoftYaHeiASCII24_011E     0x0800942e   Data          48  microsoftyaheiascii24.o(.constdata)
    acGUI_FontMicrosoftYaHeiASCII24_011F     0x0800945e   Data          48  microsoftyaheiascii24.o(.constdata)
    acGUI_FontMicrosoftYaHeiASCII24_0120     0x0800948e   Data          48  microsoftyaheiascii24.o(.constdata)
    acGUI_FontMicrosoftYaHeiASCII24_0121     0x080094be   Data          48  microsoftyaheiascii24.o(.constdata)
    acGUI_FontMicrosoftYaHeiASCII24_0122     0x080094ee   Data          48  microsoftyaheiascii24.o(.constdata)
    acGUI_FontMicrosoftYaHeiASCII24_0123     0x0800951e   Data          48  microsoftyaheiascii24.o(.constdata)
    acGUI_FontMicrosoftYaHeiASCII24_0124     0x0800954e   Data          48  microsoftyaheiascii24.o(.constdata)
    acGUI_FontMicrosoftYaHeiASCII24_0125     0x0800957e   Data          48  microsoftyaheiascii24.o(.constdata)
    acGUI_FontMicrosoftYaHeiASCII24_0126     0x080095ae   Data          48  microsoftyaheiascii24.o(.constdata)
    acGUI_FontMicrosoftYaHeiASCII24_0127     0x080095de   Data          48  microsoftyaheiascii24.o(.constdata)
    GUI_FontMicrosoftYaHeiASCII24_CharInfo   0x08009610   Data        1856  microsoftyaheiascii24.o(.constdata)
    GUI_FontMicrosoftYaHeiASCII24_Prop2      0x08009d50   Data          12  microsoftyaheiascii24.o(.constdata)
    GUI_FontMicrosoftYaHeiASCII24_Prop1      0x08009d5c   Data          12  microsoftyaheiascii24.o(.constdata)
    GUI_FontMicrosoftYaHeiASCII24            0x08009d68   Data          16  microsoftyaheiascii24.o(.constdata)
    acGUI_Fontsongti24_6211                  0x08009d78   Data          72  songti24.o(.constdata)
    GUI_Fontsongti24_CharInfo                0x08009dc0   Data           8  songti24.o(.constdata)
    GUI_Fontsongti24_Prop1                   0x08009dc8   Data          12  songti24.o(.constdata)
    GUI_Fontsongti24                         0x08009dd4   Data          16  songti24.o(.constdata)
    SD_Driver                                0x08009de8   Data          20  sd_diskio.o(.constdata)
    Region$$Table$$Base                      0x08009dfc   Number         0  anon$$obj.o(Region$$Table)
    Region$$Table$$Limit                     0x08009e1c   Number         0  anon$$obj.o(Region$$Table)
    retSD                                    0x20000000   Data           1  fatfs.o(.data)
    SDPath                                   0x20000001   Data           4  fatfs.o(.data)
    uwTickFreq                               0x20000010   Data           1  stm32f1xx_hal.o(.data)
    uwTickPrio                               0x20000014   Data           4  stm32f1xx_hal.o(.data)
    uwTick                                   0x20000018   Data           4  stm32f1xx_hal.o(.data)
    SystemCoreClock                          0x2000001c   Data           4  system_stm32f1xx.o(.data)
    cuigui_Font                              0x20000020   Data           4  gui.o(.data)
    __stdout                                 0x20000034   Data           4  stdout.o(.data)
    SDFatFS                                  0x20000038   Data         560  fatfs.o(.bss)
    hsram1                                   0x20000268   Data          68  fsmc.o(.bss)
    hsd                                      0x200002ac   Data         132  sdio.o(.bss)
    huart1                                   0x20000330   Data          64  usart.o(.bss)
    list4mess                                0x20000370   Data          16  list4_malloc.o(.bss)
    list4mallocArray                         0x20000380   Data       56320  list4_malloc.o(.bss)
    lcddev                                   0x2000df80   Data          14  lcd.o(.bss)
    disk                                     0x2000dfa8   Data          12  ff_gen_drv.o(.bss)
    __initial_sp                             0x2000e5b8   Data           0  startup_stm32f103xe.o(STACK)



==============================================================================

Memory Map of the image

  Image Entry point : 0x08000131

  Load Region LR_IROM1 (Base: 0x08000000, Size: 0x00009e54, Max: 0x00080000, ABSOLUTE)

    Execution Region ER_IROM1 (Exec base: 0x08000000, Load base: 0x08000000, Size: 0x00009e1c, Max: 0x00080000, ABSOLUTE)

    Exec Addr    Load Addr    Size         Type   Attr      Idx    E Section Name        Object

    0x08000000   0x08000000   0x00000130   Data   RO            3    RESET               startup_stm32f103xe.o
    0x08000130   0x08000130   0x00000000   Code   RO         4648  * .ARM.Collect$$$$00000000  mc_w.l(entry.o)
    0x08000130   0x08000130   0x00000004   Code   RO         4950    .ARM.Collect$$$$00000001  mc_w.l(entry2.o)
    0x08000134   0x08000134   0x00000004   Code   RO         4953    .ARM.Collect$$$$00000004  mc_w.l(entry5.o)
    0x08000138   0x08000138   0x00000000   Code   RO         4955    .ARM.Collect$$$$00000008  mc_w.l(entry7b.o)
    0x08000138   0x08000138   0x00000000   Code   RO         4957    .ARM.Collect$$$$0000000A  mc_w.l(entry8b.o)
    0x08000138   0x08000138   0x00000008   Code   RO         4958    .ARM.Collect$$$$0000000B  mc_w.l(entry9a.o)
    0x08000140   0x08000140   0x00000000   Code   RO         4960    .ARM.Collect$$$$0000000D  mc_w.l(entry10a.o)
    0x08000140   0x08000140   0x00000000   Code   RO         4962    .ARM.Collect$$$$0000000F  mc_w.l(entry11a.o)
    0x08000140   0x08000140   0x00000004   Code   RO         4951    .ARM.Collect$$$$00002712  mc_w.l(entry2.o)
    0x08000144   0x08000144   0x00000024   Code   RO            4    .text               startup_stm32f103xe.o
    0x08000168   0x08000168   0x00000020   Code   RO         4651    .text               mc_w.l(llushr.o)
    0x08000188   0x08000188   0x00000024   Code   RO         4653    .text               mc_w.l(memseta.o)
    0x080001ac   0x080001ac   0x000000e4   Code   RO         4928    .text               mf_w.l(dmul.o)
    0x08000290   0x08000290   0x0000001a   Code   RO         4934    .text               mf_w.l(dfltui.o)
    0x080002aa   0x080002aa   0x00000032   Code   RO         4940    .text               mf_w.l(dfixui.o)
    0x080002dc   0x080002dc   0x00000062   Code   RO         4967    .text               mc_w.l(uldiv.o)
    0x0800033e   0x0800033e   0x0000001e   Code   RO         4969    .text               mc_w.l(llshl.o)
    0x0800035c   0x0800035c   0x00000000   Code   RO         4973    .text               mc_w.l(iusefp.o)
    0x0800035c   0x0800035c   0x000000ba   Code   RO         4976    .text               mf_w.l(depilogue.o)
    0x08000416   0x08000416   0x00000002   PAD
    0x08000418   0x08000418   0x00000024   Code   RO         4982    .text               mc_w.l(init.o)
    0x0800043c   0x0800043c   0x0000000c   Code   RO          246    i.BSP_SD_GetCardInfo  bsp_driver_sd.o
    0x08000448   0x08000448   0x00000018   Code   RO          247    i.BSP_SD_GetCardState  bsp_driver_sd.o
    0x08000460   0x08000460   0x00000034   Code   RO          250    i.BSP_SD_Init       bsp_driver_sd.o
    0x08000494   0x08000494   0x00000020   Code   RO          252    i.BSP_SD_ReadBlocks  bsp_driver_sd.o
    0x080004b4   0x080004b4   0x00000020   Code   RO          255    i.BSP_SD_WriteBlocks  bsp_driver_sd.o
    0x080004d4   0x080004d4   0x0000000e   Code   RO         3586    i.BtSkin            cuigui_button.o
    0x080004e2   0x080004e2   0x00000054   Code   RO         3587    i.BtText            cuigui_button.o
    0x08000536   0x08000536   0x00000002   PAD
    0x08000538   0x08000538   0x0000001c   Code   RO          563    i.BusFault_Handler  stm32f1xx_it.o
    0x08000554   0x08000554   0x00000018   Code   RO         3724    i.CUIGUI_BMP_Init   cuigui_bmp.o
    0x0800056c   0x0800056c   0x00000010   Code   RO         3359    i.CUIGUI_Color      cuigui_color.o
    0x0800057c   0x0800057c   0x00000012   Code   RO         3990    i.CUIGUI_DrawEdit   cuigui_edit.o
    0x0800058e   0x0800058e   0x00000002   PAD
    0x08000590   0x08000590   0x00000024   Code   RO         3254    i.CUIGUI_DrawHLine  cuigui_lcddriver.o
    0x080005b4   0x080005b4   0x00000004   Code   RO         3256    i.CUIGUI_DrawPoint  cuigui_lcddriver.o
    0x080005b8   0x080005b8   0x00000034   Code   RO         3404    i.CUIGUI_DrawStr    gui.o
    0x080005ec   0x080005ec   0x00000024   Code   RO         3257    i.CUIGUI_DrawVLine  cuigui_lcddriver.o
    0x08000610   0x08000610   0x00000060   Code   RO         3405    i.CUIGUI_DrawWord   gui.o
    0x08000670   0x08000670   0x00000048   Code   RO         3261    i.CUIGUI_FillRect   cuigui_lcddriver.o
    0x080006b8   0x080006b8   0x0000000c   Code   RO         3406    i.CUIGUI_GetFont    gui.o
    0x080006c4   0x080006c4   0x00000012   Code   RO         3262    i.CUIGUI_Init       cuigui_lcddriver.o
    0x080006d6   0x080006d6   0x00000002   PAD
    0x080006d8   0x080006d8   0x0000000c   Code   RO         3409    i.CUIGUI_SetFont    gui.o
    0x080006e4   0x080006e4   0x00000002   Code   RO          564    i.DebugMon_Handler  stm32f1xx_it.o
    0x080006e6   0x080006e6   0x00000012   Code   RO         3590    i.DefaultDrawButton  cuigui_button.o
    0x080006f8   0x080006f8   0x000000a0   Code   RO         4059    i.DefaultDrawGroupBox  cuigui_groupbox.o
    0x08000798   0x08000798   0x00000008   Code   RO         3991    i.EDIT_SetFont      cuigui_edit.o
    0x080007a0   0x080007a0   0x0000001a   Code   RO         3992    i.EDIT_SetText      cuigui_edit.o
    0x080007ba   0x080007ba   0x00000004   Code   RO         3993    i.EDIT_SetTextAlign  cuigui_edit.o
    0x080007be   0x080007be   0x00000094   Code   RO         3995    i.EditShowTXT       cuigui_edit.o
    0x08000852   0x08000852   0x0000012c   Code   RO         3996    i.EditSkin          cuigui_edit.o
    0x0800097e   0x0800097e   0x00000006   Code   RO         4601    i.FATFS_LinkDriver  ff_gen_drv.o
    0x08000984   0x08000984   0x00000040   Code   RO         4602    i.FATFS_LinkDriverEx  ff_gen_drv.o
    0x080009c4   0x080009c4   0x0000003c   Code   RO          706    i.FSMC_NORSRAM_Extended_Timing_Init  stm32f1xx_ll_fsmc.o
    0x08000a00   0x08000a00   0x00000098   Code   RO          707    i.FSMC_NORSRAM_Init  stm32f1xx_ll_fsmc.o
    0x08000a98   0x08000a98   0x00000044   Code   RO          708    i.FSMC_NORSRAM_Timing_Init  stm32f1xx_ll_fsmc.o
    0x08000adc   0x08000adc   0x0000002c   Code   RO         3412    i.GBK2UNICODE       gui.o
    0x08000b08   0x08000b08   0x00000004   Code   RO         3413    i.GetHeightFont     gui.o
    0x08000b0c   0x08000b0c   0x00000028   Code   RO         3414    i.GetLengthStr      gui.o
    0x08000b34   0x08000b34   0x00000004   Code   RO         3417    i.GetUnicode        gui.o
    0x08000b38   0x08000b38   0x00000040   Code   RO         3418    i.GetWordWidth      gui.o
    0x08000b78   0x08000b78   0x00000008   Code   RO         3266    i.GetXORColor       cuigui_lcddriver.o
    0x08000b80   0x08000b80   0x00000024   Code   RO         1812    i.HAL_Delay         stm32f1xx_hal.o
    0x08000ba4   0x08000ba4   0x00000074   Code   RO          422    i.HAL_FSMC_MspInit  fsmc.o
    0x08000c18   0x08000c18   0x000001e8   Code   RO         2105    i.HAL_GPIO_Init     stm32f1xx_hal_gpio.o
    0x08000e00   0x08000e00   0x0000000a   Code   RO         2109    i.HAL_GPIO_WritePin  stm32f1xx_hal_gpio.o
    0x08000e0a   0x08000e0a   0x00000002   PAD
    0x08000e0c   0x08000e0c   0x0000000c   Code   RO         1816    i.HAL_GetTick       stm32f1xx_hal.o
    0x08000e18   0x08000e18   0x00000010   Code   RO         1820    i.HAL_IncTick       stm32f1xx_hal.o
    0x08000e28   0x08000e28   0x00000024   Code   RO         1821    i.HAL_Init          stm32f1xx_hal.o
    0x08000e4c   0x08000e4c   0x00000040   Code   RO         1822    i.HAL_InitTick      stm32f1xx_hal.o
    0x08000e8c   0x08000e8c   0x00000090   Code   RO          638    i.HAL_MspInit       stm32f1xx_hal_msp.o
    0x08000f1c   0x08000f1c   0x00000040   Code   RO         2271    i.HAL_NVIC_SetPriority  stm32f1xx_hal_cortex.o
    0x08000f5c   0x08000f5c   0x00000024   Code   RO         2272    i.HAL_NVIC_SetPriorityGrouping  stm32f1xx_hal_cortex.o
    0x08000f80   0x08000f80   0x00000154   Code   RO         1965    i.HAL_RCC_ClockConfig  stm32f1xx_hal_rcc.o
    0x080010d4   0x080010d4   0x0000000c   Code   RO         1970    i.HAL_RCC_GetHCLKFreq  stm32f1xx_hal_rcc.o
    0x080010e0   0x080010e0   0x00000020   Code   RO         1972    i.HAL_RCC_GetPCLK1Freq  stm32f1xx_hal_rcc.o
    0x08001100   0x08001100   0x00000020   Code   RO         1973    i.HAL_RCC_GetPCLK2Freq  stm32f1xx_hal_rcc.o
    0x08001120   0x08001120   0x0000006c   Code   RO         1974    i.HAL_RCC_GetSysClockFreq  stm32f1xx_hal_rcc.o
    0x0800118c   0x0800118c   0x00000304   Code   RO         1977    i.HAL_RCC_OscConfig  stm32f1xx_hal_rcc.o
    0x08001490   0x08001490   0x00000078   Code   RO         1211    i.HAL_SD_ConfigWideBusOperation  stm32f1xx_hal_sd.o
    0x08001508   0x08001508   0x000000b2   Code   RO         1215    i.HAL_SD_GetCardCID  stm32f1xx_hal_sd.o
    0x080015ba   0x080015ba   0x000001da   Code   RO         1216    i.HAL_SD_GetCardCSD  stm32f1xx_hal_sd.o
    0x08001794   0x08001794   0x00000024   Code   RO         1217    i.HAL_SD_GetCardInfo  stm32f1xx_hal_sd.o
    0x080017b8   0x080017b8   0x0000002c   Code   RO         1218    i.HAL_SD_GetCardState  stm32f1xx_hal_sd.o
    0x080017e4   0x080017e4   0x00000036   Code   RO         1223    i.HAL_SD_Init       stm32f1xx_hal_sd.o
    0x0800181a   0x0800181a   0x00000002   PAD
    0x0800181c   0x0800181c   0x00000054   Code   RO         1224    i.HAL_SD_InitCard   stm32f1xx_hal_sd.o
    0x08001870   0x08001870   0x00000058   Code   RO          474    i.HAL_SD_MspInit    sdio.o
    0x080018c8   0x080018c8   0x000001b2   Code   RO         1227    i.HAL_SD_ReadBlocks  stm32f1xx_hal_sd.o
    0x08001a7a   0x08001a7a   0x00000002   PAD
    0x08001a7c   0x08001a7c   0x0000019a   Code   RO         1232    i.HAL_SD_WriteBlocks  stm32f1xx_hal_sd.o
    0x08001c16   0x08001c16   0x00000056   Code   RO          828    i.HAL_SRAM_Init     stm32f1xx_hal_sram.o
    0x08001c6c   0x08001c6c   0x00000004   Code   RO          424    i.HAL_SRAM_MspInit  fsmc.o
    0x08001c70   0x08001c70   0x00000018   Code   RO         2274    i.HAL_SYSTICK_CLKSourceConfig  stm32f1xx_hal_cortex.o
    0x08001c88   0x08001c88   0x00000002   Code   RO         2275    i.HAL_SYSTICK_Callback  stm32f1xx_hal_cortex.o
    0x08001c8a   0x08001c8a   0x00000028   Code   RO         2276    i.HAL_SYSTICK_Config  stm32f1xx_hal_cortex.o
    0x08001cb2   0x08001cb2   0x00000008   Code   RO         2277    i.HAL_SYSTICK_IRQHandler  stm32f1xx_hal_cortex.o
    0x08001cba   0x08001cba   0x00000062   Code   RO         1504    i.HAL_UART_Init     stm32f1xx_hal_uart.o
    0x08001d1c   0x08001d1c   0x00000058   Code   RO          516    i.HAL_UART_MspInit  usart.o
    0x08001d74   0x08001d74   0x000000ba   Code   RO         1512    i.HAL_UART_Transmit  stm32f1xx_hal_uart.o
    0x08001e2e   0x08001e2e   0x00000002   PAD
    0x08001e30   0x08001e30   0x0000001c   Code   RO          565    i.HardFault_Handler  stm32f1xx_it.o
    0x08001e4c   0x08001e4c   0x0000006c   Code   RO         2781    i.LCD_Clear         lcd.o
    0x08001eb8   0x08001eb8   0x00000134   Code   RO         2785    i.LCD_Display_Dir   lcd.o
    0x08001fec   0x08001fec   0x00000110   Code   RO         2790    i.LCD_Fast_DrawPoint  lcd.o
    0x080020fc   0x080020fc   0x00002d04   Code   RO         2792    i.LCD_Init          lcd.o
    0x08004e00   0x08004e00   0x00000010   Code   RO         2796    i.LCD_ReadReg       lcd.o
    0x08004e10   0x08004e10   0x0000003c   Code   RO         2797    i.LCD_SSD_BackLightSet  lcd.o
    0x08004e4c   0x08004e4c   0x000001a8   Code   RO         2798    i.LCD_Scan_Dir      lcd.o
    0x08004ff4   0x08004ff4   0x00000140   Code   RO         2799    i.LCD_SetCursor     lcd.o
    0x08005134   0x08005134   0x00000014   Code   RO         2804    i.LCD_WriteRAM_Prepare  lcd.o
    0x08005148   0x08005148   0x00000010   Code   RO         2805    i.LCD_WriteReg      lcd.o
    0x08005158   0x08005158   0x00000054   Code   RO         2732    i.List4_InsertBlock  list4_malloc.o
    0x080051ac   0x080051ac   0x000000a8   Code   RO         2733    i.List4_Malloc      list4_malloc.o
    0x08005254   0x08005254   0x0000008c   Code   RO         2734    i.List4_Malloc_Init  list4_malloc.o
    0x080052e0   0x080052e0   0x0000001c   Code   RO          384    i.MX_FATFS_Init     fatfs.o
    0x080052fc   0x080052fc   0x00000098   Code   RO          425    i.MX_FSMC_Init      fsmc.o
    0x08005394   0x08005394   0x00000094   Code   RO          216    i.MX_GPIO_Init      gpio.o
    0x08005428   0x08005428   0x00000020   Code   RO          475    i.MX_SDIO_SD_Init   sdio.o
    0x08005448   0x08005448   0x0000004c   Code   RO          517    i.MX_USART1_UART_Init  usart.o
    0x08005494   0x08005494   0x0000001c   Code   RO          566    i.MemManage_Handler  stm32f1xx_it.o
    0x080054b0   0x080054b0   0x00000002   Code   RO          567    i.NMI_Handler       stm32f1xx_it.o
    0x080054b2   0x080054b2   0x00000020   Code   RO         2278    i.NVIC_SetPriority  stm32f1xx_hal_cortex.o
    0x080054d2   0x080054d2   0x00000002   PAD
    0x080054d4   0x080054d4   0x00000044   Code   RO         3591    i.NewButton         cuigui_button.o
    0x08005518   0x08005518   0x0000004c   Code   RO         3997    i.NewEdit           cuigui_edit.o
    0x08005564   0x08005564   0x00000136   Code   RO         3592    i.Obj_SkinPressed   cuigui_button.o
    0x0800569a   0x0800569a   0x00000136   Code   RO         3593    i.Obj_SkinUnPressed  cuigui_button.o
    0x080057d0   0x080057d0   0x00000002   Code   RO          568    i.PendSV_Handler    stm32f1xx_it.o
    0x080057d2   0x080057d2   0x00000024   Code   RO          944    i.SDIO_ConfigData   stm32f1xx_ll_sdmmc.o
    0x080057f6   0x080057f6   0x00000008   Code   RO          948    i.SDIO_GetPowerState  stm32f1xx_ll_sdmmc.o
    0x080057fe   0x080057fe   0x0000000c   Code   RO          949    i.SDIO_GetResponse  stm32f1xx_ll_sdmmc.o
    0x0800580a   0x0800580a   0x00000024   Code   RO          950    i.SDIO_Init         stm32f1xx_ll_sdmmc.o
    0x0800582e   0x0800582e   0x00000008   Code   RO          952    i.SDIO_PowerState_ON  stm32f1xx_ll_sdmmc.o
    0x08005836   0x08005836   0x00000006   Code   RO          953    i.SDIO_ReadFIFO     stm32f1xx_ll_sdmmc.o
    0x0800583c   0x0800583c   0x00000020   Code   RO          954    i.SDIO_SendCommand  stm32f1xx_ll_sdmmc.o
    0x0800585c   0x0800585c   0x0000000a   Code   RO          956    i.SDIO_WriteFIFO    stm32f1xx_ll_sdmmc.o
    0x08005866   0x08005866   0x00000032   Code   RO          957    i.SDMMC_CmdAppCommand  stm32f1xx_ll_sdmmc.o
    0x08005898   0x08005898   0x00000034   Code   RO          958    i.SDMMC_CmdAppOperCommand  stm32f1xx_ll_sdmmc.o
    0x080058cc   0x080058cc   0x00000032   Code   RO          959    i.SDMMC_CmdBlockLength  stm32f1xx_ll_sdmmc.o
    0x080058fe   0x080058fe   0x00000032   Code   RO          960    i.SDMMC_CmdBusWidth  stm32f1xx_ll_sdmmc.o
    0x08005930   0x08005930   0x00000050   Code   RO          964    i.SDMMC_CmdGoIdleState  stm32f1xx_ll_sdmmc.o
    0x08005980   0x08005980   0x00000068   Code   RO          966    i.SDMMC_CmdOperCond  stm32f1xx_ll_sdmmc.o
    0x080059e8   0x080059e8   0x00000032   Code   RO          967    i.SDMMC_CmdReadMultiBlock  stm32f1xx_ll_sdmmc.o
    0x08005a1a   0x08005a1a   0x00000032   Code   RO          968    i.SDMMC_CmdReadSingleBlock  stm32f1xx_ll_sdmmc.o
    0x08005a4c   0x08005a4c   0x00000032   Code   RO          971    i.SDMMC_CmdSelDesel  stm32f1xx_ll_sdmmc.o
    0x08005a7e   0x08005a7e   0x0000002c   Code   RO          972    i.SDMMC_CmdSendCID  stm32f1xx_ll_sdmmc.o
    0x08005aaa   0x08005aaa   0x0000002c   Code   RO          973    i.SDMMC_CmdSendCSD  stm32f1xx_ll_sdmmc.o
    0x08005ad6   0x08005ad6   0x00000030   Code   RO          974    i.SDMMC_CmdSendSCR  stm32f1xx_ll_sdmmc.o
    0x08005b06   0x08005b06   0x00000032   Code   RO          975    i.SDMMC_CmdSendStatus  stm32f1xx_ll_sdmmc.o
    0x08005b38   0x08005b38   0x00000030   Code   RO          976    i.SDMMC_CmdSetRelAdd  stm32f1xx_ll_sdmmc.o
    0x08005b68   0x08005b68   0x00000034   Code   RO          978    i.SDMMC_CmdStopTransfer  stm32f1xx_ll_sdmmc.o
    0x08005b9c   0x08005b9c   0x00000032   Code   RO          980    i.SDMMC_CmdWriteMultiBlock  stm32f1xx_ll_sdmmc.o
    0x08005bce   0x08005bce   0x00000032   Code   RO          981    i.SDMMC_CmdWriteSingleBlock  stm32f1xx_ll_sdmmc.o
    0x08005c00   0x08005c00   0x0000011c   Code   RO          982    i.SDMMC_GetCmdResp1  stm32f1xx_ll_sdmmc.o
    0x08005d1c   0x08005d1c   0x00000050   Code   RO          983    i.SDMMC_GetCmdResp2  stm32f1xx_ll_sdmmc.o
    0x08005d6c   0x08005d6c   0x00000040   Code   RO          984    i.SDMMC_GetCmdResp3  stm32f1xx_ll_sdmmc.o
    0x08005dac   0x08005dac   0x00000084   Code   RO          985    i.SDMMC_GetCmdResp6  stm32f1xx_ll_sdmmc.o
    0x08005e30   0x08005e30   0x000000d4   Code   RO         1240    i.SD_FindSCR        stm32f1xx_hal_sd.o
    0x08005f04   0x08005f04   0x000000e6   Code   RO         1241    i.SD_InitCard       stm32f1xx_hal_sd.o
    0x08005fea   0x08005fea   0x000000a2   Code   RO         1242    i.SD_PowerON        stm32f1xx_hal_sd.o
    0x0800608c   0x0800608c   0x0000004e   Code   RO         1244    i.SD_WideBus_Disable  stm32f1xx_hal_sd.o
    0x080060da   0x080060da   0x0000004e   Code   RO         1245    i.SD_WideBus_Enable  stm32f1xx_hal_sd.o
    0x08006128   0x08006128   0x00000020   Code   RO         4146    i.SD_initialize     sd_diskio.o
    0x08006148   0x08006148   0x00000050   Code   RO         4147    i.SD_ioctl          sd_diskio.o
    0x08006198   0x08006198   0x0000003c   Code   RO         4148    i.SD_read           sd_diskio.o
    0x080061d4   0x080061d4   0x00000020   Code   RO         4149    i.SD_status         sd_diskio.o
    0x080061f4   0x080061f4   0x0000003c   Code   RO         4150    i.SD_write          sd_diskio.o
    0x08006230   0x08006230   0x00000002   Code   RO          569    i.SVC_Handler       stm32f1xx_it.o
    0x08006232   0x08006232   0x0000000e   Code   RO          570    i.SysTick_Handler   stm32f1xx_it.o
    0x08006240   0x08006240   0x00000080   Code   RO           13    i.SystemClock_Config  main.o
    0x080062c0   0x080062c0   0x00000048   Code   RO         2694    i.SystemInit        system_stm32f1xx.o
    0x08006308   0x08006308   0x00000170   Code   RO         1530    i.UART_SetConfig    stm32f1xx_hal_uart.o
    0x08006478   0x08006478   0x00000064   Code   RO         1532    i.UART_WaitOnFlagUntilTimeout  stm32f1xx_hal_uart.o
    0x080064dc   0x080064dc   0x00000020   Code   RO          571    i.UsageFault_Handler  stm32f1xx_it.o
    0x080064fc   0x080064fc   0x00000028   Code   RO           14    i._Error_Handler    main.o
    0x08006524   0x08006524   0x00000020   Code   RO         4792    i.__0printf$5       mc_w.l(printf5.o)
    0x08006544   0x08006544   0x0000000e   Code   RO         4986    i.__scatterload_copy  mc_w.l(handlers.o)
    0x08006552   0x08006552   0x00000002   Code   RO         4987    i.__scatterload_null  mc_w.l(handlers.o)
    0x08006554   0x08006554   0x0000000e   Code   RO         4988    i.__scatterload_zeroinit  mc_w.l(handlers.o)
    0x08006562   0x08006562   0x00000070   Code   RO         3420    i._draw_model       gui.o
    0x080065d2   0x080065d2   0x00000002   PAD
    0x080065d4   0x080065d4   0x000002c0   Code   RO         4799    i._printf_core      mc_w.l(printf5.o)
    0x08006894   0x08006894   0x00000060   Code   RO         4260    i.check_fs          ff.o
    0x080068f4   0x080068f4   0x00000024   Code   RO         4263    i.clear_lock        ff.o
    0x08006918   0x08006918   0x00000028   Code   RO         4205    i.disk_initialize   diskio.o
    0x08006940   0x08006940   0x0000001c   Code   RO         4207    i.disk_read         diskio.o
    0x0800695c   0x0800695c   0x00000018   Code   RO         4208    i.disk_status       diskio.o
    0x08006974   0x08006974   0x0000001c   Code   RO         4209    i.disk_write        diskio.o
    0x08006990   0x08006990   0x0000005c   Code   RO         4283    i.f_mount           ff.o
    0x080069ec   0x080069ec   0x00000258   Code   RO         4298    i.find_volume       ff.o
    0x08006c44   0x08006c44   0x00000018   Code   RO          518    i.fputc             usart.o
    0x08006c5c   0x08006c5c   0x0000003c   Code   RO         4303    i.get_ldnumber      ff.o
    0x08006c98   0x08006c98   0x00000168   Code   RO           15    i.main              main.o
    0x08006e00   0x08006e00   0x00000036   Code   RO         4308    i.move_window       ff.o
    0x08006e36   0x08006e36   0x00000060   Code   RO         4315    i.sync_window       ff.o
    0x08006e96   0x08006e96   0x00000010   Data   RO         2695    .constdata          system_stm32f1xx.o
    0x08006ea6   0x08006ea6   0x00000008   Data   RO         2696    .constdata          system_stm32f1xx.o
    0x08006eae   0x08006eae   0x00000018   Data   RO         2960    .constdata          microsoftyaheiascii24.o
    0x08006ec6   0x08006ec6   0x00000018   Data   RO         2961    .constdata          microsoftyaheiascii24.o
    0x08006ede   0x08006ede   0x00000018   Data   RO         2962    .constdata          microsoftyaheiascii24.o
    0x08006ef6   0x08006ef6   0x00000030   Data   RO         2963    .constdata          microsoftyaheiascii24.o
    0x08006f26   0x08006f26   0x00000030   Data   RO         2964    .constdata          microsoftyaheiascii24.o
    0x08006f56   0x08006f56   0x00000030   Data   RO         2965    .constdata          microsoftyaheiascii24.o
    0x08006f86   0x08006f86   0x00000030   Data   RO         2966    .constdata          microsoftyaheiascii24.o
    0x08006fb6   0x08006fb6   0x00000018   Data   RO         2967    .constdata          microsoftyaheiascii24.o
    0x08006fce   0x08006fce   0x00000018   Data   RO         2968    .constdata          microsoftyaheiascii24.o
    0x08006fe6   0x08006fe6   0x00000018   Data   RO         2969    .constdata          microsoftyaheiascii24.o
    0x08006ffe   0x08006ffe   0x00000018   Data   RO         2970    .constdata          microsoftyaheiascii24.o
    0x08007016   0x08007016   0x00000030   Data   RO         2971    .constdata          microsoftyaheiascii24.o
    0x08007046   0x08007046   0x00000018   Data   RO         2972    .constdata          microsoftyaheiascii24.o
    0x0800705e   0x0800705e   0x00000018   Data   RO         2973    .constdata          microsoftyaheiascii24.o
    0x08007076   0x08007076   0x00000018   Data   RO         2974    .constdata          microsoftyaheiascii24.o
    0x0800708e   0x0800708e   0x00000018   Data   RO         2975    .constdata          microsoftyaheiascii24.o
    0x080070a6   0x080070a6   0x00000030   Data   RO         2976    .constdata          microsoftyaheiascii24.o
    0x080070d6   0x080070d6   0x00000030   Data   RO         2977    .constdata          microsoftyaheiascii24.o
    0x08007106   0x08007106   0x00000030   Data   RO         2978    .constdata          microsoftyaheiascii24.o
    0x08007136   0x08007136   0x00000030   Data   RO         2979    .constdata          microsoftyaheiascii24.o
    0x08007166   0x08007166   0x00000030   Data   RO         2980    .constdata          microsoftyaheiascii24.o
    0x08007196   0x08007196   0x00000030   Data   RO         2981    .constdata          microsoftyaheiascii24.o
    0x080071c6   0x080071c6   0x00000030   Data   RO         2982    .constdata          microsoftyaheiascii24.o
    0x080071f6   0x080071f6   0x00000030   Data   RO         2983    .constdata          microsoftyaheiascii24.o
    0x08007226   0x08007226   0x00000030   Data   RO         2984    .constdata          microsoftyaheiascii24.o
    0x08007256   0x08007256   0x00000030   Data   RO         2985    .constdata          microsoftyaheiascii24.o
    0x08007286   0x08007286   0x00000018   Data   RO         2986    .constdata          microsoftyaheiascii24.o
    0x0800729e   0x0800729e   0x00000018   Data   RO         2987    .constdata          microsoftyaheiascii24.o
    0x080072b6   0x080072b6   0x00000030   Data   RO         2988    .constdata          microsoftyaheiascii24.o
    0x080072e6   0x080072e6   0x00000030   Data   RO         2989    .constdata          microsoftyaheiascii24.o
    0x08007316   0x08007316   0x00000030   Data   RO         2990    .constdata          microsoftyaheiascii24.o
    0x08007346   0x08007346   0x00000030   Data   RO         2991    .constdata          microsoftyaheiascii24.o
    0x08007376   0x08007376   0x00000048   Data   RO         2992    .constdata          microsoftyaheiascii24.o
    0x080073be   0x080073be   0x00000030   Data   RO         2993    .constdata          microsoftyaheiascii24.o
    0x080073ee   0x080073ee   0x00000030   Data   RO         2994    .constdata          microsoftyaheiascii24.o
    0x0800741e   0x0800741e   0x00000030   Data   RO         2995    .constdata          microsoftyaheiascii24.o
    0x0800744e   0x0800744e   0x00000030   Data   RO         2996    .constdata          microsoftyaheiascii24.o
    0x0800747e   0x0800747e   0x00000030   Data   RO         2997    .constdata          microsoftyaheiascii24.o
    0x080074ae   0x080074ae   0x00000030   Data   RO         2998    .constdata          microsoftyaheiascii24.o
    0x080074de   0x080074de   0x00000030   Data   RO         2999    .constdata          microsoftyaheiascii24.o
    0x0800750e   0x0800750e   0x00000030   Data   RO         3000    .constdata          microsoftyaheiascii24.o
    0x0800753e   0x0800753e   0x00000018   Data   RO         3001    .constdata          microsoftyaheiascii24.o
    0x08007556   0x08007556   0x00000018   Data   RO         3002    .constdata          microsoftyaheiascii24.o
    0x0800756e   0x0800756e   0x00000030   Data   RO         3003    .constdata          microsoftyaheiascii24.o
    0x0800759e   0x0800759e   0x00000030   Data   RO         3004    .constdata          microsoftyaheiascii24.o
    0x080075ce   0x080075ce   0x00000048   Data   RO         3005    .constdata          microsoftyaheiascii24.o
    0x08007616   0x08007616   0x00000030   Data   RO         3006    .constdata          microsoftyaheiascii24.o
    0x08007646   0x08007646   0x00000030   Data   RO         3007    .constdata          microsoftyaheiascii24.o
    0x08007676   0x08007676   0x00000030   Data   RO         3008    .constdata          microsoftyaheiascii24.o
    0x080076a6   0x080076a6   0x00000030   Data   RO         3009    .constdata          microsoftyaheiascii24.o
    0x080076d6   0x080076d6   0x00000030   Data   RO         3010    .constdata          microsoftyaheiascii24.o
    0x08007706   0x08007706   0x00000030   Data   RO         3011    .constdata          microsoftyaheiascii24.o
    0x08007736   0x08007736   0x00000030   Data   RO         3012    .constdata          microsoftyaheiascii24.o
    0x08007766   0x08007766   0x00000030   Data   RO         3013    .constdata          microsoftyaheiascii24.o
    0x08007796   0x08007796   0x00000030   Data   RO         3014    .constdata          microsoftyaheiascii24.o
    0x080077c6   0x080077c6   0x00000048   Data   RO         3015    .constdata          microsoftyaheiascii24.o
    0x0800780e   0x0800780e   0x00000030   Data   RO         3016    .constdata          microsoftyaheiascii24.o
    0x0800783e   0x0800783e   0x00000030   Data   RO         3017    .constdata          microsoftyaheiascii24.o
    0x0800786e   0x0800786e   0x00000030   Data   RO         3018    .constdata          microsoftyaheiascii24.o
    0x0800789e   0x0800789e   0x00000018   Data   RO         3019    .constdata          microsoftyaheiascii24.o
    0x080078b6   0x080078b6   0x00000018   Data   RO         3020    .constdata          microsoftyaheiascii24.o
    0x080078ce   0x080078ce   0x00000018   Data   RO         3021    .constdata          microsoftyaheiascii24.o
    0x080078e6   0x080078e6   0x00000030   Data   RO         3022    .constdata          microsoftyaheiascii24.o
    0x08007916   0x08007916   0x00000018   Data   RO         3023    .constdata          microsoftyaheiascii24.o
    0x0800792e   0x0800792e   0x00000018   Data   RO         3024    .constdata          microsoftyaheiascii24.o
    0x08007946   0x08007946   0x00000030   Data   RO         3025    .constdata          microsoftyaheiascii24.o
    0x08007976   0x08007976   0x00000030   Data   RO         3026    .constdata          microsoftyaheiascii24.o
    0x080079a6   0x080079a6   0x00000030   Data   RO         3027    .constdata          microsoftyaheiascii24.o
    0x080079d6   0x080079d6   0x00000030   Data   RO         3028    .constdata          microsoftyaheiascii24.o
    0x08007a06   0x08007a06   0x00000030   Data   RO         3029    .constdata          microsoftyaheiascii24.o
    0x08007a36   0x08007a36   0x00000018   Data   RO         3030    .constdata          microsoftyaheiascii24.o
    0x08007a4e   0x08007a4e   0x00000030   Data   RO         3031    .constdata          microsoftyaheiascii24.o
    0x08007a7e   0x08007a7e   0x00000030   Data   RO         3032    .constdata          microsoftyaheiascii24.o
    0x08007aae   0x08007aae   0x00000018   Data   RO         3033    .constdata          microsoftyaheiascii24.o
    0x08007ac6   0x08007ac6   0x00000018   Data   RO         3034    .constdata          microsoftyaheiascii24.o
    0x08007ade   0x08007ade   0x00000030   Data   RO         3035    .constdata          microsoftyaheiascii24.o
    0x08007b0e   0x08007b0e   0x00000018   Data   RO         3036    .constdata          microsoftyaheiascii24.o
    0x08007b26   0x08007b26   0x00000048   Data   RO         3037    .constdata          microsoftyaheiascii24.o
    0x08007b6e   0x08007b6e   0x00000030   Data   RO         3038    .constdata          microsoftyaheiascii24.o
    0x08007b9e   0x08007b9e   0x00000030   Data   RO         3039    .constdata          microsoftyaheiascii24.o
    0x08007bce   0x08007bce   0x00000030   Data   RO         3040    .constdata          microsoftyaheiascii24.o
    0x08007bfe   0x08007bfe   0x00000030   Data   RO         3041    .constdata          microsoftyaheiascii24.o
    0x08007c2e   0x08007c2e   0x00000018   Data   RO         3042    .constdata          microsoftyaheiascii24.o
    0x08007c46   0x08007c46   0x00000018   Data   RO         3043    .constdata          microsoftyaheiascii24.o
    0x08007c5e   0x08007c5e   0x00000018   Data   RO         3044    .constdata          microsoftyaheiascii24.o
    0x08007c76   0x08007c76   0x00000030   Data   RO         3045    .constdata          microsoftyaheiascii24.o
    0x08007ca6   0x08007ca6   0x00000030   Data   RO         3046    .constdata          microsoftyaheiascii24.o
    0x08007cd6   0x08007cd6   0x00000030   Data   RO         3047    .constdata          microsoftyaheiascii24.o
    0x08007d06   0x08007d06   0x00000030   Data   RO         3048    .constdata          microsoftyaheiascii24.o
    0x08007d36   0x08007d36   0x00000030   Data   RO         3049    .constdata          microsoftyaheiascii24.o
    0x08007d66   0x08007d66   0x00000030   Data   RO         3050    .constdata          microsoftyaheiascii24.o
    0x08007d96   0x08007d96   0x00000018   Data   RO         3051    .constdata          microsoftyaheiascii24.o
    0x08007dae   0x08007dae   0x00000018   Data   RO         3052    .constdata          microsoftyaheiascii24.o
    0x08007dc6   0x08007dc6   0x00000018   Data   RO         3053    .constdata          microsoftyaheiascii24.o
    0x08007dde   0x08007dde   0x00000030   Data   RO         3054    .constdata          microsoftyaheiascii24.o
    0x08007e0e   0x08007e0e   0x00000018   Data   RO         3055    .constdata          microsoftyaheiascii24.o
    0x08007e26   0x08007e26   0x00000018   Data   RO         3056    .constdata          microsoftyaheiascii24.o
    0x08007e3e   0x08007e3e   0x00000018   Data   RO         3057    .constdata          microsoftyaheiascii24.o
    0x08007e56   0x08007e56   0x00000030   Data   RO         3058    .constdata          microsoftyaheiascii24.o
    0x08007e86   0x08007e86   0x00000030   Data   RO         3059    .constdata          microsoftyaheiascii24.o
    0x08007eb6   0x08007eb6   0x00000030   Data   RO         3060    .constdata          microsoftyaheiascii24.o
    0x08007ee6   0x08007ee6   0x00000030   Data   RO         3061    .constdata          microsoftyaheiascii24.o
    0x08007f16   0x08007f16   0x00000018   Data   RO         3062    .constdata          microsoftyaheiascii24.o
    0x08007f2e   0x08007f2e   0x00000030   Data   RO         3063    .constdata          microsoftyaheiascii24.o
    0x08007f5e   0x08007f5e   0x00000018   Data   RO         3064    .constdata          microsoftyaheiascii24.o
    0x08007f76   0x08007f76   0x00000048   Data   RO         3065    .constdata          microsoftyaheiascii24.o
    0x08007fbe   0x08007fbe   0x00000018   Data   RO         3066    .constdata          microsoftyaheiascii24.o
    0x08007fd6   0x08007fd6   0x00000030   Data   RO         3067    .constdata          microsoftyaheiascii24.o
    0x08008006   0x08008006   0x00000030   Data   RO         3068    .constdata          microsoftyaheiascii24.o
    0x08008036   0x08008036   0x00000018   Data   RO         3069    .constdata          microsoftyaheiascii24.o
    0x0800804e   0x0800804e   0x00000048   Data   RO         3070    .constdata          microsoftyaheiascii24.o
    0x08008096   0x08008096   0x00000018   Data   RO         3071    .constdata          microsoftyaheiascii24.o
    0x080080ae   0x080080ae   0x00000018   Data   RO         3072    .constdata          microsoftyaheiascii24.o
    0x080080c6   0x080080c6   0x00000030   Data   RO         3073    .constdata          microsoftyaheiascii24.o
    0x080080f6   0x080080f6   0x00000018   Data   RO         3074    .constdata          microsoftyaheiascii24.o
    0x0800810e   0x0800810e   0x00000018   Data   RO         3075    .constdata          microsoftyaheiascii24.o
    0x08008126   0x08008126   0x00000018   Data   RO         3076    .constdata          microsoftyaheiascii24.o
    0x0800813e   0x0800813e   0x00000030   Data   RO         3077    .constdata          microsoftyaheiascii24.o
    0x0800816e   0x0800816e   0x00000030   Data   RO         3078    .constdata          microsoftyaheiascii24.o
    0x0800819e   0x0800819e   0x00000018   Data   RO         3079    .constdata          microsoftyaheiascii24.o
    0x080081b6   0x080081b6   0x00000018   Data   RO         3080    .constdata          microsoftyaheiascii24.o
    0x080081ce   0x080081ce   0x00000018   Data   RO         3081    .constdata          microsoftyaheiascii24.o
    0x080081e6   0x080081e6   0x00000018   Data   RO         3082    .constdata          microsoftyaheiascii24.o
    0x080081fe   0x080081fe   0x00000030   Data   RO         3083    .constdata          microsoftyaheiascii24.o
    0x0800822e   0x0800822e   0x00000048   Data   RO         3084    .constdata          microsoftyaheiascii24.o
    0x08008276   0x08008276   0x00000048   Data   RO         3085    .constdata          microsoftyaheiascii24.o
    0x080082be   0x080082be   0x00000048   Data   RO         3086    .constdata          microsoftyaheiascii24.o
    0x08008306   0x08008306   0x00000030   Data   RO         3087    .constdata          microsoftyaheiascii24.o
    0x08008336   0x08008336   0x00000030   Data   RO         3088    .constdata          microsoftyaheiascii24.o
    0x08008366   0x08008366   0x00000030   Data   RO         3089    .constdata          microsoftyaheiascii24.o
    0x08008396   0x08008396   0x00000030   Data   RO         3090    .constdata          microsoftyaheiascii24.o
    0x080083c6   0x080083c6   0x00000030   Data   RO         3091    .constdata          microsoftyaheiascii24.o
    0x080083f6   0x080083f6   0x00000030   Data   RO         3092    .constdata          microsoftyaheiascii24.o
    0x08008426   0x08008426   0x00000030   Data   RO         3093    .constdata          microsoftyaheiascii24.o
    0x08008456   0x08008456   0x00000048   Data   RO         3094    .constdata          microsoftyaheiascii24.o
    0x0800849e   0x0800849e   0x00000030   Data   RO         3095    .constdata          microsoftyaheiascii24.o
    0x080084ce   0x080084ce   0x00000030   Data   RO         3096    .constdata          microsoftyaheiascii24.o
    0x080084fe   0x080084fe   0x00000030   Data   RO         3097    .constdata          microsoftyaheiascii24.o
    0x0800852e   0x0800852e   0x00000030   Data   RO         3098    .constdata          microsoftyaheiascii24.o
    0x0800855e   0x0800855e   0x00000030   Data   RO         3099    .constdata          microsoftyaheiascii24.o
    0x0800858e   0x0800858e   0x00000018   Data   RO         3100    .constdata          microsoftyaheiascii24.o
    0x080085a6   0x080085a6   0x00000018   Data   RO         3101    .constdata          microsoftyaheiascii24.o
    0x080085be   0x080085be   0x00000018   Data   RO         3102    .constdata          microsoftyaheiascii24.o
    0x080085d6   0x080085d6   0x00000018   Data   RO         3103    .constdata          microsoftyaheiascii24.o
    0x080085ee   0x080085ee   0x00000030   Data   RO         3104    .constdata          microsoftyaheiascii24.o
    0x0800861e   0x0800861e   0x00000030   Data   RO         3105    .constdata          microsoftyaheiascii24.o
    0x0800864e   0x0800864e   0x00000030   Data   RO         3106    .constdata          microsoftyaheiascii24.o
    0x0800867e   0x0800867e   0x00000030   Data   RO         3107    .constdata          microsoftyaheiascii24.o
    0x080086ae   0x080086ae   0x00000030   Data   RO         3108    .constdata          microsoftyaheiascii24.o
    0x080086de   0x080086de   0x00000030   Data   RO         3109    .constdata          microsoftyaheiascii24.o
    0x0800870e   0x0800870e   0x00000030   Data   RO         3110    .constdata          microsoftyaheiascii24.o
    0x0800873e   0x0800873e   0x00000030   Data   RO         3111    .constdata          microsoftyaheiascii24.o
    0x0800876e   0x0800876e   0x00000030   Data   RO         3112    .constdata          microsoftyaheiascii24.o
    0x0800879e   0x0800879e   0x00000030   Data   RO         3113    .constdata          microsoftyaheiascii24.o
    0x080087ce   0x080087ce   0x00000030   Data   RO         3114    .constdata          microsoftyaheiascii24.o
    0x080087fe   0x080087fe   0x00000030   Data   RO         3115    .constdata          microsoftyaheiascii24.o
    0x0800882e   0x0800882e   0x00000030   Data   RO         3116    .constdata          microsoftyaheiascii24.o
    0x0800885e   0x0800885e   0x00000030   Data   RO         3117    .constdata          microsoftyaheiascii24.o
    0x0800888e   0x0800888e   0x00000030   Data   RO         3118    .constdata          microsoftyaheiascii24.o
    0x080088be   0x080088be   0x00000030   Data   RO         3119    .constdata          microsoftyaheiascii24.o
    0x080088ee   0x080088ee   0x00000030   Data   RO         3120    .constdata          microsoftyaheiascii24.o
    0x0800891e   0x0800891e   0x00000030   Data   RO         3121    .constdata          microsoftyaheiascii24.o
    0x0800894e   0x0800894e   0x00000030   Data   RO         3122    .constdata          microsoftyaheiascii24.o
    0x0800897e   0x0800897e   0x00000030   Data   RO         3123    .constdata          microsoftyaheiascii24.o
    0x080089ae   0x080089ae   0x00000030   Data   RO         3124    .constdata          microsoftyaheiascii24.o
    0x080089de   0x080089de   0x00000030   Data   RO         3125    .constdata          microsoftyaheiascii24.o
    0x08008a0e   0x08008a0e   0x00000030   Data   RO         3126    .constdata          microsoftyaheiascii24.o
    0x08008a3e   0x08008a3e   0x00000030   Data   RO         3127    .constdata          microsoftyaheiascii24.o
    0x08008a6e   0x08008a6e   0x00000030   Data   RO         3128    .constdata          microsoftyaheiascii24.o
    0x08008a9e   0x08008a9e   0x00000030   Data   RO         3129    .constdata          microsoftyaheiascii24.o
    0x08008ace   0x08008ace   0x00000030   Data   RO         3130    .constdata          microsoftyaheiascii24.o
    0x08008afe   0x08008afe   0x00000030   Data   RO         3131    .constdata          microsoftyaheiascii24.o
    0x08008b2e   0x08008b2e   0x00000018   Data   RO         3132    .constdata          microsoftyaheiascii24.o
    0x08008b46   0x08008b46   0x00000018   Data   RO         3133    .constdata          microsoftyaheiascii24.o
    0x08008b5e   0x08008b5e   0x00000018   Data   RO         3134    .constdata          microsoftyaheiascii24.o
    0x08008b76   0x08008b76   0x00000018   Data   RO         3135    .constdata          microsoftyaheiascii24.o
    0x08008b8e   0x08008b8e   0x00000030   Data   RO         3136    .constdata          microsoftyaheiascii24.o
    0x08008bbe   0x08008bbe   0x00000030   Data   RO         3137    .constdata          microsoftyaheiascii24.o
    0x08008bee   0x08008bee   0x00000030   Data   RO         3138    .constdata          microsoftyaheiascii24.o
    0x08008c1e   0x08008c1e   0x00000030   Data   RO         3139    .constdata          microsoftyaheiascii24.o
    0x08008c4e   0x08008c4e   0x00000030   Data   RO         3140    .constdata          microsoftyaheiascii24.o
    0x08008c7e   0x08008c7e   0x00000030   Data   RO         3141    .constdata          microsoftyaheiascii24.o
    0x08008cae   0x08008cae   0x00000030   Data   RO         3142    .constdata          microsoftyaheiascii24.o
    0x08008cde   0x08008cde   0x00000030   Data   RO         3143    .constdata          microsoftyaheiascii24.o
    0x08008d0e   0x08008d0e   0x00000030   Data   RO         3144    .constdata          microsoftyaheiascii24.o
    0x08008d3e   0x08008d3e   0x00000030   Data   RO         3145    .constdata          microsoftyaheiascii24.o
    0x08008d6e   0x08008d6e   0x00000030   Data   RO         3146    .constdata          microsoftyaheiascii24.o
    0x08008d9e   0x08008d9e   0x00000030   Data   RO         3147    .constdata          microsoftyaheiascii24.o
    0x08008dce   0x08008dce   0x00000030   Data   RO         3148    .constdata          microsoftyaheiascii24.o
    0x08008dfe   0x08008dfe   0x00000030   Data   RO         3149    .constdata          microsoftyaheiascii24.o
    0x08008e2e   0x08008e2e   0x00000030   Data   RO         3150    .constdata          microsoftyaheiascii24.o
    0x08008e5e   0x08008e5e   0x00000030   Data   RO         3151    .constdata          microsoftyaheiascii24.o
    0x08008e8e   0x08008e8e   0x00000030   Data   RO         3152    .constdata          microsoftyaheiascii24.o
    0x08008ebe   0x08008ebe   0x00000030   Data   RO         3153    .constdata          microsoftyaheiascii24.o
    0x08008eee   0x08008eee   0x00000030   Data   RO         3154    .constdata          microsoftyaheiascii24.o
    0x08008f1e   0x08008f1e   0x00000030   Data   RO         3155    .constdata          microsoftyaheiascii24.o
    0x08008f4e   0x08008f4e   0x00000030   Data   RO         3156    .constdata          microsoftyaheiascii24.o
    0x08008f7e   0x08008f7e   0x00000030   Data   RO         3157    .constdata          microsoftyaheiascii24.o
    0x08008fae   0x08008fae   0x00000030   Data   RO         3158    .constdata          microsoftyaheiascii24.o
    0x08008fde   0x08008fde   0x00000030   Data   RO         3159    .constdata          microsoftyaheiascii24.o
    0x0800900e   0x0800900e   0x00000030   Data   RO         3160    .constdata          microsoftyaheiascii24.o
    0x0800903e   0x0800903e   0x00000030   Data   RO         3161    .constdata          microsoftyaheiascii24.o
    0x0800906e   0x0800906e   0x00000030   Data   RO         3162    .constdata          microsoftyaheiascii24.o
    0x0800909e   0x0800909e   0x00000030   Data   RO         3163    .constdata          microsoftyaheiascii24.o
    0x080090ce   0x080090ce   0x00000030   Data   RO         3164    .constdata          microsoftyaheiascii24.o
    0x080090fe   0x080090fe   0x00000030   Data   RO         3165    .constdata          microsoftyaheiascii24.o
    0x0800912e   0x0800912e   0x00000030   Data   RO         3166    .constdata          microsoftyaheiascii24.o
    0x0800915e   0x0800915e   0x00000030   Data   RO         3167    .constdata          microsoftyaheiascii24.o
    0x0800918e   0x0800918e   0x00000030   Data   RO         3168    .constdata          microsoftyaheiascii24.o
    0x080091be   0x080091be   0x00000030   Data   RO         3169    .constdata          microsoftyaheiascii24.o
    0x080091ee   0x080091ee   0x00000030   Data   RO         3170    .constdata          microsoftyaheiascii24.o
    0x0800921e   0x0800921e   0x00000030   Data   RO         3171    .constdata          microsoftyaheiascii24.o
    0x0800924e   0x0800924e   0x00000030   Data   RO         3172    .constdata          microsoftyaheiascii24.o
    0x0800927e   0x0800927e   0x00000030   Data   RO         3173    .constdata          microsoftyaheiascii24.o
    0x080092ae   0x080092ae   0x00000030   Data   RO         3174    .constdata          microsoftyaheiascii24.o
    0x080092de   0x080092de   0x00000030   Data   RO         3175    .constdata          microsoftyaheiascii24.o
    0x0800930e   0x0800930e   0x00000030   Data   RO         3176    .constdata          microsoftyaheiascii24.o
    0x0800933e   0x0800933e   0x00000030   Data   RO         3177    .constdata          microsoftyaheiascii24.o
    0x0800936e   0x0800936e   0x00000030   Data   RO         3178    .constdata          microsoftyaheiascii24.o
    0x0800939e   0x0800939e   0x00000030   Data   RO         3179    .constdata          microsoftyaheiascii24.o
    0x080093ce   0x080093ce   0x00000030   Data   RO         3180    .constdata          microsoftyaheiascii24.o
    0x080093fe   0x080093fe   0x00000030   Data   RO         3181    .constdata          microsoftyaheiascii24.o
    0x0800942e   0x0800942e   0x00000030   Data   RO         3182    .constdata          microsoftyaheiascii24.o
    0x0800945e   0x0800945e   0x00000030   Data   RO         3183    .constdata          microsoftyaheiascii24.o
    0x0800948e   0x0800948e   0x00000030   Data   RO         3184    .constdata          microsoftyaheiascii24.o
    0x080094be   0x080094be   0x00000030   Data   RO         3185    .constdata          microsoftyaheiascii24.o
    0x080094ee   0x080094ee   0x00000030   Data   RO         3186    .constdata          microsoftyaheiascii24.o
    0x0800951e   0x0800951e   0x00000030   Data   RO         3187    .constdata          microsoftyaheiascii24.o
    0x0800954e   0x0800954e   0x00000030   Data   RO         3188    .constdata          microsoftyaheiascii24.o
    0x0800957e   0x0800957e   0x00000030   Data   RO         3189    .constdata          microsoftyaheiascii24.o
    0x080095ae   0x080095ae   0x00000030   Data   RO         3190    .constdata          microsoftyaheiascii24.o
    0x080095de   0x080095de   0x00000030   Data   RO         3191    .constdata          microsoftyaheiascii24.o
    0x0800960e   0x0800960e   0x00000002   PAD
    0x08009610   0x08009610   0x00000740   Data   RO         3192    .constdata          microsoftyaheiascii24.o
    0x08009d50   0x08009d50   0x0000000c   Data   RO         3193    .constdata          microsoftyaheiascii24.o
    0x08009d5c   0x08009d5c   0x0000000c   Data   RO         3194    .constdata          microsoftyaheiascii24.o
    0x08009d68   0x08009d68   0x00000010   Data   RO         3195    .constdata          microsoftyaheiascii24.o
    0x08009d78   0x08009d78   0x00000048   Data   RO         3226    .constdata          songti24.o
    0x08009dc0   0x08009dc0   0x00000008   Data   RO         3227    .constdata          songti24.o
    0x08009dc8   0x08009dc8   0x0000000c   Data   RO         3228    .constdata          songti24.o
    0x08009dd4   0x08009dd4   0x00000010   Data   RO         3229    .constdata          songti24.o
    0x08009de4   0x08009de4   0x00000004   Data   RO         3422    .constdata          gui.o
    0x08009de8   0x08009de8   0x00000014   Data   RO         4151    .constdata          sd_diskio.o
    0x08009dfc   0x08009dfc   0x00000020   Data   RO         4984    Region$$Table       anon$$obj.o


    Execution Region RW_IRAM1 (Exec base: 0x20000000, Load base: 0x08009e1c, Size: 0x0000e5b8, Max: 0x00010000, ABSOLUTE)

    Exec Addr    Load Addr    Size         Type   Attr      Idx    E Section Name        Object

    0x20000000   0x08009e1c   0x00000005   Data   RW          388    .data               fatfs.o
    0x20000005   0x08009e21   0x00000003   PAD
    0x20000008   0x08009e24   0x00000008   Data   RW          427    .data               fsmc.o
    0x20000010   0x08009e2c   0x0000000c   Data   RW         1828    .data               stm32f1xx_hal.o
    0x2000001c   0x08009e38   0x00000004   Data   RW         2697    .data               system_stm32f1xx.o
    0x20000020   0x08009e3c   0x00000004   Data   RW         3423    .data               gui.o
    0x20000024   0x08009e40   0x00000004   Data   RW         3742    .data               cuigui_bmp.o
    0x20000028   0x08009e44   0x00000001   Data   RW         4152    .data               sd_diskio.o
    0x20000029   0x08009e45   0x00000003   PAD
    0x2000002c   0x08009e48   0x00000008   Data   RW         4319    .data               ff.o
    0x20000034   0x08009e50   0x00000004   Data   RW         4964    .data               mc_w.l(stdout.o)
    0x20000038        -       0x00000230   Zero   RW          386    .bss                fatfs.o
    0x20000268        -       0x00000044   Zero   RW          426    .bss                fsmc.o
    0x200002ac        -       0x00000084   Zero   RW          476    .bss                sdio.o
    0x20000330        -       0x00000040   Zero   RW          519    .bss                usart.o
    0x20000370        -       0x00000010   Zero   RW         2735    .bss                list4_malloc.o
    0x20000380        -       0x0000dc00   Zero   RW         2736    .bss                list4_malloc.o
    0x2000df80        -       0x0000000e   Zero   RW         2807    .bss                lcd.o
    0x2000df8e   0x08009e54   0x00000002   PAD
    0x2000df90        -       0x00000018   Zero   RW         4317    .bss                ff.o
    0x2000dfa8        -       0x0000000c   Zero   RW         4605    .bss                ff_gen_drv.o
    0x2000dfb4   0x08009e54   0x00000004   PAD
    0x2000dfb8        -       0x00000600   Zero   RW            1    STACK               startup_stm32f103xe.o


==============================================================================

Image component sizes


      Code (inc. data)   RO Data    RW Data    ZI Data      Debug   Object Name

       152         24          0          0          0       3266   bsp_driver_sd.o
        24         10          0          4          0        706   cuigui_bmp.o
       804         10          0          0          0       4784   cuigui_button.o
        16          0          0          0          0       2799   cuigui_color.o
       580          8          0          0          0       5365   cuigui_edit.o
       160          0          0          0          0        754   cuigui_groupbox.o
       174          8          0          0          0       9514   cuigui_lcddriver.o
       120         18          0          0          0       2852   diskio.o
        28         10          0          5        560        958   fatfs.o
      1034         26          0          8         24      10051   ff.o
        70          4          0          0         12       1531   ff_gen_drv.o
       272         50          0          8         68       2951   fsmc.o
       148         10          0          0          0        955   gpio.o
       440         24          4          4          0      12005   gui.o
     13068        128          0          0         14      47591   lcd.o
       392        134          0          0      56336       3508   list4_malloc.o
       528        166          0          0          0     502822   main.o
         0          0      11976          0          0      30154   microsoftyaheiascii24.o
         0          0          0          0          0        788   relative_layout.o
       264         34         20          1          0       4244   sd_diskio.o
       120         24          0          0        132       1445   sdio.o
         0          0        108          0          0       5992   songti24.o
        36          8        304          0       1536        784   startup_stm32f103xe.o
       164         28          0         12          0       3721   stm32f1xx_hal.o
       206         14          0          0          0      26620   stm32f1xx_hal_cortex.o
       498         42          0          0          0       2836   stm32f1xx_hal_gpio.o
       144         10          0          0          0        878   stm32f1xx_hal_msp.o
      1296        104          0          0          0       5528   stm32f1xx_hal_rcc.o
      2594          4          0          0          0      13180   stm32f1xx_hal_sd.o
        86          0          0          0          0       1156   stm32f1xx_hal_sram.o
       752          4          0          0          0       3828   stm32f1xx_hal_uart.o
       138         84          0          0          0       3710   stm32f1xx_it.o
       280         12          0          0          0       2499   stm32f1xx_ll_fsmc.o
      1630         42          0          0          0      21271   stm32f1xx_ll_sdmmc.o
        72         16         24          4          0       1111   system_stm32f1xx.o
       188         40          0          0         64       2002   usart.o

    ----------------------------------------------------------------------
     26496       1096      12470         52      58752     744159   Object Totals
         0          0         32          0          0          0   (incl. Generated)
        18          0          2          6          6          0   (incl. Padding)

    ----------------------------------------------------------------------

      Code (inc. data)   RO Data    RW Data    ZI Data      Debug   Library Member Name

         0          0          0          0          0          0   entry.o
         0          0          0          0          0          0   entry10a.o
         0          0          0          0          0          0   entry11a.o
         8          4          0          0          0          0   entry2.o
         4          0          0          0          0          0   entry5.o
         0          0          0          0          0          0   entry7b.o
         0          0          0          0          0          0   entry8b.o
         8          4          0          0          0          0   entry9a.o
        30          0          0          0          0          0   handlers.o
        36          8          0          0          0         68   init.o
         0          0          0          0          0          0   iusefp.o
        30          0          0          0          0         68   llshl.o
        32          0          0          0          0         68   llushr.o
        36          0          0          0          0        108   memseta.o
       736         56          0          0          0        184   printf5.o
         0          0          0          4          0          0   stdout.o
        98          0          0          0          0         92   uldiv.o
       186          0          0          0          0        176   depilogue.o
        50          0          0          0          0         76   dfixui.o
        26          0          0          0          0         76   dfltui.o
       228          0          0          0          0         96   dmul.o

    ----------------------------------------------------------------------
      1510         72          0          4          0       1012   Library Totals
         2          0          0          0          0          0   (incl. Padding)

    ----------------------------------------------------------------------

      Code (inc. data)   RO Data    RW Data    ZI Data      Debug   Library Name

      1018         72          0          4          0        588   mc_w.l
       490          0          0          0          0        424   mf_w.l

    ----------------------------------------------------------------------
      1510         72          0          4          0       1012   Library Totals

    ----------------------------------------------------------------------

==============================================================================


      Code (inc. data)   RO Data    RW Data    ZI Data      Debug   

     28006       1168      12470         56      58752     736639   Grand Totals
     28006       1168      12470         56      58752     736639   ELF Image Totals
     28006       1168      12470         56          0          0   ROM Totals

==============================================================================

    Total RO  Size (Code + RO Data)                40476 (  39.53kB)
    Total RW  Size (RW Data + ZI Data)             58808 (  57.43kB)
    Total ROM Size (Code + RO Data + RW Data)      40532 (  39.58kB)

==============================================================================

